:100000000C9434000C9446000C94D7000C944600D9
:100010000C9446000C9446000C9446000C94FF008F
:100020000C9446000C9446000C9446000C94F3008B
:100030000C9446000C9446000C9446000C94460028
:100040000C9446000C9446000C9446000C94460018
:100050000C9446000C9446000C9446000C94460008
:100060000C9446000C94460011241FBECFEFD8E03C
:10007000DEBFCDBF21E0A0E0B1E001C01D92A13004
:10008000B207E1F70E9443010C948D010C9400002B
:10009000F894419A94E05F98EFECF7E03197F1F72C
:1000A00000C000005F9AEFECF7E03197F1F700C075
:1000B0000000915081F7419A94E05F98EFECF7E0EF
:1000C0003197F1F700C000005F9AEFECF7E031974D
:1000D000F1F700C00000915081F7419898E05F98D7
:1000E000E7EEF3E03197F1F700C000005F9AE7EE2A
:1000F000F3E03197F1F700C00000915081F728E05C
:1001000030E090E0AC01022E02C0559547950A946C
:10011000E2F740FF2AC0419A44E05F98EFECF7E035
:100120003197F1F700C000005F9AEFECF7E03197EC
:10013000F1F700C00000415081F72150310911F75B
:10014000419A84E05F98EFECF7E03197F1F700C057
:1001500000005F9AEFECF7E03197F1F700C0000084
:10016000815081F7419878940895419848E05F98CC
:10017000E7EEF3E03197F1F700C000005F9AE7EE99
:10018000F3E03197F1F700C00000415081F7D5CF7F
:100190003B9A279A4398412C512C88E0382E579A45
:1001A0005F9A399A41980E943D01789408951F9270
:1001B0000F920FB60F9211248F939F93932D33FCC0
:1001C00009C01092850010928400809100018F5F19
:1001D000809300019460392E9F918F910F900FBEF4
:1001E0000F901F9018951F920F920FB60F92112427
:1001F000689430F80F900FBE0F901F9018951F92C3
:100200000F920FB60F9211248F93832D33FC02C0EF
:100210008860382E53948F910F900FBE0F901F90CF
:100220001895E1E8F0E080818860808380818360B8
:100230008083EFE6F0E080818260808387EE93E048
:1002400090938900809388000895E9E6F0E080812A
:100250008C608083E99A0895E1EBF0E0808188600A
:100260008083808183608083E0E7F0E0808182602A
:10027000808383E28093B30008950E9411010E945D
:1002800025010C942C010E94C800C0E001E010E0A0
:100290004398DFB7F8948AEA0E944800DFBF2FEF47
:1002A00081EE94E0215080409040E1F700C00000D2
:1002B000F89432FE0AC033FE06C0552021F0439A5E
:1002C000E89433F8512CE89432F830FE1FC033FC28
:1002D0001DC0C73009F4C0E020910001C8010C2EF8
:1002E00001C0880F0A94EAF7342D2150243080F49D
:1002F000382B432E90910001832D983010F08260AE
:10030000382EE89430F810920001CF5F7894C0CF77
:0E031000282F2095422E4322EDCFF894FFCFE8
:00000001FF
