:2000000005B70F7005BF01C000C0F894E0EEF3E0EDBFFEBF20E02093C50029E12093C400D1
:2000200026E02093C20028E12093C10026E02093C20001E00BB92EEF2AB9000009B101707D
:200040000BB92EE224B901ED05B9000003B1017D05B923E027B90CE708B9000006B10C7F7A
:2000600008B9A4E6B0E00E942B0E0E949C0D0E94D00129F0E6EFF0E20E941A0DC1CFE7EE1E
:20008000F0E20E941A0DA0E0B2E01E9151D30A3A09F445C0A0E001E42BD3A3E004E028D3D5
:2000A00001E4A4E025D300E523D30AE521D302E81FD300EA1DD3EAEFF0E0A9E00FD30AE06D
:2000C000ABE016D302E3ACE013D3AAEF002710D3ABEF00270DD3ACEF00270AD3ADEF0027AF
:2000E00007D3AEEF002704D3E0E0F0E0A0EFB1E027D326D3AEE3B0E0EFEFFFEF21D3ACEF6C
:20010000B1E0EFEFFFEF1CD3AEEFB1E000270E948F030AEAA0E0B2E01E910E948F03AEE390
:200120000E94A503AFEFBFEFEA17FB0719F40E944E02B8F00E94A002C9F0ECE3F1E20E943E
:200140001A0DAEEFB1E00E9498031E910395E7D20E94760231F450F4EAE6F0E20E941A0D1F
:2001600005C0E3E5F1E20E941A0D71C0EDE2F1E20E941A0D0E949C0DFF27EE27CF012091B3
:20018000C00027FF04C00091C6000B31B1F0FC011191CF010E949D0AA0E6B9E0EA17FB07A7
:2001A00070F3A8E2BAE0EA17FB0748F7EC01EEECF3E20E94A20C0E94460A0E949C0DE0E984
:2001C000FFE10E941A0DE1E1F2E2A0EFB1E0C2D2E1E2F2E2A2EFB1E0BDD2A0EFB1E0B5D23D
:2001E000C1E1D1E0E993F993B0D2E993F993C1E1D1E044E00E94C40E002700931901ABD4DC
:20020000B3D4002700935001A0E07ED2063419F0013409F4E6D20E949C0DE3E6F0E20E94C7
:200220001A0D0E94D20CE8F3E1E0F2E001910F3319F40E94620EEFCF023581F4E0E9F1E2B0
:200240000E94E40A28F10E3639F0093509F5A0E0B2E01E910FEF63D20C940000053411F47A
:200260000FD2D9CF033529F40E946B0ED4CF63C054C0013471F40081063529F0023331F0E6
:200280000E94120AC8CF0E944D0AC5CF0E94580AC2CF093419F40E94E60AFACF0635A1F571
:2002A0000FEF00931901E4E7F0E20E941A0D0E946B09E2EAF2E20E941A0DA0E025D20E9495
:2002C000030D0E949C0DE2EAF2E20E94D90C003218F0A0E00DD2EDCFE2E8F0E20E94D90C24
:2002E0000032B0F2093509F096CFAAEF54E00027FFD15A95E1F70E946B09E0E0F0E0A0EFCE
:20030000B1E01ED21DD287CF0F3479F40191093411F457D280CF023511F463D27CCF033527
:2003200051F40E944D0C79F00DC0033421F47FD3B5D011D407C00E949C0D0FE30E94030D89
:200340000E94030D68CF0CC020E024B900E005B920E027B900E008B920E02AB900E00BB965
:200360002FEF24B900E005B92FEF27B900E008B92FEF2AB900E00BB900917A000F7700937C
:200380007A000FEF0093640005B7006605BF0F7D05BF03B7046003BF03B7016003BF8895DE
:2003A000E0E0F0E0FF93EF9360D0DF93CF93FE01C895002D3196802FC895002D3196902F86
:2003C000EF91FF91AF91BF91BF93AF93EA1BFB0BDF01EF91FF910DD030F0DF01FC01EA1713
:2003E000FB0788940895E6E0F1E20E941A0D089408950A2F079508F4089533242224BF01DC
:200400000B2F001F08F40895C1E8D2E0FB0150E40B2F002331F40A2F003818F40A2F06958C
:20042000502F052F402FC895002D319609931E91C895002D319609931E915A95A1F7BF011B
:20044000BF93AF93C1E8D2E0BB27042FA02F0E94CC02AF91BF91109609F0D2CFF1010895FA
:20046000E0E0F0E029E90E94F90EA0E0B0E653E0EA17FB0750F4C895002D31960A3AB9F75C
:200480005A95B1F7EF01889408952EEE0E94F90EEDE6F0E20E941A0D08940895EEE1F1E20E
:2004A0000E941A0D0E94E50258F4EAE7F1E20E941A0DACEFB1E0EFEFFFEF42D108940895ED
:2004C000EAE6F1E20E941A0D02D08894089538D0AEE30E946E0300E40093FD01002700934A
:2004E000FF015EE3539553951CD0089529D0C0E1D1E0E993F993889409F4089500E40093E2
:20050000FF0100270093FD015EE30BD019D011F408940895EDE6F0E20E941A0D08949894AA
:200520000895A091FF010E948403A093FF01A091FD010E947803A093FD015A9591F7089500
:20054000A0E05EE353955395C1E8D3E00E94840309935A95D9F71A911A910991A02F0991D1
:20056000B02FBF93AF93C1E8D3E0BB27AEE3A69509D0C0E1D1E0E993F993AF91BF91EA173A
:20058000FB0708952224332472D001C067D004D06ED0F10188940895EAE3F6E22F010991B9
:2005A0000225F2012227E00FF21FC895002D202E099102250325F2012227E00FF21FC8957E
:2005C000002D302E119741F70895BF93AF9320D0FF93EF93EAE3F6E2A0E0B1E0EA0FFB1FB2
:2005E000C895002D3196A02FC895002D3196B02FEF91FF91EA17FB0739F02EEE0E94F90EAA
:20060000AF91BF91089408958894AF91BF910895BF93AF93DF93CF935F934F9333242224EF
:2006200044E0EAE3F6E2CF0150E4C1E8D2E0FC01C895002D319609935A95D1F7CF01C1E878
:20064000D2E0A0E2B0E0A8DF4A9571F74F915F91CF91DF91AF91BF91F1010895BF93AF93B5
:20066000ACEFB1E072D01F01AF91BF910895BF93AF93F101ACEFB1E063D0AF91BF910895AD
:200680009FD7E7ECF0E20E94D90C08F4089598D7003208F40895043549F0003519F451E000
:2006A00065D0EECF043461F75FD0EACF01E400931001A0EC00911001B1E031D000911001E5
:2006C0000395009310010B35A8F3A0ECB1E030D00E94030D0B35D0F373D7D2CF0E2F08D031
:2006E0000F2F06D0089510D0E02F0ED0F02F0895BF93F999FECFBB27B2BDA1BD00BDFA9A0F
:20070000F99AA395BF910895BF93F999FECFBB27B2BDA1BDF89A00B5A395BF910895F999C3
:20072000FECFB2BDA1BD00BDFA9AF99A1D910895F999FECFB2BDA1BDF89A00B51D91089532
:200740000E2FEDDF0F2FEBDF0895F2DFE02FF0DFF02F0895FF93EF93F8DFCE2FDF2FEF910A
:20076000FF910E94A20C089502E001C0052F00931001A0E0B0E040E0C1E8D2E0BF93AF9362
:200780000E94980309934A95D9F7AF91BF91BF93AF93C1E8D2E050E10E948E0EAF91BF9153
:2007A000E0E0F1E0EA0FFB1FDF01009110010A95009310010023F9F60895EFE5F2E20C94D9
:2007C0001A0D00917E000C6000937E00002700937B00002715D0E1E3F2E20E941A0DEDDFF8
:2007E000C9C1EFDF2DD201D00895C1E1D1E0E991F991A0EFB1E0A4DFE991F991A1DF089519
:200800000093360100270093260129982A9800911901002309F40895E8E4F2E20C941A0DDB
:200820000AE0502F2A98299AF1D02998EFD05A95D1F708950AE0502F29982A98E5D0299AD1
:200840002A98E4D02998E0D02A9AE0D00BD008F408955A9599F729982A9888940895B0E17D
:2008600001C0B0E206B10B230B17889409F40895C7D0AAE006B10B230B17889409F408958A
:20088000BFD0AA95B9F708940895B0E101C0B0E206B10B230B17889409F00895B1D0AAE0F9
:2008A00006B10B230B17889409F00895A9D0AA95B9F708940895DF93CF93CE2FDF2FA5E07A
:2008C000B0E018D0C4E6D0E015D0FE2FEB2F8894F795E7958894F795E7950E2FCF91DF91C5
:2008E00008956BD0DF93CF93CE2FDF2FACE2BAE101D0EBCFE0E0F0E000E18894B795A79578
:2009000010F4EC0FFD1FF795E795B795A7950A95B9F70895A0931501052F00932B01FF27DE
:20092000EE27C9E2D1E0E993F99300911501023011F43FD007C0033011F43FD003C0073049
:2009400061F533D0FF93EF93C9E2D1E0E991F991AF91BF91EA0FFB1FC9E2D1E0E993F993C3
:200960005A9519F7C9E2D1E0E991F99100912B01013009F40895023011F401E00BC0043079
:2009800011F402E007C0083011F403E003C0003121F404E004D088940895089408958894BA
:2009A000F795E7950A95D9F7089507E000937C0007C002E000937C0003C003E000937C00C0
:2009C00003E0006800937A00006400937A00BAE000917A000074002329F012D0BA95C1F710
:2009E0000894089500917800E02F00917900F02F88940895BF9308D0BF911197D9F7089535
:200A0000BF9302D0BF910895B1E004C00FEFB02F01C0B0E80DE60A95002329F0000000006C
:200A200000000000F8CFBA95BB23A1F70895E9EEF2E2A4E08CD0E0E0F3E2A5E088D0E7E1C8
:200A4000F3E2A6E084D0EEE2F3E2A7E080D0E5E4F3E2A8E07CD0A9E046DECE2FDF2FECE570
:200A6000F3E272D7E9E7F3E2ABE071D0E6E9F3E2ACE06DD0EEEAF2E29CD708F40895003290
:200A800008F40895013659F4E9EEF2E20FD70E2F0C33D0F30E36C0F7A4E02ADEC8CF023613
:200AA00059F4E0E0F3E202D70E2F0634D0F30639C0F7A5E01DDEBBCF033659F4E7E1F3E21E
:200AC000F5D60E2F0035D0F30639C0F7A6E010DEAECF043659F4EEE2F3E2E8D60E2F0035D3
:200AE000D0F30639C0F7A7E003DEA1CF053659F4E5E4F3E2DBD60E2F0A35D0F30E3BC0F74F
:200B0000A8E0F6DD94CF063659F4ECE5F3E2CED6A4E6B0E0EA17FB07C0F3A9E0DFDD24C04B
:200B2000073649F4E9E7F3E2C1D60E2F0530D0F3ABE0DEDD19C0083649F4E6E9F3E2B6D600
:200B40000E2F0530D0F3ACE0D3DD0EC070CFDCDDC02FD0E0F9C6E1E3F1E055E0A4E0D4DD01
:200B600001935A95E1F70895EAE1F1E054E0A9E0F6CF22C5B5D3E0D764D3DFD40027009395
:200B80002301FF27EE27CFE2D1E0E993F9931DD200932E01E2D2FF27EE27CFE2D1E0E9930E
:200BA000F99329D40027202E12D309F0239415D309F02394022D023050F00FEFAEEF98DD59
:200BC00034D33BD328D32DD306E01ADE75D3AEEF9BDD002321F50027202EF9D209F423949D
:200BE000FCD209F42394022D023039F406E50BD70DDF0FEF00931901EECFE9D211F40FD322
:200C000003C0EBD209F417D300911901002309F40895A0E006E46CDDEDE8F2E2B0D3E6E65A
:200C2000F4E2ADD3E6E8F4E2AAD3D1D28ED3ECE8F4E2A5D3D2D289D3E0EBF4E2A0D3089566
:200C40002091C00027FF08C00091C6000B3109F40895033709F430D3CED3C8D1D0D2B02F13
:200C6000D2D20B2B002309F0D3C001E0D0DE7CD2CFD368D150F40D3611F4C5D681C00B318F
:200C800009F40895033709F417D370D2093469F3CFE2D1E0E991F991EA0FFB1FCFE2D1E0E3
:200CA000E993F993CE2FDF2FB09123010B1700932301D9F20F93CFE2D1E0E991F991AE2F33
:200CC000BF2F009119010023032F09F0DCD20F91083461F486D148F208E4BAD2CBD2FF2782
:200CE000EE27CFE2D1E0E993F993BFCF0C3429F478D108F4BACF0CE4F0CF003541F571D160
:200D000028F1E9E7F5E23BD3AEEF0FEFF1DC6DDD00E579D67BDE59D1023320F00C33C0F365
:200D200029DF8ECF62DD03E56ED670DE4ED10C3368F42091C00027FFF6CF0091C6000B31EC
:200D400091F70895E3E2F5E21AD38FCF8ECF0D34C9F747D108F489CF0DE47AD28BD2FF27FD
:200D6000EE27CFE2D1E0E993F993AEEFCDDC002309F04EC0E4E4F5E2C8E3D1E003D330F390
:200D800060D22BD2B1F023D219F0E9E4F5E2F7D242D247D24AD251D2002735D1D0F40F9319
:200DA00032D603E672D30F91053411F431E138C010C03DD242D22DD234D20FEF24D148F4EE
:200DC0000F9321D60FE661D30F91053411F432E227C00F3471F00536D9F00C3451F413D266
:200DE000002309F0D5CF0BD2002309F0E2CF08DD0EC001D307E507D634DDD8F330DDC8F395
:200E0000EFECF5E2BCD2E7EDF5E2B9D201C018CF87D1D0F466DDCE2FDF2FEAEDF3E292D537
:200E20002BEBE7D708E0ECDCE6D205E4ECD5A8EEB3E011D72091C00027FFF2CF0091C6000C
:200E40000B3171F70894089546D2E2D299D0A0E0B0E0009119010023032F09F014D290D031
:200E6000032F009323010D3491F064D180F40AE5CAD502E0B2D508F0089500912301C3D545
:200E800005D300912301003509F43BCFA8CFAEEF3BDC0023F1F029E9ACD7BDD1C6D1002779
:200EA000B2D018F4053409F40CC0053641F00C3409F4AECF06B1B0E20B230023D9F7A0DC96
:200EC00002C033E3ADCFECE5F5E259D2AEEF00270FDC95D1002309F408C079D109F02BC0C0
:200EE00002E08EDC98D182D026C08DD1002309F40BC073D109F01FC003E082DC98D176D0B0
:200F0000AEEF0027F5DB17C062D109F014C079D1002319F46BD07FD18AD104E071DC0BC00A
:200F20005CD109F008C071D1002319F45FD07FD172D105E065DCCFD183CEEDE6F0E21FD2E2
:200F400008940895FF27EE27CF01A3E0DDDBC02FD0E016D02091C00027FF04C00091C600DB
:200F600008940895FC01EC0FFD1FCF01A4E6B0E0EA17FB0770F3AE2FBF2F032F889408951E
:200F80003FE3DF93CF9321D0A02FCF91DF9130E50C3308F40895B091310139E40B1708F430
:200FA0000895B09133013CE40B1708F40895B09134013DE40B1708F40895B091350139E45E
:200FC0000B1708F4089538E40895A3E09DDB502FA2E0A0DCD4D2BF01CF016DDC23E0020F92
:200FE0000895E0EDF7E0EC17FD070895F0D009F416D1F3D009F41FD1F6D009F412D1F9D049
:2010000009F41BD1089500932101FADB00912101002329F4E2D005E609F4089504C0D7D02B
:2010200005E609F4089586D030F4E1EFF4E2A7D10CE40894089500912101002319F42998C6
:201040002A9A02C0299A2A9800911D0100931E01D2D1002700932001E3E5F1E0C1E5D1E0B6
:20106000E993F9930027009350015AD0A0931F0198F400912001039500932001B0911C01F8
:201080000B1750F0EF9307E0BBDB0F91ECE0F5E270D405E4089408957CD010F00FE408956A
:2010A00049D030F4E7EDF4E26AD10CE4089408958CDFC1E5D1E0E991F991019300911F01DA
:2010C0000193C1E5D1E0E993F993009150010395009350012091C00027FF08C00091C60009
:2010E0000B3121F48DDB01E408940895A5E0B0E0B2D500911E010A9500931E01002309F060
:20110000B4CF47D028F03CDF032F0D3409F4089503E579D4EDE6F0E232D1089403E50895F7
:20112000E0DBAE2FBF2FCAE1D1E0E991F991EA17FB0708954ADFB09132010B1708F00895D5
:201140002EEE57D6A3D141DFB09132010B1708F0089501E055DB08940895FF27EE27CCE254
:20116000D1E0E993F9930895A1E0B0E0DF93CF93FF93EF93CCE2D1E0E991F991EA0FFB1FAA
:20118000CCE2D1E0E993F993EF91FF91CF91DF91089507D0B0E30B23889409F40895089481
:2011A0000895332414D011F400E1302A16D011F400E2302A032D0895332415D011F400E101
:2011C000302A17D011F400E2302A032D089547DB189408F408959894089543DB189408F4CA
:2011E00008959894089551DB189408F40895989408954DDB189408F4089598940895AAEF80
:2012000005C0ABEF03C0ACEF01C0ADEF7DDA0F3F08950FEF01C00027AAEF6ADA08950FEF14
:2012200001C00027ABEF64DA08950FEF01C00027ACEF5EDA08950FEF01C00027ADEF58DA47
:2012400008950DE00093380100270093370108950F93E8E3F1E020913701E20F20E0F21F80
:2012600001930DE0008300913701039500933701BF91089500911901002309F40895E8E31E
:20128000F1E0CFD30895003210F40C940000BF93AF93E4E7F4E20F9372D00F91E1E0F2E01C
:2012A00001930CE201930027019373D3CF91DF91E2E8F4E249D3089563DEAF93032FA3D3C3
:2012C0000CE2A1D3CF91D0E0EBE7F4E23DD308D031D209E4089500911901002309F4089517
:2012E000E2E9F4E28CDF3AD0ECE8F4E28ADF36D0E8E9F4E288DF32D0E6E8F4E286DF2ED0A8
:20130000E9EBF4E2AED3AEEFFFD9002311F000E57AD30091360120E3020F75D30CE273D37F
:20132000E2EBF4E22CD003B106700230EFEBF4E209F425D00430EBECF4E209F420D000231F
:20134000E7EAF4E209F41BD0089521F0E3EAF4E218D00895EEE9F4E214D008950F3F0F930A
:201360000FB70F930CD00F910FBF0F9121F0E7EAF4E207D00895ECEAF4E203D008950C9433
:201380001A0D6FC35527BF0117D00A2F0093100108810032052F08F40895DF93CF93009107
:2013A0001001A02FFB0113D0CF91DF91052F08F0089519915395ECCFAA27C895002D319666
:2013C000003208F40895A395F8CF0895AFE70A2F002311F488940895C895002D3196B9915B
:2013E0000032C0F3B03208F408950B17089409F00895AA95ECCF03B1067006950295B02F04
:2014000006B100950073069506950B2B0BB90895E1E1F1E0C3D000911101002309F00895BE
:201420008CD00895E4EEF3E2CCD0002700931001E0E1F4E2009110010F70002311F0ECE3FA
:20144000F4E2C1E0D2E09DD20DE00883A2E058E061DA31DA14D0BB27E1E0F2E0EA0FFB1F10
:2014600006E5008398D2009110010395009310012091C00027FFDCCF0091C60030C0AA275C
:20148000055008F40895A395FBCFBDD29EDDC02FD0E0EBE7F4E258D20895F8DFA4E6B0E053
:2014A000DAD32091C00027FFF8CF0091C600089580DACE2FDF2FE3EBF3E244D2A2E058E055
:2014C00029DACE2FDF2FE3EBF3E23CD22091C00027FFEECF0091C6000B3109F408956DDA85
:2014E000CE2FDF2FE9EBF3E22DD22091C00027FFF6CF0091C6000B3109F40895A7E058E0F1
:2015000009DACE2FDF2FEFEBF3E21CD22091C00027FFF4CF0091C6000B3109F408950DD0DC
:20152000E0D9CE2FDF2FEAEDF3E20CD22091C00027FFF6CF0091C6000895A7E058E0EAD98B
:20154000C7E1D1E0E993F99308D0FF93EF93E5ECF3E2F8D1EF91FF9108951F014424552421
:20156000E8E8F3E13F018824992467D1E0E0F4E03F01882499242CD1F101EF0108953F01ED
:2015800088249924EFEFF1E01F014424552455D1C7E1D1E0E991F991EBDF0895BF93AF93B4
:2015A000A4E0B1E0889400810B1F0193BB27AA95D1F7AF91BF9108954EC3E6C383C319C4C8
:2015C000BBC20C941A0DEEC1F4C11DC2B5D203B10F70E4E0F2E295D2E8EBF1E2E0D10191E2
:2015E000003208F40895013479F40081003210F49AD060F3003350F3023340F7003311F4F0
:201600002998E4CF299AE2CF023479F40081003210F489D0D8F20033C8F20233B8F6003362
:2016200011F42A98D3CF2A9AD1CF033449F576D006B10F73E8EFF1E264D22091C00027FF72
:20164000F6CF0091C6000B3109F0C0CFE1EAF5E2B8DF64D06FD02091C00027FFFACF00910D
:20166000C600AADD0093220194DDC3D3A4EFB1E0F2D22091C00027FFF7CF0091C600A6CF4F
:201680000D3409F008950F939BDF0F91008106340FEF21F00235002709F098CFB4DC2BEB89
:2016A000A8D3E8F00F93E5E3F5E28BDFA4DE0F910334A9F081DD009322016BDD80F030DD61
:2016C00040F4EA2FFB2FCE2FDF2FECE5F3E23CD106C02091C00027FFF0CF0091C60090D8FA
:2016E0008ADEC3E5D1E0BE01009150010023A1F0E1E0F2E0EB010991BE017FD20CE2019329
:20170000EB010991BE0179D244D1009150010A9500935001002361F759CF08956CDEA4EFA2
:20172000B1E099D20895EEEEF1E243D108F408950032089594D818F4E1ECF5E242DF91D83F
:2017400018F4E8ECF5E23DDFA0D818F4EFECF5E238DF9DD818F4E7EDF5E233DF08950895F1
:20176000AA270191003208F40895A395FACF0895052D001F60F4209430944094509421E0C7
:20178000220E2227321E421E521E0DE209935AE0E8E6FFE165907590859095902614370494
:2017A0004804590428F45A95A9F700E309930DC0349765907590859095900AD0022D00631E
:2017C0000993130124015A95A1F70DE009930895AA24BB24CC24DD24B0E28894661C771C26
:2017E000881C991C092D000F10F0BA95B1F701E20B1BB02FBB23089409F4089526183708DB
:201800004808590830F4260C371C481C591C889401C00894AA1CBB1CCC1CDD1CBB2339F097
:20182000BA9588949794879477946794E7CF3101420115012601889408950027DD24CC24B8
:20184000BB24AA24629CA00CB11CC01ED01E639CB00CC11CD01E649CC00CD11C659CD00C7C
:20186000729CB00CC11CD01E739CC00CD11C749CD00C829CC00CD11C839CD00C929CD00C43
:2018800015012601089526183708480859080895260C371C481C591C08954ED1E3E5F2E2ED
:2018A00088D010F0093508950F6F089578D008F40895E1E0F2E001D008950081083449F002
:2018C0000F34A1F0DCD108F40895EF0178D18894089511910E94610D08F40895D02F0E9410
:2018E000610D08F40895C02FFE01089511910E947A0C089509D008F40895A02F05D008F4DD
:201900000895B02FFD010895BF93AF93CF93A3E0BB270191003388F0083378F40770C02F0B
:201920000B2F000F000F000F0C2BB02FAA9589F7CF91AF91BF9188940895CF91AF91BF91D2
:20194000089408950CD009C00AD00D2F001F28F40DE201932197C095D09557D11AC0DF93EF
:20196000CF93C1E0D2E00DD0EC2FFD2FCF91DF9108950F930E941A0D0F91E1E0F2E03DD175
:2019800008C0C895002D3196003208F408950993F8CF0DE00083E1E0F2E043D008955AD023
:2019A0000E941A0D0FEFE1E0F2E00BD0E1E0F2E008950E941A0D04E610D008F4089523D0A3
:2019C00008950F930F910F9308D028F01CD001930032C0F788940F910895BF93AF93A0E0C0
:2019E000B0E0119751F02091C00027FFFACF0091C6008894AF91BF9108950A9581F70894BB
:201A0000AF91BF9108952091C00025FFFCCF0093C60008952091C00027FFFCCF0091C6008A
:201A200008950191003210F0EEDFFBCF0D3009F0089510C0C895002D3196003258F0E3DF7E
:201A40000A3369F00D33B1F7C895002D003208F40895F0CF0DE0D7DF0AE0D5DF089500E234
:201A6000D2CFC895002D31960032A0F3CCDF0A3309F408950B3309F408950C3209F408957D
:201A80000E3209F40895013209F408950F3309F40895E7CF0D2F03D00C2F01D008950F93B3
:201AA000069506950695069503D00F9101D008950F700A3010F027E0020F20E3020F019360
:201AC00008950CD008F40895000F000F000F000FA02F04D008F408950A2B089501910033E5
:201AE00008F408950A3340F0013408F40895073430F401542AE0020F0F708894089508946F
:201B000008950F930E941A0D0F91E1E0F2E001D040CF58E0B0E8A02F0A2F0B2320E300237E
:201B200009F021E3022F01930B2F0695B02F5A9599F70DE0008308950F930FB70F930AE0AF
:201B400062DF0DE060DF0F910FBF0F910895BF93BB27DF93CF93CF91DF91BA95D1F7BF912E
:201B60000895BF93AF93B0E00191003388F00053A02F0081003348F00A2F000F000F0A0FE9
:201B8000000FB02F01910053A02F0A2F0B0FB02F0B2FAF91BF910895BF93B0E00A5010F0CE
:201BA000B395FCCF0F930B2F20E3020F01930F912AE0020F20E3020F0193BF91089555E009
:201BC000E0E0F0E00881003308F408950A3308F008950053AE2FBF2FEE0FFF1FEE0FFF1FFA
:201BE000EA0FFB1FEE0FFF1F0E0FE02F00270F1FF02F19915A9531F70895C02FD0E011C049
:201C0000C02FD0E0043698F00CC0A0E1B7E21AD020E3020F0193A8EEB3E014D020E3020FCA
:201C20000193A4E6B0E00ED020E3020F0193AAE0B0E008D020E3020F01930C2F20E3020F87
:201C4000019308950027CA1BDB0B10F00395FBCFCA0FDB1F08950F93DF93CF93BF93AF9385
:201C6000C5E0D0E004E40A95F1F72197D9F71197B9F7AF91BF91CF91DF910F9108950033F0
:201C800008F408950A3318F400538894089508940895BF93AF93B02F0B2F007CA6E00695D3
:201CA000AA95E9F7006301930B2F0873069506950695006301930B2F077000630193AF91A9
:201CC000BF910895E4ECFFE10E941A0DC895002D0A32D1F70895EDE9F0E20E94560C20F4B3
:201CE00000910102003220F0C9EFD1E0E993F993E8EBF0E20E94560C20F40091010200321A
:201D000020F0CBEFD1E0E993F9930091FB01502FE9EFF1E0C191D191FE01DF01DF93CF9324
:201D200040E10027D02E09910F3F09F4D3944A95D1F7FE01CF91DF910D2D003119F4EF0133
:201D400050961AC0DF93CF93E1E0F2E0AF930B2FA6DEAF910A2FA3DEBF93AF930AE301934D
:201D600000270193E1E0F2E05CDEAF91BF915096CF91DF9140E108D05A9581F6089540E178
:201D800003D05A95E1F70895E1E4F2E0099187DE00E201934A95D1F7DF93CF930DE0008315
:201DA000E1E4F2E03EDECF91DF9108955F934F93FF93EF93DF93CF93BF93AF933F932F931F
:201DC0000F930FB70F93EFEDF5E234DED0E0C0E051E00E94820F0F910FBF0F912F913F91E2
:201DE000AF91BF91CF91DF91EF91FF914F915F9108955F934F93FF93EF93DF93CF93BF93F8
:201E0000AF931F9300BD0FB70F9300B50F9300930001012F00930101B0930B01A0930A016C
:201E2000022F00930201032F009303010FB700BDDF93CF93CEE0D1E0E993F993CF91DF9184
:201E4000ECE0F1E0C193D193052F00930501042F00930401FC01C8E0D1E0E993F993EB014B
:201E6000E6E0F1E0C193D193EDE0F6E2E3DDC0E0D1E051E00E94820FE1E4F2E00EE40193DC
:201E80000AE5019303E401930DE3019300B5302FB4E0A3E020E3032F0B23B695002309F0CB
:201EA00021E3022F0193AA95A9F70DE00193E1E4F2E0B7DDE6E0F1E0C191D191BE01C8E01C
:201EC000D1E0E991F991CF0100910201202F00910301302F0F9100BD0F910FBF00B51F9176
:201EE000AF91BF91CF91DF91EF91FF914F915F9108950C2FE1E4F2E0CCDE0AE3019300E226
:201F000001930895F6DF48E00991B02F0991C7DD0B2FC5DD00E201934A95B1F7DF93CF932F
:201F20000DE00083E1E4F2E07CDDCF91DF915A9549F7089548E0E1E4F2E0199108811A9108
:201F4000AEDD0991ACDD199100E201934A95A9F7DF93CF930DE00083E1E4F2E062DDCF91BA
:201F6000DF915A9539F7089500CA9A3B00E1F5058096980040420F00A0860100102700001E
:201F8000E8030000640000000A000000010000004D4F4E49544F522076332E3031612020C6
:201FA000666F722041546D656761313638202D20522C412C492C452C432C4F492C4F522CAE
:201FC0004F533F0D4F7B522C497D204F7065726174652052756E2C496E69742C536C65654B
:201FE000700D4520496E742E454550524F4D20746573742C64756D700D4132205265616400
:2020000020414443322C332C372C4D6F74206D413B20415620566C696E650D4920492F4F6D
:202020002074657374730D53205352414D2D64756D7020303130302D303446460D43204306
:2020400068616E67652F43616C696220566F6C746167652D5370616E730D3F2068656C703A
:202060000D2A0D436D643F203A0D4F4B0D2A4552524F520D564552424F5345206D6F64651F
:202080002E0D526573657420454550524F4D20666C6167732028592F6E293F3A0D537461D8
:2020A0007274204868686C6C7C4F6262627070707C64646464643A0D4E6272207061726746
:2020C000727068733F3A0D28542965737420284429756D70416C6C204669727374285029E3
:2020E000616765203F3A0D2B2B2B204170702D526F6D204F4B0D2A2A2A204150502D524FDC
:202100004D204552520D2A2A2A4150502D524F4D2048415348204C454E204552520D2A4916
:20212000454550524F4D2042552E2E2E0D2B2B2B2049454550524F4D204F4B0D49454550ED
:20214000524F4D2D524553544F5245205452592E2E2E0D2A2A2A2049454550524F4D205269
:20216000535452204641494C210D2B2B2B20484153482D54424C204F4B0D2A2A2A20524F22
:202180004D20484153482D54424C20424144210D524553455420496E742E454550524F4DC6
:2021A0002028592F6E293F3A0D2A554E494D504C454D454E5445440D7B4F70747D7B307CD2
:2021C000317D20413D4472764120423D447276423B20204D7B467C527D3B2020433D5377A0
:2021E00069746368537461746573203F3A0D30206F722031203F3A0D50696E435B352E2E9F
:20220000305D3A0D506F7274425B332E2E305D3A0D4E62724F704379636C6573284C293A2A
:202220000D4E62724F704379636C65732848293A0D2B4F5045524154494E472053746172DF
:2022400074696E672E2E2E0D4D4F544F52204F4646210D5375726520592F6E203F3A0D45DB
:2022600073632063616E63656C733B2027732774617475733B20276D27207374617274736B
:20228000206D6F746F722D6374726C2E0D2A2A2A20464143544F52592D4D4F4445202A2A54
:2022A0002A0D4F7072746E674D6F64653A0D53656C65637420766F6C74732D7370616E20EA
:2022C0002761272D276527206F72206D6F746F722D737461727475702D6C696D69747320FE
:2022E0002766272D2768273A0D612056747269704C6F202020202837302D393029203A0D7A
:202300006220566D6F746F724C6F20202838302D31303029203A0D632056747269704D6591
:202320006420202839302D31323029203A0D6420566D6F746F72486920283132302D3133F0
:202340003029203A0D6520567472697048692020283133302D31353029203A0D66204F76D8
:20236000657263757272656E74206D412020283235302D353030293A0D67204D6178204F68
:2023800076657263757272656E747320202028352D3230293A0D68204D6178205374617256
:2023A0007475705472696573202835302D313030293A0D414443323A0D414443333A0D411E
:2023C0004443373A0D56726566206D563A0D567265662074726965733A0D4D6F746F7220E9
:2023E0006D413A0D564C696E65202020202020203630202038302031303020313230203167
:202400003430203136302020202020323030560D3020202020202020202020203620204CBA
:202420004C4C204D4D4D4D4D7C204848482020207C202020202020323030560D7C20202082
:2024400020202020202020207C2020207C2020207C2020207C2020207C2020207C20202054
:20246000202020207C0D496E697469616C53746174653A0D53746174653D0D566F6C7473DE
:202480003A0D6D533A0D436C73643D0D4F706E643D0D4F706E673D0D436C73673D0D5945F4
:2024A00053210D4E4F210D4F66662C0D4F4E2C0D2E0D4D6F746F723A0D436F64653A0D460B
:2024C00057442F6F70656E696E670D5245562F636C6F73696E670D2A2A2A204D4F544F52EE
:2024E00020535441525420564C494E45204C4F570D2A2A2A204D4F544F522D535441525487
:2025000020535441544520213D204D0D2A2A2A204D4F544F52204F56455243555252454EC8
:20252000543A0D2A2A2A20554E4B4E4F574E2053544154450D4D4F544F522D535441525438
:20254000204F4B0D4C4D484D0D2A2A2A204552524F523A20434C4F53494E470D2B2B2B203A
:202560004E6F726D616C204D6F746F724F464620506F7765722D55700D2A2A2A204D6F6EF2
:2025800069746F72696E67206E65617220706F737369626C6520504F5745522D444F574EE6
:2025A0000D4F706572617465205377412C537742206E6F77203B4553432065786974732EB6
:2025C0000D537741204F4E0D537742204F4E0D537741206F66660D537742206F66660D203C
:2025E000202020202070207120207220732020742075202076207720207820792020672047
:202600006B20206D206E2031352C31340D202020202020662061207468746C202069206A3A
:202620002020643220202068322020206220632020642065202068206C0DFEFCF8F0E0C099
:2026400080001D2753BB76F1E2C488103D67D3A64C850A090F031B2B4B8B16317FE3C68CD9
:20266000182D47932651BF7EE1C284080D07133B6BCB962C45972E419F3E61DFBE7CE5CAAD
:2026800094284D870E011F235BAB56B162D9B264D5AA54B56AC9922455B76EC1820415377D
:2026A00073FBF6ECD8B060DDBA74F5EAD4A850BD7AE9D2A4488D1A294F8306113F63DBB662
:2026C0006CC58A143577F3E6CC98307DE7CE9C386DC78E1C2557B366D1A244952A498F1E2D
:2026E000215FA346912259AF5EA142993279EFDEBC78EDDAB468CD9A3475F7EEDCB870FD57
:20270000FAF4E8D0A0409D3A69CF9E3C65D7AE5CA54A8912396FC3860C0517337BEBD6AC46
:2027200058AD5AA952B972F9F2E4C890205DA74E8102192F439B3671FF0BD53A20200DAA1B
:20274000AAAAA8F50000000000000000000000000000000000000000000000000000000088
:20276000000000000000000000000000000000000000000000000000000000000000000059
:00000001FF
