:200000000C9480010C9434000C9476000C948D000C948D000C948D000C948D000C949900E8
:200020000C948D000C9499000C948D000C9497000C948D000C94DA000C948D000C94FF0083
:200040000C9443010C948D000C9421010C948D000C948D000C948D000C948D000C948D00EC
:200060000C948D000C948D001FB70F931F93DF93CF93FF93EF93002705BD06B500939A0142
:20008000E5E9F1E02190319041905190EBE9F1E0219231924192519206E005BD002700936A
:2000A0008100E0918400F0918500CFE9D1E0E993F993E0E9F1E02190319041905190E1EACA
:2000C000F1E0219231924192519206E0009381000DB30E7F0DBB0FEF00931B01EF91FF9157
:2000E000CF91DF911F910F911FBF18951FB70F931F93BF93AF93DF93CF93FF93EF930000AF
:20010000000000000000EF91FF91CF91DF91AF91BF911F910F911FBF1895EEEDFFE30E9435
:20012000B11AA8EEB3E00E94931BF7CF1895F5CFF4CF1FB70F931F93BF93AF93FF93EF93AF
:2001400000270093B200EAE8F1E0A4E0B1E0889400810B1F0193BB27AA95D1F700918E0117
:20016000039500938E010A3088F00FEF0093990100270093B1000093B20000938E0107E02F
:200180000093B10047980027009389010091B301002341F000918A010170002311F44798CB
:2001A00001C0479AEF91FF91AF91BF911F910F911FBF18951FB70F931F93BF93AF93FF93D2
:2001C000EF93E5EAF1E0A4E0B1E0889400810B1F0193BB27AA95D1F70FEF009399010091E8
:2001E000A5010170002311F4479801C0479AEF91FF91AF91BF911F910F911FBF18951FB7EE
:200200000F931F93BF93AF93FF93EF93E0E9F1E0A4E0B1E0889400810B1F0193BB27AA95B7
:20022000D1F7009190010170002311F4299801C0299AEF91FF91AF91BF911F910F911FBF28
:2002400018951FB70F931F93BF93AF93FF93EF93E5E9F1E0A4E0B1E0889400810B1F019310
:20026000BB27AA95D1F7009195010170002311F4479801C0479AEF91FF91AF91BF911F9104
:200280000F911FBF18951FB70F931F93BF93AF930091AB0103950093AB010FEF0093AA0125
:2002A0000091B1010023E1F0FF93EF93DF93CF93EDEAF1E0A4E0B1E0889400810B1F019307
:2002C000BB27AA95D1F70091AD010170002311F4479802C00000479ACF91DF91EF91FF91FB
:2002E000AF91BF911F910F911FBF1895000000000000000000000000000000000000000093
:20030000F8940FEF0DBF10E00EBF20E02093C50029E12093C40026E02093C20028E120939A
:20032000C10026E02093C2000FE001B900EF02B90FE504B907EA05B90FEF07B902E00AB96B
:200340000DEF0BB903E108B94398A4E6B0E00E94931B459846980E944E070E9448070E94AE
:20036000F61AAFEF0E94210A0A3A59F101E4A0E00E94170A0FE0A1E00E94170AE2EDF4E076
:20038000A2E00E940D0A08E0A4E00E94170A0CE9A5E00E94170AEFEFFFE0A8E00E940D0AB8
:2003A000EAE6F3E1AAE00E940D0A0FE2ACE00E94170A03E5A4E10E94170A0AEAAFEF0E94B2
:2003C000170AAAE00E94120AC9E2D1E0E993F993CFEFDFE0EBE2F1E0C193D1930E9489064C
:2003E0000E94651310F40E94F70FEDE3F9E4C4EBD1E0E993F99380D500270093B1010093CE
:20040000B301E5D5A0E00E94210A063479F00E94F61AE9E1F0E40E94B11A002700932801DE
:20042000009302014A9B02C00E9435030E94F61AEAE1FEE30E94B11A0E942B030E94F61A58
:20044000E0ECFFE30E94B11A0E945A1AE8F3E7EDF1E001910F3319F40E94991DEFCF0235BD
:2004600009F44ECF053419F40E94F209E7CF013409F053C00E94D2140E94F61AE8E6F3E4A9
:200480000E94731A0032D0F2033409F441C0023591F1013499F6EAE1F2E40E94E9090093BF
:2004A000080140F30E94F61AB0912801BF93BFEFB0932801002319F40E94651318C00F3F08
:2004C00081F4A4EFB1E00E94931BBB27B09328010E94CC132091C00027FFF3CF0091C600B4
:2004E00006C0009108010E94DB130E9452130F9100932801D0CF04E000933301C1E0D0E00E
:200500000E94CF04C7E9D2E056E00E945D1D96CF0E94F61A0E94951691CF043471F40091C0
:200520002801002311F0002705C0E1EDFFE30E94B11A01E00093280181CF003519F40E9494
:2005400056097CCF0F34A1F4E8E3FCE40E94731A003248F0093539F4ECE1FCE40E94B11A50
:200560000E94DE04F1CF81D00E94F61A67CF6BC0093419F40E94C01661CF003319F40E94FF
:200580003D085CCF013319F40E94880857CF023319F40E94C80852CF033469F4EFE2F8E43C
:2005A0000E94B11A0E94CF04C7E9D2E0A0E0B1E00E94C01943CF0C3451F40E944F0530F4BA
:2005C0000E94E51CEAECFFE30E94B11A37CF0D3419F40E94DE0E32CF063439F4E5E0FAE466
:2005E0000E94B11A0E946C0A29CF043519F40E941A1724CF053539F5EFE2F8E40E94B11AF0
:20060000C7E2DCE0BE0105E5099303E3099301E0099300270993099309930E94140878946C
:20062000EB01479A000047980E94E619479A000047980E94E6192091C00027FFF1CF009124
:20064000C600EFD4FBCE0E94F61A0FE30E949A1A0E949A1AF3CE00912801002309F40895C0
:20066000EEE3F0E40E94B11A08954398A1E0E9D600930A010E942B03A0E00E94210A0134C0
:20068000C1F0EFEEF3E40E94B11A02E30E94841A80F00E3671F00E94F61A013509F40895CC
:2006A0000935F9F4E7E2FAE050E9002701935A95E1F7439A0E94F61AE4E9FEE30E94B11A07
:2006C000E4ECF1E40E94B11A0AE00E94F91718F0E4EDF1E404C0EBEDF1E4002369F60E9429
:2006E000B11A439A479834E6E7EAF3E051E00E946B1838F40B3109F408950FE30E949A1A15
:20070000F0CF0091A703A02F00931C01001F001F001F0370502F00932701002349F0479A19
:200720000E946B1828F4E9E6F1E40E94B11AD9CF439847980091A703A02F0E7F0C3259F4E3
:200740000A2F017000932801002359F2E1EDFFE30E94B11AC6CF0A2F0F3281F44398E7E979
:20076000F2E00E942F1434E656E0E7E9F2E0439A0E944C1808F491C00C947103B0910A0140
:200780000B1709F4089500912701002319F10A2F007C003CF9F4009127010330B9F40091AF
:2007A000A7030F7300932101003380F4B02F000F0B0FA02FBB27E7E2FAE0EA0FFB1FC7EA91
:2007C000D3E0199153E00E945B1C8BCF0FE30E949A1A87CF0A2F007F003309F06FC00091D4
:2007E000A703013351F4439AE7E2FAE050E90E946B1808F498CFBBD074CF043359F4E8E873
:20080000FBE3C7E2DAE059E00E94321AE7E2FAE0B0D067CF003339F443980E94020504E54A
:200820000E949A1A5ECF083311F54398E7E9F3E00E942F140E94AD14EE1FFF1FEF01E7E943
:20084000F3E0A6E0B0E0EA0FFB1FC193D193439AE7E9F2E0A0E8B0E0EA0FFB1F50E80E9460
:200860004C18E7E9F3E058E00E944C183ACF0C3329F00E3309F01BC08ED033CFE8E8FBE3AF
:20088000C7E2DCE059E00E94321AE7E2FCE0439A50E934E60E944C1820F4E7E7F1E40E9498
:2008A000B11A1FCFE9E6F1E40E94B11A1ACF43980A2FE7E2F4E40E94CD0413CF0A2F003210
:2008C00009F010C0439AE7EAF3E0119153E00E946B1808F4E7CFE7EAF3E054E00E944C1844
:2008E00000F7DBCF0A2F087F003208F30033F8F60A2F023211F00B3231F403E50E949A1A3B
:200900000E94FC15EECE0A2F077000933301C1E0D0E00E94CF04A6E0B0E0E7E2FAE0EA0F79
:20092000FB1FCF01C7E9D2E0BE01A0E0B0E058E2EB01E991F991BE01EF01EA0FFB1FDF01D0
:20094000FC01C193D19300270193CF015A9581F75CE0002701935A95E9F70A2F01930B2F23
:20096000019300270193E7E2FAE091CFBACEE7E2FAE050E90027A1910A0F5A95E1F70F93E6
:20098000A02FE6E3F4E40091280100230A2F09F004D00F910895E1E8F1E40C94AB180C9426
:2009A000D90EACE00E94210A089511D33AD3002700939901A1D2D5D2789408950E94F61AA0
:2009C000C7E2DAE0E8E8FBE350E20E94321AEAEAFAE40E94B11AE9DF2091C00027FF03C0A5
:2009E0000091C6000AC0009199010023A9F30027009399010E940205EFCFE5E5F0E40E94F1
:200A0000B11A089500912801002359F0EEE0F4E40E94B11AC7E2DAE0A0E9B0E00E94C0193E
:200A200008950E94140878944FE2C7E2DAE00E94D519F7D2089530E001C03FEFBE015F9315
:200A400050E35F93FB012190319041905524BF01F101B42DC7EDD1E00E94F918032F0023B9
:200A600021F000E209930E94BB1B0E94501A5F915A9539F75F910895BF930F93E6EBF8E426
:200A80000E949F180F91BF91BF93E1EEF8E40E94AB180F91E8EEF8E40E94AB1808956624CD
:200AA00077244301EAECF1E06192719281929192CFEFDFEFEEE7F1E0C193D1930BE20E940B
:200AC0009A1A0E94611A00E008F408950191033519F0089401E0089501910033C9F49ED0EF
:200AE00002E008F40895C7E5D2E0BE01C2D003E008F408957ED030F4EAECFFE30E94B11AB9
:200B0000089408950DE00883FB010E94A81AD6CF013309F03FC082D004E008F40895052FF0
:200B20000093C901BE010027009309010091C901502FC7EAD3E09DD005E008F4089559D083
:200B400030F4EAECFFE30E94B11A089408950091C901EAECF1E0A3D0FB01FF93EF93EEE7B9
:200B6000F1E0C191D191A091C901B0E0E7EAF3E00E949512CEE7D1E0FD01E993F993EF918C
:200B8000FF910091C901502FB0910901C7EAD3E03CD094CF023359F454D007E008F40895A7
:200BA000052F0093C901B0930901BE01BFCF0533E9F434D0E8E9F9E40E94C618CAECD1E05C
:200BC000EAEAF9E40E94D918E7E5F2E00E94A81AEEE7F1E0C191D191E6E3F4E40E949F187B
:200BE000E7ECFFE30E94B11A8894089500E208940895AF930E94D61A0095B02FAF910B1755
:200C0000089409F00895889408950991A02F0E9475120E9469125A95C1F708950E94D61A64
:200C2000502F5A95302F0E94D61AD02F5A95300F0E94D61AC02F5A95300F032FA02F88945C
:200C400008950E94D61A502F5A95302F0E94D61AB02F5A95300F0E94D61AD02F5A95300F3A
:200C60000E94D61AC02F5A95300F032FA02F88940895052F003009F408950A2F302F0081F4
:200C8000003208F408950E94D61A08F408950993300F5A95A1F7032FA02F88940895B08111
:200CA0000B0F0193BB2700810B1F019300810B1F019300810B1F01930895C0E0D0E0A0E07A
:200CC000B0E8002707D01197E1F70C94AA0F89D01991089572D019910895F9DFE02FF7DFBF
:200CE000F02F08950E2FF6DF0F2FF4DF08950A2F0B2B09F40895EBDF01931197E1F70895F4
:200D00000A2F0B2B09F408950191E4DF1197E1F7089512D017D00F930FD006E07AD0289A1C
:200D200001E077D00F91037774D0289A0BD0EFEEF8E40E94931808952C982B9829982A98E3
:200D400028980895F9DF05E064D055D0289A08950B2F0A2B09F40895EFDF06E05AD0289A18
:200D6000EBDF02E056D00D2F54D00C2F52D0019150D019911197D9F7289A0895FF93EF939D
:200D8000E1E0F2E0EA17FB0720F0EF91FF9108940895EF91FF910B2F0A2B09F40895CCDFA0
:200DA00003E037D00D2F35D00C2F33D024D0199101931197D9F7289A08950F93BDDF06E09D
:200DC00028D0289AB9DF02E024D00D2F22D00C2F20D00F911ED0289AAFDF04E01AD0289A24
:200DE0000895AADF03E015D00D2F13D00C2F11D002D0289A08955F93002758E02B98000F76
:200E000000004F9B01C001602B9A5A95B9F75F9108955F9358E0000F10F02C9801C02C9A51
:200E20002B9A2B985A95B9F75F910895B4E0B0950AB10B230AB909B104600BB9009169009D
:200E400002600093690000270093680000931B010895002700931B010CB3B1E00B2B0CBBA3
:200E60000DB301600DBB0895B8E0B0950AB10B230AB9009169000C60009369000DB30260DF
:200E80000DBB0CB302600CBB00270093680008950DB30D7F0DBB02E00CBB08950DB30E7F3C
:200EA0000DBB01E00CBB089500E00093B1000CE90093B30002E00093700000270093B20075
:200EC0000093990100938E01009117000C7F00931700EAE8F1E0CBD0089500270093B2009F
:200EE000EAE8F1E0C4D007E00093B1007894089500E00093B1000895002700938100009358
:200F0000800000E00093800000270093810000270093820002E000936F0000E0009381000F
:200F2000E0E0F0E0F0938500E0938400C4EBD1E0E991F991F0938900E093880000270093FD
:200F4000160000270093A901009399010895FF93EF93FD01EFDFEF91FF910BE0009381005E
:200F60000895DBDF0BE000938100089500270093800000E00093810006E00093810000272F
:200F80000093820001E000936F0001E000931600E0E0F0E0F0938500E0938400E0E9F1E0A6
:200FA00066D00895002704BD00E005BD02E005BD002707BD08BD01E000936E0001E000932A
:200FC0001500002706BDE5E9F1E051D00895002704BD00E005BD02E004BD02E005BD0027BD
:200FE00008BD01E307BD02E000936E0000E000931500002706BD00270093AB010093AA018B
:20100000222433242101EDEAF1E021923192419251920895DCDFEADF0FE907BD02E005BDBC
:20102000089500E005BD0895D2DF01E307BD02E005BD0895002706BDE0E0F0E0F0938500B8
:20104000E093840001E0009315000093160006E005BD06E0009381000895DDDF3EDF0895B2
:20106000002705BD009381000093B10008950027A4E00193AA95E9F70895F8940027009351
:20108000B101E3EEF6E40E94731A003208F40895023319F40E94140804C0083371F70E94F0
:2010A0000A080FEF0093B101429878940091AA01002369F442982091C00027FFF7CF429828
:2010C0000091C600F894ADDF0E946C08D6CF00270093AA01429AEACF0E94F61A0E9471081F
:2010E0000895E7ECF7E406B5C02FD0E00E94C618CDEAD1E0EBEAF7E40E94D9180895BB27A1
:2011000054E0089400810B0B01935A95D9F708954798E4EBF1E0C191D191E0ECF7E40E94FC
:20112000C618E6E2F7E40E94731A003208F40895E3DE479A16DFBB27A0E378940091990101
:20114000002361F0002700939901B3950B2F0A3028F0BB27A3950A2F0E949A1A2091C000D9
:2011600027FFECCFF8940091C6000E94F61AEBEAF7E4C5EAD1E00E94D918E0918400F091E0
:201180008500EF01E0ECF7E40E94C618C1CF08958BDE0027009389010093B301E9E4F7E4EA
:2011A0000E94731A003208F408950E94F61AB02F0FEF0093B3010B2F0935D1F40FEF009391
:2011C00089018BDE009189010023E1F7F89490DE0091B300A02F0091B200B09189010E9449
:2011E000E51CCAE8D1E0ECE7F7E40E94D918089574DEEEE9F7E40E94B11A002700939901E8
:2012000000932101222433242101EAE8F1E0219231924192519200919901002361F047980D
:2012200000270093990100912101039500932101079508F4479A2091C00027FFECCF0091FE
:20124000C600A6CFE9EBF7E4CAE8D1E0ECE7F7E40E94D918D2CF0895CFE9D1E0E991F99155
:20126000C8E7D1E0E993F993E1EAF1E02190319041905190EAE7F1E0219231924192519278
:20128000E8E7F1E0C191D191EFE1F1E0C193D1930895E7EBF1E0A4E0BB27089400810B1FB4
:2012A0000193AA95D9F70895A02F0895A0E00E94210AE4EEF1E40E94B218A2E00E94120AE2
:2012C000EF01EDEEF1E40E949F18A1E00E94210AEFEFF1E40E94AB18A4E00E94210AE5E198
:2012E000F1E40E94B818EBE5F0E40E94731A003208F408950E94F61A013409F5EAE9F0E47D
:201300000E94731A003290F20E94F61A442C6966283C3E29676F746F20504152414D204183
:201320002C2028293D612044454255472D4D4F44452C20613D0DA0E00E94170AB7CF0234A3
:2013400049F4EBECF0E433D020F0A2E00E940D0AADCFACCF033451F4E1EFF0E40E94E909AC
:20136000C0F3A1E064D000930A01A0CF043519F40E94D90E9BCF0E3481F4E5E1F1E40E94CB
:201380001A1A38F30E2F0F30C0F70023B1F30830A0F3A4E00E94170A89CF013509F40895BA
:2013A00085CF002311F009E508950EE408950E94571A08F40895E7EDF1E00E94D61AD02FB9
:2013C00008F408950E94D61AC02F08F40895FE0108950E94571A08F40895E7EDF1E00E94CB
:2013E000D61A08950E94F61A01E400932101A0EC00912101B1E02ED0009121010395009368
:2014000021010B35A8F3A0ECB1E02DD00E949A1A0B35D0F30E94F61A08950E2F08D00F2FBA
:2014200006D008950ED0E02F0CD0F02F0895BB27F999FECFB2BDA1BD00BDFA9AF99AA3958A
:201440000895BB27F999FECFB2BDA1BDF89A00B5A3950895F999FECFB2BDA1BD00BDFA9A48
:20146000F99A1D910895F999FECFB2BDA1BDF89A00B51D9108950027009321010091210141
:2014800070D200912101B02F0E9423110E948B110B2FA0E0002319F00F3F09F0AFEF009108
:2014A0002101C02FD0E0E2EDF1E0EC0FFD1F0A2F0083009121010395009321010430F0F2E2
:2014C000E9E5F8E40E94B11AC2EDD1E044E00E949A1C0E94F61A0895E1E3FAE40E94B11ABB
:2014E000E7E6FAE40E94731A003208F408950E94F61A013709F408950D3421F40E94510D6D
:201500000C946C0A033509F02EC0B5DFE4EBF9E40E94731A00320E94F61A08F4DDCF09355D
:2015200009F0DACFE9ECF9E40E94571A78F30E94E31A0E94F61A50F3083020F0B0E068D233
:2015400080F0CACF000F000F006800932101B0E03DD208F40895B0912101032F0B2B5DD215
:20156000BBCFAEEEA1C0033449F5E8E8FBE3C7E2DAE059E00E94321A0E94F61AE1E2FBE4E3
:201580000E94B11A0E94F61AC7E2DAE059E00E94B01C4BD20E948311C7E2DAE059E0F10141
:2015A000B42D0E94F01028F4EAECFFE30E94B11A93CFE1E2FBE459E08FD18ECF0934D1F46B
:2015C00000270093210100912101B02F0E9423110E948B11C02F0B2FD02FE7E8F9E40E9413
:2015E0009F1800912101039500932101043058F373CF60C0053409F062C0E9EBFAE40E94AB
:201600001A1A08F408950F2F002309F053C00E2F00932101E7EEFAE40E941A1A08F408957C
:20162000309639F3C3E2D1E0E993F993E5EFFFE30E94731A0032E0F20E94F61A0935C1F6CA
:2016400000912101E02FF0E0C3E2D1E00991A02F0881B02FEA0FFB1FA1E0B1E0EA17FB07A9
:2016600008F028C000912101B02FE0E0F0E01F014B2E5524BF930091230184D1BF91C8D111
:2016800098F0F101B42D0E94AF11009123010A9500932301002371F00E94C60C00912101D7
:2016A000039500932101DECF0E94E51CEAECFFE30E94B11AE7ECFFE30E94B11A0DCF043531
:2016C00079F0A4C00E94F61AEAEAFAE40E94B11AE5EFFFE30E94731A003260F30E94F61A50
:2016E00097D108F4E1CF00270093C40122243324210100270093D601E5E1FCE3BF01E3E2DD
:20170000F1E02192319241925192E3E2F1E02190319041905190C0E0D0E0FB010591BF0170
:201720000093C301002309F44DC00091C301EBEFF8E40E94AB180E948311F101B42D0E940A
:201740009D11F101B42D0F2F0E2B003009F41ED12091C00027FF06C00091C6000F3309F086
:2017600050C014D1DF93CF93F101B42DA091C301AF930E9475120E94141A0E94141A0E942B
:20178000141AF101B42D0E945B12B02F0F910B1799F0EF010E94A60CEAECFFE30E94B11AA6
:2017A0000091C40103950093C401063028F0EAECFFE30E94B11A90CEB0D0CF91DF9121970A
:2017C00039F6A3CFE3E2F1E02190319041905190F101B42DB3951F014B2E55240B2F0F3305
:2017E00008F48ACF0091D601C02FD0E003950093D601E2EDF1E0EC0FFD1F0081002309F037
:201800007BCFE1E0FBE40E94B11A66CE043409F063CE0E94F61A09D1C0F3E4E4F9E40E9455
:201820001A1AB8F3C4E0D1E0E993F993A1E8B0E0EA17FB0748F0E5EFFFE30E94731A003201
:2018400040F3093509F0E5CFA1E0B0E4EA17FB0700F7CF010E94B81AEBE5F9E40E94B11AFD
:20186000EAEAFAE40E94B11AE0E0F2E03F0188249924F101B42D0B2F003808F027C0209139
:20188000C00027FF03C00091C60026CEC7E2DAE050E20E94D711C7E2DAE0E0E0F2E00991A6
:2018A0000F3F19F43197D9F702C050E219D0260C371C481C591CFC010E2F002309F466D06A
:2018C000FC011291CF01309609F0D3CFE5E5F0E40E94B11A0C946C0A0E94B11A0E94F61AF7
:2018E000052F002309F408955F93C7E2DAE0F101B42D0E940A114AD05F91C7E2DAE050E273
:201900000E94B01C08950E2F0C0FE02F0F2F0D1FF02F00270B1FB02F0895F101B42D01E04B
:201920000E0FE02F00270F1FF02F00270B1FB02F1F014B2E5524089501E00E0FE02F0027F4
:201940000F1FF02F00270B1FB02F08950F93BF931DD0BF910F910E94440508950E94291138
:2019600006C00E94231128E809B10E94E51C0E9469110E9442110F93EFEEF8E40E949318A5
:201980000F910895E5E0F9E40E94BF18E0E8F1E0EF012192319241925192E2E1F9E40E94F8
:2019A000DB181A91FE010DE3019300E3019308E70193C0E8D1E01991199153E008811A91F8
:2019C0000E94C41A5A95D1F70C94501ABF930E9465110F3F19F4BF91089408950E94831142
:2019E000BF910E946511302F03E50E949A1A032FC2DF032F0270002349F407E50E949A1AC9
:201A0000EAECFFE30E94B11A0894089588940895DDDF08F40895032F03740E946E1105E4A7
:201A20000E949A1AA4DF88940895E7E3FBE40E94B11AE7EDF1E00FEF0E94781A08F408958E
:201A4000E7EDF1E00081003208F408950E94F61A0837C1F411910E94D61A38F3302F0E948F
:201A6000D61A18F3D02F0E94D61AF8F2C02F032FB02FFE011F014B2E55240E94C60CF10179
:201A8000B42D0895EF010E943B1B0E2F302F09910A3319F00B3309F0C8CF0E943B1BEF01AE
:201AA000E6CFE9DC0E94F61AE8EEF9E40E94B11AE0E0F0E0BF01E0E0F0E0B0E048E063D00F
:201AC00058E07FD00023D9F038D030F408E521E0620F2227721F01C00EE20E949A1AB395DF
:201AE0002091C00027FF05C00091C6000E94F61A06C05A9531F70E94F61A4A9501F7EB012F
:201B0000E0E2F9E40E94C618FB011F0144245524E4E6F0E03F01882499240E94201CE0E4C4
:201B2000F0E03F01882499240E94EB1BF101EF01EDE2F9E40E94C61808955F934F93FF9373
:201B4000EF93BF9350E85F93C7E2DAE050E20E94D7115F91CF01C7E2DAE0E0E0F2E0099119
:201B60000F3F51F43197D9F7FC01C0E0D2E0CBDE5A9549F7889401C00894BF91EF91FF913A
:201B80004F915F9108955F934F93BF93FF93EF93E7EDF1E00B2F0E94591B0FE20193CF91C4
:201BA000DF91DF93CF930E94611B0AE30193002701930E94521AEF91FF91BF914F915F9149
:201BC0000895DF93CF93C0E0D0E0B03408F409C0B03810F4199105C0B03C10F4199101C0E5
:201BE0001991FF93EF93E2EDF1E0EC0FFD1F0081EF91FF91CF91DF910895EEE7FBE40E941C
:201C0000B11A13DF08F408951F014B2E5524EFEBF1E02192319241925192EEE8FBE40E942E
:201C2000B11A03DF08F408951F014B2E552431014201EFEBF1E0219031904190519001D037
:201C40000895EFEBF1E02192319241925192A82DE3010C2F08940F7009F008957FD0E8E74D
:201C6000F1E06192719281929192F101B42DA82DE3010BEB0E941419CFEFDFEFEEE7F1E0E4
:201C8000C193D193EFEBF1E02190319041905190F101B42DC7E2DCE00CEC0E94141951E08D
:201CA0000E940A11EEE7F1E0C191D191A0E1B0E0E7E2FCE00E949512CEE7D1E0FD01E9932E
:201CC000F993CF01E8E7F1E02190319041905190A1E0B0E022272A1A3B0A420A520AE8E78A
:201CE000F1E02192319241925192D101E2010D2F000F08F10D2F0C2B0B2B0A2B0023D9F024
:201D0000EFEBF1E02190319041905190A0E1B0E022272A0E3B1E421E521EEFEBF1E02192DB
:201D2000319241925192A82DE301F101B42D0DED0E941419A7CFA82DE301F101B42D0EEED7
:201D40000E941419EEE7F1E0C191D191BE01E6E3F4E40E949F18FB018894089504E09694DE
:201D60008794779467940A950023C9F70895E0ECF8E40E941A1A08F40895C4E0D1E0E9933B
:201D8000F993E5EDF8E40E941A1A08F408950E2F013838F4C4E0D1E0E991F991502F889404
:201DA000089550E0089408950E94E51C02D00C940000E3E0F0E40E94B11A0895E9E6F8E4BC
:201DC0000E94731A003208F40895033529F1043509F479C0033409F463C0043409F4CAC032
:201DE000063419F40E943C10E9CF0A3529F40E94F61A0E945D06E2CFC8EED3E00AEA0E9433
:201E00006A06C8EED3E00E9467062091C00027FFF3CF0091C6000895AADF80F2C4E0D1E03D
:201E2000E993F993CFEFDFEFEEE7F1E0C193D193E4E0F1E0C191D191E7E2FCE0A0E0B1E0B1
:201E40000CEC0E9414190E947706EEE7F1E0C191D191A0E0B1E0E7E2FCE00E949512CEE78E
:201E6000D1E0FD01E993F993CF01C4E0D1E0BE01E991F991A0E0B1E0EA0FFB1FEB01E99337
:201E8000F993BF010DED0E9414195A9589F6EEE7F1E0C191D191E6E3F4E40E949F18BCCFE0
:201EA0000E94F61A54E6A0E0B2E0E7E2FAE0CFEFDDE70E94A8065A95B1F701E50E949A1ADC
:201EC0000E94F61A7BCF0E94F61A0027202E05E50F93C0E0D0E00E946A06C0E0D0E00E94FF
:201EE0006706B02F0F910F930B1711F00FEF202E0F910E943C05022D002329F0EAECFFE33F
:201F00000E94B11A5BCF0E94F61A07E50E949A1A0027202EEFEFFFE7C0E0D0E00C2F0095DD
:201F20000E946A063197D1F70E94F61A02E50E949A1AEFEFFFE7C0E0D0E00C2F00950F938A
:201F40000E946706BF910B1709F058D03197A9F7022D48D0A0E0B2E0E7EAF3E0C0E0D0E02A
:201F60000E947706C7EAD3E050E20E94B01C0E94F61A0895FCDEA0F10E94E51CC4E0D1E08C
:201F8000E993F993052F0093210100912101002339F1E4E0F1E0C191D191BE01E6EBF8E49B
:201FA0000E94C618EB01A0E0B1E0E7EAF3E00E947706C7EAD3E050E10E94B01C009121012B
:201FC0000A9500932101C4E0D1E0E991F991A0E0B1E0EA0FFB1FC4E0D1E0E993F993D5CF2F
:201FE0000C94DE0E002319F4E7ECFFE302C0EAECFFE30E94F61A0E94B11A0895FF93EF9326
:20200000DF93CF930F93BF93022D0395202E0E94F61AEAECFFE30E94B11ABF910F911A9171
:202020000E943C05CF91DF91EF91FF910895289A303019F429982A980895313019F42998C2
:202040002A9A0895323019F4299A2A98089508940895EBDC08F40895FF93EF93BF93E5EDBD
:20206000F8E40E941A1A08F408950E2F502FBF91EF91FF91889408950E94F61AEADF08F4C9
:2020800008951F014B2E5524052FB02FA0E0C0E0D0E01CD00895BF93AF93DF93CF93FF932B
:2020A000EF93F101B42D49DD50F40FEFF101B42D0E940D19EAEAFBE40E94B11A0894EF918C
:2020C000FF91CF91DF91AF91BF91089501E10E941419E1DF08F40895BE01EFEBF1E021924C
:2020E000319241925192FD01CF01E1E0F0E8AE17BF0730F00EEE0E94E51CE0E0F0E8CF014E
:20210000E0E0F4E03F0188249924DF01FC01EA17FB0718F43F0188249924F301DF01FB011D
:20212000EA0FFB1FA0E0B0E8EA17FB0748F0FB01DF01E0E0F0E8EA1BFB0B3F018824992411
:20214000EB01F301DF01E7E2F8E002E20E9414190E947706F301DF013BD00E2F502FA02FE2
:202160002ED0C7E2D8E003E30E9414190E9483110E94F010260C371C481C591CEFEBF1E06A
:202180002192319241925192F301DF01FB01EA0FFB1FBF01FC01EA1BFB0BCF0104E40E940E
:2021A000141958F0309649F0A0E0B4E0EA17FB0718F43F0188249924B0CF88940895EFEBCD
:2021C000F1E02190319041905190F101B42D089504E08894F795E7950A950023D1F708956B
:2021E000052F013808F00895013008F408950B2F0E3F08F00895FF93EF93052FE02FA0E11F
:20220000EA9FF001FF93EF934F915F91EF91FF91F4D00895052F013808F00895013008F4C0
:20222000089540E10E945B12099301E00E0FE02F00270F1FF02F00270B1FB02F4A9591F71D
:202240005A9579F708950295000F000FB02F01D00895BEBB2C982B98BEB329B12867B034C2
:2022600018F4277F2BB90895B03818F42F7E2BB90895B03C18F42F7D2BB908952F7B2BB956
:202280000895BEBB29B128672BB908952B9828E0A02F0A2F0078002311F42C9801C02C9A80
:2022A0002B9AAA0F2B982A95A1F72C98089528E000272B98000FA0E04F9B01C0A1E02B9AB3
:2022C0000A2B2B982A95B1F70895C3DF02D0D9DF089505E0DBDFEBDF0895BEBB0F9313D035
:2022E000B9DF01E0D3DF0F91D1DFCCDF0E94141AB1DF04E0CBDFC6DF089506E0C7DF08955F
:2023000004E0C4DF0895A6DF06E0C0DFBBDF0895022FBCDF08959DDF04D0BF93B3DFBF916B
:2023200008950BEAB3DF00E0B1DF00E0AFDF0027ADDFBDDFB02FBBDF0895E0E0F0E089DF3E
:202340000B2FA02EE0DF86DF08EDA0DF0A2D9EDF0F2F9CDF0E2F9ADF95DF1DD00895E0E0FC
:20236000F0E0EBCFEFE1FAE40E94B11A0894089570DF0B2FA02EE0E0F0E00B2F0F73B02FFD
:2023800008ED84DF0A2D82DF0F2F80DF0E2F7EDF79DF01D0089504E10A95F1F75BDF05E0C5
:2023A00075DF85DF6FDF01700023A9F70895A3E001C0ABE04EDF0A2FB02E0B2FA02E052FF7
:2023C0000138C0F40030B1F00B2D60DF0A2D5EDF0F2F5CDF0E2F5ADF40E10B2D0B3011F4CC
:2023E0000FEF54DF64DF09934A95B9F75A95A1F749DF089547DF08940895052F002321F427
:20240000042F002309F40895042E152EAB2EBEBB0E2F002391F00E2F0195502F0991A02F69
:2024200064D057D00E94141A0E94141A21E08894020A2227120A5A9589F7012D002389F4D6
:20244000002D002369F1502F0991A02F4ED041D0A2DF21E08894020A2227120A5A95A1F725
:202460001FC0F8DE4ADF0EDF0E94141AF3DE02E00DDF0A2D0BDF0F2F09DF0E2F07DF012D8A
:202480000023D9F250E0099101DF23D021E08894020A2227120A5A95B1F77DDF04D0CDCFC0
:2024A00002D088940895EEDE0E94141A21DFD2DE27DFE8DE0895AB2ECCDE03E0E7DE0A2D7A
:2024C000E5DE0F2FE3DE0E2FE1DEF1DEDBDEBA2D08950F9301E00E0FE02F00270F1FF02F0F
:2024E00000270B1FB02F0F910895AB2E0A2FB02EB0DE03DFC7DE0E94141AABDE02E0C6DE8B
:202500000A2DC4DE0F2FC2DE0E2FC0DE0B2DBEDECADFBA2D089502E00E0FE02F00270F1FC5
:20252000F02F00270B1FB02F08950B2F0A2B002311F408940895CF01FD01BF01DF93CF937D
:20254000AF91BF91FC010191CF010A27A02FE8E1FCE3C02FD0E0CC0FDD1FEC0FFD1F0591C1
:20256000C02F0591D02FFE010B2FA02FBB27AE27BF27FB011291BF01309609F0E3CF889446
:202580000895BF93AF93DF93CF935F934F93CF0101E00BBD419A0BB549D04198FC01ADE7CB
:2025A000B0E054E0C0E6D1E009910A0F019309910B1F01935A95C1F7CF010BB5B1E00B2767
:2025C0000BBD002339F3FC014F915F91CF91DF91AF91BF910895E8E6F1E02C982B9A0000F2
:2025E00040982B98B1E30170002309F0B9E3A8E02B98BB0F10F42C9A02C02C9800C02B9A99
:2026000009B10193AA95A1F7A8E000272B98000F10F42C9A02C02C9800C02B9A09B10193F1
:20262000AA95A1F7409A2C982B9A0895BF93AF93DF93CF93FF93EF935F934F93CCDF08E0E0
:202640000695202FC0E6D1E0BE0144E0022F000F202FB02F50E1C8E6D1E0E0E0F0E009912E
:202660000B23002311F0089401C08894EE1FFF1F5A95A9F7EB01E993F993BE014A9531F71B
:202680004F915F91EF91FF91CF91DF91AF91BF91089508E090D00F930091280100230F91F6
:2026A00009F408950093C301B093C401E8E5F2E40E9493180091C401E7E7F2E40E949318EA
:2026C000B091C4010091C3010895449A2B982C98A3E2B0E00E94931BDCDF302F0F93BF932A
:2026E000E0E4F2E40E949318BF910F91A6E00A230230032F99F50870002321F0E2E5F2E415
:202700000E94B11A00912801002307E509F012D70AE002E048D0302FA8E50A230023032F4F
:20272000E9F0A0912801AA2309F4BCDFAAE0B0E00E94931B04E03FD0302FA8E70A23002366
:20274000032F61F0A0912801AA2309F4ABDFB0912801BB2309F020D0889408950E94E51CBB
:202760000E945213EAECFFE30E94B11A08940895BE0154E0E7EDF1E0CF01FB01C191D191DC
:20278000BF01FC0100E201930E94871BCF015A95A1F70E94501A0895EFE9F3E060D0CFE92F
:2027A000D3E0E6DF08950F71000F000F026004C00F71000F000F0D7F81D0B0912801BB237D
:2027C000D1F01FB70F931F93BF93AF93DF93CF93FF93EF935F934F93E1E8F1E40E949318D3
:2027E0004F915F91EF91FF91CF91DF91AF91BF911F910F911FBF2C982B9800004498A8E080
:20280000BB27000F10F02C9801C02C9A2B9A0000000000002B98BB0F4A9B01C0B160AA9534
:2028200081F70B2FA8E0BB272B9A0000000000002B98000000000000BB0F4A9B01C0B16073
:20284000AA9591F7449A2C9808950F93B1DF0B2FF02F0F910A95ACDF0B2FE02F0895479A56
:20286000BF0153E035E0032FF0DFBB27F7FDBFEFBF93FF93EF93032FE8DFBB27F7FDBFEFE8
:20288000CF91DF91AF91EC0FFD1FBA1FB595F795E795B595F795E795EB01E993F993BE01E1
:2028A000032F22E0020F302F5A95E9F603E1CDDFEB01E993F993889447980895BF93AF93F6
:2028C0000F93BB27A7E0000F08F4B395AA95D9F70B2F00950170B02F0F910E7F0B27AF91CD
:2028E000BF910895B8E003C0BDE001C0B9E000B1007F0B2B02B901E00E94EB12BFEFBF93F8
:20290000AF93AF91BF91BA95D1F701E00CD0E0E6F1E0A6E0B0E0EA0FFB1FC191D191FE019E
:2029200008950C9416134098FCDF409A0895FBDF54E0C0E6D1E0BE01EB01E991F991BE0134
:202940000AD2EDE1F3E40E94BF195A95A9F70895CBDF0E94AB16FE010895FADFFF93EF93BA
:20296000C5DF1F0144245524E4ECF9E03F018824992466D7EF91FF913F01882499242BD768
:20298000F1010895FF93EF93EF01E7ECF3E40E94BF19EF91FF910E94AB16E2EDF3E40E94C5
:2029A000BF190895E1E8F2E40E94731A003208F408950E94F61A0134A9F400E301700E948F
:2029C0001613C0E6D1E044E00E94761D2091C00027FFFCCF0091C600013581F7E3CF0E9463
:2029E0000120E0CF023409F06FC0002700932D0100912D010E94EB1200912D0198DF5F933B
:202A00004F93C0E6D1E044E00E94761D4F915F9100912D01B1E00B2700932D01002341F7B6
:202A2000EBEAF3E40E94B11A002700932D01E7E9F2E0C7E3D1E0E993F993B0912D0100B170
:202A4000007F0B2B086002B9E3E1F2E40E94931801E00E94EB1201E06ADF59DFFF93EF93C1
:202A6000E7E3F1E0C191D191EF91FF91E993F993E7E3F1E0C193D19300912D0103950093B2
:202A80002D010830D0F2C7E9D2E048E00E94761D2BDFEF01DF93CF93E9EDF3E40E94BF195A
:202AA000EF91FF910E94AB16E6EEF3E40E94BF1919DF0E94AB16E0ECF3E40E94BF1916DF11
:202AC00061DF4BDF5FDF6ECF033409F041C0E3EEF2E40E94581A08F408950191302F003269
:202AE00008F408950081013390F3093380F70153E0E7FBE3A02FBB27EA0FFB1F0491B02F21
:202B000000B1007F0B2B02B9BB27B0933D01B093B101032F0235C1F00335C9F60E940A0877
:202B2000789442985ED0429A5CD0429855D000913D01002309F03AD02091C00027FFF2CF2D
:202B40000091C600F894C3CF0FEF00933D01E6CF043409F027CF0E94FC15E1E2F3E4C7E958
:202B6000D2E00E949F18C7E9D2E058E00E947E1DE7E9F2E0A0E8B0E0EA0FFB1FEF01DF9344
:202B8000CF93E7E4F3E40E949F18CF91DF9158E00E947E1D2091C00027FF03C00091C600E2
:202BA00001CFA8EEB3E00E94931BD5CFE7E2FCE0BF0158E0E7EDF1E0CF01EB01E991F99126
:202BC000BE01C9D0FC0100E201937BD5CF015A95A1F70E94501A0895E7E2FCE00E94C112C0
:202BE000089500270093AA010091AA010023E1F300270093AA010895C7E9D2E0EEE3F1E09A
:202C0000C193D19341980E940A0878944298002700933901A0913901B0E0E0E7FBE3EA0FFC
:202C2000FB1F0491B02F00B1007F0B2B02B9A4E00E94210A009336010E94F115429A0E94A4
:202C4000F1154298009136010A9500933601002399F700270E94EB12E0E4F1E00E94C112E0
:202C600058E0C0E4D1E0BE01E991F991EE1FFF1FEE1FFF1FEE1FFF1FEB01E993F9935A95A0
:202C800091F7CEE3D1E0E991F991C0E4D1E050E10E945B1CCEE3D1E0E993F9930091390172
:202CA000039500933901083008F4B4CFF894E7E9F2E0A0E8B0E0EA0FFB1FBF010027009325
:202CC0003B01002700933A01A0913B01E8E7FBE3B0E0EA0FFB1F0591A02F0A2F000FA02F8A
:202CE000B0913A01E7E9F2E00B2F0295007FE00F00270F1FF02FEA0F00270F1FF02FC19144
:202D0000D191FE01EB01E993F993BE0100913A01039500933A010830B8F200913B01039526
:202D200000933B01083068F20895AAE00E94120ACE2FDF2FEDE1F3E40E94BF19EDE1F3E47E
:202D400079D308F40895C9E2D1E0E993F993AAE00E940D0A08953F0188249924C9E2D1E045
:202D6000E991F9911F01442455246AD5CBE2D1E0E991F9913F01882499242DD5E101089583
:202D8000EEE5F4E4D8D6EEECF7E4EBD30FEFBCD308F40895003208F408950E94F61A01348F
:202DA00089F400B1E3E1F2E40E949318E5EFF7E40E94E90940F30F70B02F00B1007F0B2BC4
:202DC00002B9EFCF023409F00EC0EAEEF7E403B10E949318E5EFF7E40E94E909A0F20E9452
:202DE000F61A05B9D0CF033441F4E2E1F8E40E94E90908F4089508B9C6CF043409F0C3CF15
:202E00000E94F61AEAEFF7E40E94B11A2091C00027FF03C00091C600089509B1E7EDF1E032
:202E200076D53ED3F3CF08950E94E51CEAECFFE30E94B11A4798002700930601E7E2F1E4D1
:202E400052D3003208F4089500932101E6E8F1E4F1D208F40895309609F004C0C4E0D1E0F6
:202E6000E991F991A1E0B2E0EA17FB0778F7C4E0D1E0E993F993A4E10E94210A0D3409F0E0
:202E800029C000912101093451F475D0E7E2F4E040E0042F439501931197D9F7CBCF033529
:202EA00019F40E94D90EC6CF023519F40E94D90EC1CF003519F40E94D90EBCCF043449F4BF
:202EC000C4E0D1E0E991F991DF01C7E2D4E058D2B1CF0895C4E0D1E0E991F991DF0100914B
:202EE0002101033529F45BD0439808F49DCFA2CF023529F446D0439808F496CFE1CF0035F1
:202F000009F0BFCF0FEF00930601E1E0F0E0C4E0D1E0E993F99335D010F40BEB85CF439876
:202F2000E7E2F4E0008122D0E02FF0E0C4E0D1E0E993F9930093080120E3020F0E949A1A3F
:202F400000910801502FC7E2D4E0052F09935A95E1F725D010F40AEA67CF439800910801CC
:202F6000093019F0002309F0CDCF64CF053009F0089500E90895C4E0D1E0E991F991DF019A
:202F800008954798439A34E618D002E50E949A1A449AF1DFE7E2F4E05ED0449808954798C8
:202FA000439A34E60AD007E50E949A1A449AE3DFE7E2F4E039D04498089500910601002384
:202FC00021F4EFE9F1E40E94B11A34E6A4E10E94210A0D3419F40E94D90E089505D0032FDB
:202FE0000E94F917D8F30895479A0E94141A47980895BF93AF93A0E0B0E02091C00027FF4F
:2030000003C00091C6000CC0119719F40A9509F407C00799F2CFAF91BF91002788940895E1
:20302000AF91BF9108940895109699F00B2F002319F40A2F502F30C050E02ED050F0BA95C9
:203040000B2F0023C9F70A2F002381F7002788940895089408951096E1F3FF93EF93E0E018
:20306000F8E0EA17FB07EF91FF9108F408950B2F002319F40A2F502F2EC050E02CD050F050
:20308000BA950B2F0023C9F70A2F002381F700278894089508940895032FABDFC8F048E03B
:2030A0000191001F10F02E9802C02E9A00C02091C00027FF01C00CC01F9BF9CF1F99FECF24
:2030C0004A9579F75A9559F72E980027889408952E9808940895032F8CDFE8F048E00027F9
:2030E0002091C00027FF01C016C01F9BF9CF88941D9B01C00894001F2091C00027FF01C078
:203100000AC01F99F9CF4A9559F701935A9531F700278894089508940895E7EDF1E00E942B
:203120006E1C0C94501A06D0E7EDF1E00E94871C0C94501A0F930E94B11A0F910895DF9373
:20314000CF930E94B11ACF91DF91E7EDF1E00E94BF1A0C94501AEEDFE7EDF1E00E94C41AB4
:203160000C94501AE7DFE7EDF1E001930C94501AE1DFE7EDF1E00E94281B0C94501ADADF2F
:20318000E7EDF1E00E94591B0C94501ADF93CF93C7EDD1E076D1EC2FFD2FCF91DF9105C00E
:2031A000E991F991EF01E7EDF1E08BD20E94501A089501D077C15F924F923F922F929F92D2
:2031C0008F927F926F92FF93EF93FE012190319041905190EF91FF91C7EDD1E052D1CBD250
:2031E0006F907F908F909F902F903F904F905F900895FF93EF93EC2FFD2F0B2F0E94C41A65
:20320000AF91BF910B2F0E94C41A0A2F0E94C41ACE2FDF2F0DE00883089500930B010FB726
:20322000102F00930C010EC000930B010FB7102F00930C0100910201003021F41FBF009155
:203240000B010895B0931601A0931501032F00930E01DF93CF93C9E1D1E0E993F993CF91B7
:20326000DF91E7E1F1E0C193D193C1E1D1E0FB01E993F993C3E1D1E0FC01E993F993C7ED28
:20328000D1E0EAEEFCE4FDD03DE3E7EDF1E06BD000910C01077020E3020F019364D0009176
:2032A0000B010E94C41A5FD0C1E1D1E0199108810E94C41A1A9108810E94C41A54D0C3E1D1
:2032C000D1E0199108810E94C41A1A9108810E94C41A49D0009116010E94C41A44D00091F0
:2032E00015010E94C41A3FD0C7E1D1E0199108810E94C41A1A9108810E94C41A34D0C9E1BB
:20330000D1E0199108810E94C41A1A9108810E94C41A0DE00083E7EDF1E00E94A81AC3E178
:20332000D1E0E991F991CF01C1E1D1E0E991F991BF01E7E1F1E0C191D191DF93CF93C9E126
:20334000D1E0E991F991CF91DF9100910E01302F00910C01102F1FBFA0911501B09116018F
:2033600000910B0108950081003208F40895032F20810217119109F0F6CF8894089506CFED
:203380000B2F0A2B003009F408950B2F0370B02FFD01CF0151E00E94B01CFC01A0E1B0E0ED
:2033A000EA1BFB0BCF01B0F70895042F002309F408950091AA010023E1F300270093AA0166
:2033C00005D04A95E9F7459846980895E991F991A991B1E00ED051E10E2F00950170B02F00
:2033E00008D0A795F795E7955A95B1F7B1E001D00895BB2311F0459A01C045980091AA0183
:203400000023E1F300270093AA014598BB2311F0469A01C046980091AA010023E1F30027BB
:203420000093AA0146980895BF93BAE0BA95F1F7BF9108950E94571A08F40895C7EDD1E0B2
:203440000881083439F4FE0111910E94DD0908F4089504C039D208F408950DD10E94F61AC0
:2034600088940895052F013208F00895003009F4089540E1059109934A95E1F75A95C9F714
:2034800008950591003208F408950993FACFEC1BFD0B18F43197E095F095AE17BF070895C4
:2034A0000DE00083E7EDF1E00E94A81A089560D00E94B11AE7EDF1E00FEF1AD0E7EDF1E027
:2034C0000895E7EDF1E00FEF03D0E7EDF1E008950F930F910F9318D020F001930032C8F736
:2034E00088940F9108950E94B11A2BD023D008950F930F910F9308D028F01CD001930032F5
:20350000C0F788940F910895BF93AF93A0E0B0E0119751F02091C00027FFFACF0091C60057
:203520008894AF91BF9108950A9581F70894AF91BF9108952091C00025FFFCCF0093C600A9
:2035400008952091C00027FFFCCF0091C60008950191003210F0EEDFFBCF0D3009F008954A
:2035600007C00591003220F0E5DF0A3331F0F9CF0DE0E0DF0AE0DEDF089500E2DBCF0D2F0A
:2035800003D00C2F01D008950F93069506950695069503D00F9101D008950F700A3010F007
:2035A00027E0020F20E3020F019308950CD008F40895000F000F000F000FA02F04D008F45E
:2035C00008950A2B08950191003308F408950A3340F0013408F40895073430F401542AE025
:2035E000020F0F7088940895089408951FB70F931F930AE09FDF0DE09DDF1F910F911FBF20
:203600000895BF93BB27DF93CF93CF91DF91BA95D1F7BF910895BF93AF93B0E00191003348
:2036200098F00053A02F0081003358F00A3348F40A2F000F000F0A0F000FB02F0191005328
:20364000A02F0A2F0B0FB02F0B2FAF91BF910895BF93B0E00A5010F0B395FCCF0F930B2FD7
:2036600020E3020F01930F912AE0020F20E3020F0193BF91089555E0E0E0F0E008810033D1
:2036800008F408950A3308F008950053AE2FBF2FEE0FFF1FEE0FFF1FEA0FFB1FEE0FFF1F3D
:2036A0000E0FE02F00270F1FF02F19915A9531F70895C02FD0E011C0C02FD0E0043698F03B
:2036C0000CC0A0E1B7E21AD020E3020F0193A8EEB3E014D020E3020F0193A4E6B0E00ED0C5
:2036E00020E3020F0193AAE0B0E008D020E3020F01930C2F20E3020F019308950027CA1BFC
:20370000DB0B10F00395FBCFCA0FDB1F089500E201930D2F000FA8F612910DE201932197B4
:20372000C095D095CECF0F93DF93CF93BF93AF93C2E1D0E008EC0A95F1F72197D9F711972A
:20374000B9F7AF91BF91CF91DF910F910895AF93A0E00A3018F00A50A05FFBCF0A0FAF919C
:203760000895AF93A0E0003118F00051A65FFBCF0A0FAF910895052D001F60F4209430947E
:203780004094509421E0220E2227321E421E521E0DE209935AE0E0E4FBE365907590859061
:2037A0009590261437044804590428F45A95A9F700E309930DC034976590759085909590D0
:2037C0000AD0022D00630993130124015A95A1F70DE009930895AA24BB24CC24DD24B0E2CB
:2037E0008894661C771C881C991C092D000F10F0BA95B1F701E20B1BB02FBB23089409F4A4
:203800000895261837084808590830F4260C371C481C591C889401C00894AA1CBB1CCC1C5D
:20382000DD1CBB2339F0BA9588949794879477946794E7CF310142011501260188940895B0
:203840000027DD24CC24BB24AA24629CA00CB11CC01ED01E639CB00CC11CD01E649CC00C0E
:20386000D11C659CD00C729CB00CC11CD01E739CC00CD11C749CD00C829CC00CD11C839C3F
:20388000D00C929CD00C15012601089526183708480859080895260C371C481C591C0895A2
:2038A000002309F408958894221C331C441C551C0A95C9F70895052F003009F4089509913D
:2038C00001935A95E1F70895003308F408950A3318F400538894089508940895BF93AF9302
:2038E000B02F0B2F007CA6E00695AA95E9F7006301930B2F0873069506950695006301937F
:203900000B2F077000630193AF91BF91089558E0B0E8A02F0A2F0B2320E3002309F021E3A9
:20392000022F01930B2F0695B02F5A9599F70DE000830895E7E5F2E0099126DE00E20193D0
:203940004A95D1F7DF93CF930DE00083E7E5F2E00E94A81ACF91DF910895C0E0D1E056E086
:2039600040E1E7E5F2E009910FDE00E201934A95D1F7DF93CF930DE00083E7E5F2E00E9460
:20398000A81ACF91DF915A9559F708955F934F93FF93EF93DF93CF93BF93AF931FB70F93F1
:2039A0001F93EFE8FCE4DDDDD0E0C0E051E00E945D1D1F910F911FBFAF91BF91CF91DF91B9
:2039C000EF91FF914F915F9108955F934F93FF93EF93DF93CF93BF93AF931FB70F931F93F0
:2039E00000930B01012F00930C01B09316010A2F00931501022F00930D01032F00930E0176
:203A0000DF93CF93C9E1D1E0E993F993CF91DF91E7E1F1E0C193D193052F00931001042F43
:203A200000930F01FC01C3E1D1E0E993F993EB01E1E1F1E0C193D193EDEBFCE492DDCBE080
:203A4000D1E051E00E945D1DE7E5F2E00EE401930AE5019303E401930DE3019300910C0124
:203A60000770006301930DE00193E7E5F2E070DDE1E1F1E0C191D191BE01C3E1D1E0E99197
:203A8000F991CF0100910D01202F00910E01302F1F910F911FBFAF91BF91CF91DF91EF91D1
:203AA000FF914F915F9108950C2FE7E5F2E016DF0AE3019300E201930895F6DF48E0099110
:203AC000B02F099161DD0B2F5FDD00E201934A95B1F7DF93CF930DE00083E7E5F2E00E9438
:203AE000A81ACF91DF915A9541F70895042F0A950695069506950395502F01C048E0E7E501
:203B0000F2E0199108811A913FDD09913DDD199100E201934A95A9F7DF93CF930DE0008342
:203B2000E7E5F2E00E94A81ACF91DF915A9531F70895EEE5FEE315DD04910A32E1F7089513
:203B400000CA9A3B00E1F5058096980040420F00A086010010270000E803000064000000FF
:203B60000A0000000100000000000100000100000706040501000302000605040301020700
:203B800005040706020301002F40002D4C00733200215100F245003039008E4200743A00EC
:203BA000E03D006955000935005F3A005F45004B4C00123200B34900AE4400603000B14164
:203BC000007D4800F746008E4A006645002E4000EA3B008F2F00E74E005B3F00773500276D
:203BE0005500C251009239009721009B4B007C4800654C002E3F00684E003D4000D93600D0
:203C0000F93800374C005608000A0000AAFF01200E004FE40155AA000000891112239B32E1
:203C20002446AD573665BF74488CC19D5AAFD3BE6CCAE5DB7EE9F7F88110080193331A2294
:203C4000A5562C47B7753E64C99C408DDBBF52AEEDDA64CBFFF976E802218B301002991374
:203C60002667AF763444BD554AADC3BC588ED19F6EEBE7FA7CC8F5D983310A209112180354
:203C8000A7772E66B5543C45CBBD42ACD99E508FEFFB66EAFDD874C904428D5316619F7024
:203CA0002004A9153227BB364CCEC5DF5EEDD7FC6888E1997AABF3BA85520C4397711E6014
:203CC000A1142805B3373A26CDDE44CFDFFD56ECE9986089FBBB72AA06638F7214409D51F4
:203CE0002225AB343006B9174EEFC7FE5CCCD5DD6AA9E3B8788AF19B87730E6295501C41D4
:203D0000A3352A24B1163807CFFF46EEDDDC54CDEBB962A8F99A708B088481951AA793B6B3
:203D20002CC2A5D33EE1B7F04008C919522BDB3A644EED5F766DFF7C899400859BB712A693
:203D4000ADD224C3BFF136E0C1184809D33B5A2AE55E6C4FF77D7E6C0AA583B41886919773
:203D60002EE3A7F23CC0B5D14229CB38500AD91B666FEF7E744CFD5D8BB502A49996108753
:203D8000AFF326E2BDD034C1C3394A28D11A580BE77F6E6EF55C7C4D0CC685D71EE597F423
:203DA0002880A1913AA3B3B2444ACD5B5669DF78600CE91D722FFB3E8DD604C79FF516E413
:203DC000A9902081BBB332A2C55A4C4BD7795E68E11C680DF33F7A2E0EE787F61CC495D5F3
:203DE0002AA1A3B03882B193466BCF7A5448DD59622DEB3C700EF91F8FF706E69DD414C5D3
:203E0000ABB122A0B9923083C77B4E6AD5585C49E33D6A2CF11E780FB8F043616C414443EE
:203E2000202D204144432D436E74726C6C7220322E37622020436D647320502C432C4F2CD9
:203E400020442C452C412C20302C312C322C20522C4D2C462C542C492C55203F3A0D2D2DEA
:203E60002D0D506172616D657465727320456E7472790D43204379636C6520696E203234E5
:203E8000307553204C5644542D72646E672D6379636C650D4F7065726174652D4379636C26
:203EA000652028436D64732066726F6D202763616C63707527206F6E204D4F5349290D4445
:203EC00020546F67676C652044454255472D4D4F44450D4520496E7465726E616C2045452E
:203EE00050524F4D20746573740D4120416E616C6F67204368732052646720772F204D43F3
:203F00005033323032202620343020736D706C730D302C312C3220542F437B302C312C322D
:203F20007D20746573740D5220732F772052657365740D4C204C4F41442D464C4153482015
:203F40007468727520436F6E736F6C652028532D5265636473290D4D204652414D2F553174
:203F600030362D74657374730D462053657269616C466C6173682D74657374730D54205485
:203F8000657374205350492D636F6D6D7320772F204D41535445520D4920506F7274204947
:203FA0002F4F2074657374730D552055415254313920746573740D3F2068656C700D2A0DCF
:203FC000436D643F203A0D4F4B0D2A4552524F520D2D44454255472D4D4F44452D0D2A492C
:203FE0005352204552524F523B20556E61737369676E65640D537572652028592F6E2920D3
:204000003F3A0D2A2A2A20554E494D504C454D454E544544202A2A2A0D486F6C64205331CF
:204020002074687275205245534554203D2044454255472F434D442D4D4F44452E0D2A4418
:20404000454255472D4D4F44452A0D3C4155544F2D4F503E0D446F6E652E0D413D4F702DFD
:204060004D6F646520423D53657269616C2D4E627220433D45786974436D64436F64652084
:204080004E3D4E6272536D706C50756C73657320513D51756974203F3A0D28412975746F7A
:2040A0005374617274206F72202846296163746F7279206F7220284429656275672D41756C
:2040C000746F5374617274203F3A0D53657269616C2D4E62722028303030302D464646464D
:2040E0003B20303345383D313030306429203F3A0D436D642D436F64652062797465207430
:204100006F204558495420746F204D6F6E69746F72203F3A0D4E6272204578632D50756C65
:20412000736573203F3A0D2849296E697420627566666572342020285329656E6420202060
:204140002852296563656976652020284429756D702062756666657234203F3A0D4E62728E
:204160005061676573203F3A0D2A5350492D524356204552522A0D2A5350492D4552522AE5
:204180000D436D643A0D4E6272427974657320283020666F72206C61737429203F3A0D53B9
:2041A0006C6176652077616974696E67206F6E202D43532066726F6D206D617374657220C4
:2041C0002E2E2E0D2D43532053544154453A0D2B5244590D4143544956450D494E616374DE
:2041E0006976650D4F702D4D6F64653A0D53657269616C2D4E62722028686578293A0D45C5
:2042000078697420436D64436F64652028686578293A0D506F7274413A0D416363656C4355
:204220006D64202830303D535441525455502C46463D5265616458595A54292068683A0D65
:20424000416363656C53746172745374617475733A0D2A5341542A0D782C46524D452C501A
:204260004F5253542C535420205341542C302C312C645041523A0D444F5B372E2E305D3A40
:204280000D41203D2028756E696D70292C202042203D205374657020746872752038206354
:2042A0006873206F6E20553230302D3230332C2043203D205363616E2038206368732C20CA
:2042C0002044203D205343414E2D53454E534F52532C206F74686572203D205175697420D0
:2042E0003F3A0D27522765706F7274205343414E53206F7220275327414D504C452F38300E
:2043000075532D6379636C6573207B527C537D7B312D38204C5644547D203F3A0D6D563A61
:204320000D4144432D5363616E20736D706C73202862616E6B2076617279696E67206D6FA7
:2043400073742920403A0D4C564454206F7264657220286D75782076617279696E67206DE1
:204360006F73742920403A0D275227756E20414443206163712E20696E2032343075532094
:204380006379636C65206F7220274327414C2D414443206F72202741276363656C65726F4C
:2043A0006D2D6C6F6F7020203F3A0D5374657070696E672055343033206368732E2E2E0D98
:2043C000566C696E653A0D567420636F756E74733A0D5674206D563A0D5672656620636F52
:2043E000756E74733A0D56726566206D563A0D5A65726F205452414E534D49542D424C4FB3
:20440000434B2028592F6E2F5129203F3A0D285472616E736D697474696E6720626C6F6395
:204420006B202E2E2E290D3F3F3F20554E52454320434D443A0D43686B53756D202868653C
:2044400078293A0D2A2A2A204C494E45204E4F54204E202A2031362042595445530D20503A
:204460004130204F55542053454C303020202020504230204F5554204D656D53656C43202F
:2044800020202020202020202020504330204F5554202D43532041444330202020504430E2
:2044A00020496E20205278440D20504131204F55542053454C303120202020504231204FB9
:2044C0005554204D656D53656C422020202020202020202020504331204F5554202D43536F
:2044E0002041444331202020504431204F5554205478440D20504132204F55542053454C2A
:20450000303220202020504232204F5554204D656D53656C412020202020202020202020D9
:20452000504332204F555420534D504C3020202020202050443220496E2020414443312C50
:20454000414343204D49534F0D20504133204F55542053454C303320202020504233204F18
:20456000555420434C4B20284C6F63616C2053434B29202020504333204F5554202B52441C
:20458000592020202020202050443320496E202041444330204D49534F300D205041342072
:2045A000494E20204750494F3020202020504234204F555420534F20284C6F63616C204D05
:2045C0004F534929202020504334204F5554202D4353204143432020202050443420496E9F
:2045E000202041444330204D49534F310D2050413520494E20204750494F312020202050E0
:204600004235204953506F75742C7263764D4F534920274D4F53492720504335204F55546A
:2046200020554152543139204120202050443520496E202041444330204D49534F320D2064
:2046400050413620494E20204750494F322020202050423620495350696E2C20786D744D1E
:2046600049534F20274D49534F2720504336204F555420554152543139204220202050448C
:204680003620496E202041444330204D49534F330D2050413720494E202D435343414C41AA
:2046A000444320504237204953506F75742C72637653434B20202753434B27202050433755
:2046C000204F555420547374506E742C4453322050443720496E20204D454D204D49534F07
:2046E0000D2A0D55736520273227357553206F7220273827307553203F202874686973208E
:20470000636872207374617274732C20326E642073746F707320286D6F6E69746F72205032
:20472000433229293A0D4869742063687220746F2073746172742C20616E6F74686572203B
:20474000746F2073746F703A0D52756E204F4E4520696E74657276616C2028592F6E3B20F4
:204760006D6F6E69746F72205450312F4453322040203130306D5329203F3A0D4E62722062
:2047800054433220696E7472727074733A0D4E627220544330206F76666C77733A0D5443BB
:2047A0003220537461727465642E0D4E627220696E7472727074733A0D54434E54323A0DD4
:2047C00054434E54313A0D54434E54303A0D456E74657220506F727420412C422C432C4407
:2047E00020746F20746573743A0D2D2D2D504F525420423A0D68683F3A0D416E79206B65AC
:20480000792073746F70732073616D706C696E672E0D48657820506F727420435B342E2ED8
:20482000305D20285264793D27303827293A0D416E79206368722073746F70732E0D2D2D9E
:204840002D2053616D706C65732D427566666572207A65726F65642E0D496E7374616C6CF4
:20486000656420534627733A0D275A2765726F204652414D20203130302743276F70696592
:20488000735465737420204D656D2754276573742020636865636B275327756D202027444C
:2048A00027756D70202027462772616D32466C617368203F3A0D4652414D206C6F633A0DDA
:2048C0004652414D206C6F63205B485D7B6E62727D203F3A0D4E62725061676573203F3AA9
:2048E0000D57726F74653A0D20526561643A0D537461747573427974653A0D446174614255
:204900007974653A0D4E62725365676D656E74733A0D466C617368416464726573733A0D54
:204920004E627220536563746F72733A0D50657263656E74206F6620666C6173682075730F
:2049400065643A0D4E6272203531322D6279746520426C6F636B73203F3A0D44756D706969
:204960006E6720616C6C203531322D6279746520626C6F636B73206E6F7420616C6C2030B8
:2049800078464627732E0D4D616E662F446576696365204944733A0D4E62725265636473C3
:2049A00020696E206C6F61643A0D4E627242797465733A0D536574204250206269747320B9
:2049C00028592F6E29203F3A0D456E74657220686578697420666F722042505B332E2E3077
:2049E0005D20626974733A0D382036354B20736563746F72732F6C696E652028312F32203F
:204A00004D6567290D2A2A2A20532D462044454255472050454E44494E47202A2A2A0D2A62
:204A20002A2A204E4F2033324B2045524153452E0D275327746174757320274927442D527E
:204A40006561642020275427657374416C6C202745277261736536354B7363747273202062
:204A6000274427756D700D2743276F7079205352414D2D426C6F636B4266667220746F204E
:204A8000466C617368206164647220262064756D702020274D276170205573616765202050
:204AA000277127756974203F3A0D416E79206368722071756974732E0D36354B73637472B7
:204AC0004964782028302D3235353B20302D36332069732031737420666C617368206F66F8
:204AE000203229203F3A0D4E62722036354B2D536563746F72732028312D363429203F3ABB
:204B00000D4F4B2E20457261736520616C6C20464C415348206265666F7265207573652E9B
:204B20000D43757272656E7420424C4F434B2D4255464645523A0D416464726573732027BF
:204B400078303030303030272D277837464646464627206F7220277B36354B2D7365676DBC
:204B6000656E7420302D3132377D3B7B6279746520302D36353533357D27203F3A0D466C6F
:204B80006173685374617274416464723F0D4E6272427974657320286D756C7469706C6527
:204BA000206F6620313629203F0D2A2A2A20534543544F522041542043555252454E54205E
:204BC00041444452455353204E4F4E2D424C414E4B202A2A2A0D2A2A2A2042414420424C71
:204BE0004F434B20494E205345522D464C415348202853656520423B484C29202A2A2A0D12
:204C00002A2A2A204E425220584D542D424C4F434B53203D3D2030202A2A2A0D5472616EE6
:204C2000736D697474696E6720444154412D424C4F434B202E2E2E0D586D742054455354E3
:204C40002D424C4F434B20592F6E203F3A0D3030303038393131313232333942333232345F
:204C60003436414435373336363542463734343838434331394435414146443342453643C6
:204C800043414535444237454539463746380D2020202020207020712020722073202074D4
:204CA000207520207620772020782079202067206B20206D206E2031352C31340D202020D0
:204CC000202020662061207468746C202069206A2020643220202068322020206220632049
:204CE00020642065202068206C0D4E5A433D7820413D68682044323D68686C6C2048323D0A
:204D000068686C6C20423D686820433D68682044453D68686C6C20484C3D68686C6C0D00D8
:204D2000000000000000000000000000000000000000000000000000000000000000000073
:204D4000000000000000000000000000000000000000000000000000000000000000000053
:204D6000000000000000000000000000000000000000000000000000000000000000000033
:204D8000000000000000000000000000000000000000000000000000000000000000000013
:20830000FFFFFF000000000000000000000000000000000000000000000000000000000060
:2083200000000000000000000000000000000000000000000000000000000000000000003D
:2083400000000000000000000000000000000000000000000000000000000000000000001D
:208360000000000000000000000000000000000000000000000000000000000000000000FD
:208380000000000000000000000000000000000000000000000000000000000000000000DD
:208A40000000000000000000000000000000000000000000000000000000000000F0000026
:208A60000000000000000000000000000000000000000000000000000000000000000000F6
:208A80000000000000000000000000000000000000000000000000000000000000000000D6
:208AA0000000000000000000000000000000000000000000000000000000000000000000B6
:208AC000000000000000000000000000000000000000000000000000000000000000000096
:209580000000000000000000000000000000000000FE0000000000000000000000000000CD
:2095A0000000000000000000000000000000000000000000000000000000000000000000AB
:2095C00000000000000000000000000000000000000000000000000000000000000000008B
:2095E00000000000000000000000000000000000000000000000000000000000000000006B
:2096000000000000000000000000000000000000000000000000000000000000000000004A
:2096200000000000000000000000000000000000000000000000000000000000000000002A
:2096400000000000000000000000000000000000000000000000000000000000000000000A
:209660000000000000000000000000000000000000000000000000000000000000000000EA
:209680000000000000000000000000000000000000000000000000000000000000000000CA
:2096A0000000000000000000000000000000000000000000000000000000000000000000AA
:2096C00000000000000000000000000000000000000000000000000000000000000000008A
:2096E00000000000000000000000000000000000000000000000000000000000000000006A
:20970000000000000000000000000000000000000000000000000000000000000000000049
:20972000000000000000000000000000000000000000000000000000000000000000000029
:20974000000000000000000000000000000000000000000000000000000000000000000009
:209760000000000000000000000000000000000000000000000000000000000000000000E9
:209780000000000000000000000000000000000000000000000000000000000000000000C9
:2097A0000000000000000000000000000000000000000000000000000000000000000000A9
:2097C000000000000000000000000000000000000000000000000000000000000000000089
:2097E000000000000000000000000000000000000000000000000000000000000000000069
:20980000000000000000000000000000000000000000000000000000000000000000000048
:20982000000000000000000000000000000000000000000000000000000000000000000028
:20984000000000000000000000000000000000000000000000000000000000000000000008
:209860000000000000000000000000000000000000000000000000000000000000000000E8
:209880000000000000000000000000000000000000000000000000000000000000000000C8
:2098A0000000000000000000000000000000000000000000000000000000000000000000A8
:2098C000000000000000000000000000000000000000000000000000000000000000000088
:2098E000000000000000000000000000000000000000000000000000000000000000000068
:20990000000000000000000000000000000000000000000000000000000000000000000047
:20992000000000000000000000000000000000000000000000000000000000000000000027
:20994000000000000000000000000000000000000000000000000000000000000000000007
:209960000000000000000000000000000000000000000000000000000000000000000000E7
:209980000000000000000000000000000000000000000000000000000000000000000000C7
:2099A00000000000000000000000000000000000000000000000000000000000000000FFA8
:2099C000000000000000000000000000000000000000000000000000000000000000000087
:2099E000000000000000000000000000000000000000000000000000000000000000000067
:209A0000000000000000000000000000000000000000000000000000000000000000000046
:209A2000000000000000000000000000000000000000000000000000000000000000000026
:209A4000000000000000000000000000000000000000000000000000000000000000000006
:209A60000000000000000000000000000000000000000000000000000000000000000000E6
:209A80000000000000000000000000000000000000000000000000000000000000000000C6
:209AA0000000000000000000000000000000000000000000000000000000000000000000A6
:209AC000000000000000000000000000000000000000000000000000000000000000000086
:209AE000000000000000000000000000000000000000000000000000000000000000000066
:209B0000000000000000000000000000000000000000000000000000000000000000000045
:209B2000000000000000000000000000000000000000000000000000000000000000000025
:209B4000000000000000000000000000000000000000000000000000000000000000000005
:209B60000000000000000000000000000000000000000000000000000000000000000000E5
:209B80000000000000000000000000000000000000000000000000000000000000000000C5
:209BA0000000000000000000000000000000000000000000000000000000000000000000A5
:209BC000000000000000000000000000000000000000000000000000000000000000000085
:209BE000000000000000000000000000000000000000000000000000000000000000000065
:209C0000000000000000000000000000000000000000000000000000000000000000000044
:209C2000000000000000000000000000000000000000000000000000000000000000000024
:209C4000000000000000000000000000000000000000000000000000000000000000000004
:209C60000000000000000000000000000000000000000000000000000000000000000000E4
:209C80000000000000000000000000000000000000000000000000000000000000000000C4
:209CA0000000000000000000000000000000000000000000000000000000000000000000A4
:209CC000000000000000000000000000000000000000000000000000000000000000000084
:209CE000000000000000000000000000000000000000000000000000000000000000000064
:209D0000000000000000000000000000000000000000000000000000000000000000000043
:209D2000000000000000000000000000000000000000000000000000000000000000000023
:209D400000FC00000000000000000000000000000000000000000000000000000000000007
:209D60000000000000000000000000000000000000000000000000000000000000000000E3
:209D80000000000000000000000000000000000000000000000000000000000000000000C3
:209DA0000000000000000000000000000000000000000000000000000000000000000000A3
:209DC000000000000000000000000000000000000000000000000000000000000000000083
:20AD80000000000000000000000000000000000000000000000000000000FC0000000000B7
:20ADA000000000000000000000000000000000000000000000000000000000000000000093
:20ADC000000000000000000000000000000000000000000000000000000000000000000073
:20ADE000000000000000000000000000000000000000000000000000000000000000000053
:20AE0000000000000000000000000000000000000000000000000000000000000000000032
:020000040001F9
:00000001FF
