:200000000C9480010C943E000C945F000C9476000C9476000C9476000C9476000C94760074
:200020000C9476000C9482000C9476000C9476000C9476000C94B6000C9476000C94DA0060
:200040000C9444010C9476000C94FC000C9476000C9476000C9476000C9476000C9476009B
:200060000C9476000C9476000C9476000C9476000C9476000C9476000C9476001FB70F936E
:200080001F93DF93CF93FF93EF930DB30E7F0DBB0FEF00935801EEE6F1E0C191D1911991C4
:2000A000EEE6F1E0C193D19309E000938100EF91FF91CF91DF911F910F911FBF18951FB755
:2000C0000F931F93BF93AF93DF93CF93FF93EF930000000000000000EF91FF91CF91DF9170
:2000E000AF91BF911F910F911FBF1895E9E5F1E00E94E508A8EEB3E00E94630AF7CF1895BC
:20010000F5CFF4CF1FB70F931F93BF93AF93FF93EF9300270093B200EAE6F1E0A4E0B1E064
:20012000889400810B1F0193BB27AA95D1F700916A010A3098F0002705BD0093810000932D
:20014000B100439800270093690108C000916A010170002311F4439801C0439AEF91FF9109
:20016000AF91BF911F910F911FBF18951FB70F931F93429A00274C9B01C000E800938A0139
:200180000FEF00936001009165010395009365010CC000915B01002341F000916501017070
:2001A000002311F4429801C0429A42981F910F911FBF18951FB70F931F93BF93AF93FF939B
:2001C000EF93E2E8F1E0A4E0B1E0889400810B1F0193BB27AA95D1F7009182010170002301
:2001E00011F4459A01C04598EF91FF91AF91BF911F910F911FBF18951FB70F931F93BF9386
:20020000AF93FF93EF93E6E7F1E0A4E0B1E0889400810B1F0193BB27AA95D1F70091760189
:200220000170002311F4000001C00000EF91FF91AF91BF911F910F911FBF18950D3108F0B3
:200240000CE1002309F40895B02F0027A9E00A0FBA95E9F7B02F00270093B0000093B10090
:200260000093B20007E00093B10008944C9B08C000270093B1000091B2000B1798F388944C
:2002800000270093B1000895E394EABC189502E004BD03E005BD0DE307BD002706BD0ABDDF
:2002A000089502E004BD03E005BD09EF07BDF5CF00916E00026000936E00089500916E00DB
:2002C0000D7F00936E000895000000000000000000000000000000000000000000000000F4
:2002E0000000000000000000000000000000000000000000000000000000000000000000FE
:20030000F89420E02093C50027E62093C400C0E0D1E11A911A91CDBFDEBF26E02093C20009
:2003200028E12093C10020E02093CD0029E12093CC0026E02093CA0028E12093C90000E04F
:2003400002B90FEF01B904E405B90BEB04B90FEF07B90FEF0BB90AE60AB903E008B904E412
:2003600005B90E94EC080E945E050E94EC080E94010E0E94200E50F4EEE3FAE30E94E5088C
:200380002091C00027FFEFCF0091C600EFE9FDE30E94E508A0E0B8E01E910FEF75D20E94BC
:2003A000320304C0A4E6B0E00E94630AE0E0F0E00E94CF0451F0EBE2FDE30E94E5082091E8
:2003C000C00027FFEECF0091C600EBE1FDE30E94E508469A02E1B4E3A6E5D8E7CAE9ECEBBA
:2003E000FEED23E30E94200E0E94290F0E94EC0824E40E94200EE2EBF2E4C1EDDCE05AE0AD
:200400000E947C08E1EDFCE00E94791621E10E94EF1555E024E70E941E1629C00091C800DB
:20042000B02F0091C90038E70E942F09A4EFB1E00E94630A2091C80027FFF0CF0091C800A0
:20044000B02F0091C9000E94200E31E6A1E1B2E2C3E3D4E4E5E5F6E60E942F0932E6A1E1EE
:20046000B2E2C3E3D4E4E5E5F6E60E942F0906E1009392030E947A190E947A19C5E3D1E038
:20048000E993F9930E94290FE2EFF8E30E949609EBE7FAE30E94A2080E94EC08093531F09D
:2004A000E1E9FAE30E94E5080E946311C4E0D0E0E7E0F1E0C193D1930E94E9060E94EC0825
:2004C000E2EFF8E30E94E5080E94EC08E2E5FAE30E94E5080E948908E8F3EDE8F1E00191D2
:2004E0000F3319F40E941C0FEFCF023589F40081003268F0093459F40FEFA0E0B8E01E9114
:200500000E944404EBEAFCE30E94E508DDCFF8CE053421F431D3D8CF98C0D6CF043409F510
:20052000E0EBFEE30E94A20810F0003208F4F5CF033519F40E94360DC7CF063489F70E94B5
:20054000C60670F3B03549F0889457954795579547955795479557954795EF010E94730409
:20056000EECF023401F40D3409F4AECF063419F40E94CC07A9CF093421F40E941B0B0C94EA
:200580006402083541F50191023419F4E0E0F8ED09C0003519F4E0E0F8EF04C00E943008B8
:2005A00008F453C0F795E795FF93EF93EF01EFEEFEE30E943D0CEF91FF91FF93EF93E8EC7F
:2005C000F4E0F795E795EF01EF91FF91CF93DF930E94200E0994003519F40E94631174CF63
:2005E0000C3409F430C00F3421F40E9432190C946402073519F40E94610F25C00A3711F4FD
:20060000289862CF0A3511F4289A5ECF023631F420E02093C50029E12093C4000134A9F48E
:2006200000810D3469F0093441F40E94FF19EF01EEE8F2E40E943D0C06C00E94271A03C080
:200640000E945A1A00C040CF00C00E94EC080FE30E94CE080E94CE0837CFE9E6FAE30E9429
:20066000E50808950E94010EA0E0B8E01E910E944D042AEA0E94200E0F3F09F452C0E2EF73
:20068000FDE3BB27AEE726D1A0E0B0E0C8D0FF93EF93BB27AEE709D1AF91BF91EA17FB076C
:2006A0002CEC0E94200E09F40895EDE0FEE30E94E508A0E8B0E003E000930D01B0D0FF93CD
:2006C000EF93F3D0A0932E01B0933001AF91BF91EA17FB072DED0E94200E61F0A0912E01D1
:2006E000B091300100910D010A9500930D01002329F717C0EDE0FEE30E94E508A0912E01F2
:20070000B0913001E0E0F0E0CF014EE7BF93AF93C4D0DC01B9D0CD01AF91BF914A95B1F75F
:2007200055C0E9EEFDE30E94E508A0E0E0E0F0E0A0E18DD0E0E0F0E0A2E189D0E0E0F0E074
:20074000A4E185D0E0E0F0E0AAE10E94270406E4ACE10E943104E0E4F0E0A8E10E9427049F
:200760000027ADE10E94310404E0AEE10E943104A4E2E0E0F8ED0E942704E0E0F0E0A2E297
:200780000E94270400E2A6E20E9431040027A7E20E94310402E0A8E20E943104FF27EE2746
:2007A000AAE30E942704FF27EE27ACE30E942704BB27A2E258E034D0AAE20E942704BB276B
:2007C000A8E158E02DD0A0E20E942704E1E0FEE30E94E5081DD0CF01A0E8B0E053E04EE79E
:2007E000E0E0F0E0BF93AF93DF010E944D04FD01AF91BF910E9444044A95A1F7FC010E2FD9
:200800000E9444040F2F0E9444045A9541F70895A0E0B0E004D0BB27AEE74CD008955EE7A9
:20082000C1EDDAE05F9339D009935A95E1F70F91A02FBB27002309F4B1E0C1EDDAE0B6953D
:20084000A7950E943D052BEB0E94200E08950E2F08D00F2F06D008950ED0E02F0CD0F02F47
:200860000895BB27F999FECFB2BDA1BD00BDFA9AF99AA3950895BB27F999FECFB2BDA1BD06
:20088000F89A00B5A3950895F999FECFB2BDA1BD00BDFA9AF99A1D910895F999FECFB2BD13
:2008A000A1BDF89A00B51D910895F7DFE02FF5DFF02F08950E2FE8DF0F2FE6DF0895EDDF63
:2008C00001930032E0F708950191DEDF0032E0F70895BB27FF93EF93E8DFEF01EF91FF912C
:2008E0000E94160C0895CF01042F052B002309F408955F934F93FC01DF0126D051F4CD01ED
:200900004F915F9141505040042F052B002389F70895DC012BD0CDE8D1E040E100E2099366
:20092000FC010591CF01FE010E94AB09EF014A95A9F70E9481084F915F9141505040042F41
:20094000052B0023B1F60895FF93EF9340E10027D02EFD010591DF010F3F09F4D3944A95A1
:20096000C1F7EF91FF910D2D00310895EDE8F1E0AF930B2F0E94AB09AF910A2F0E94AB0960
:20098000BF93AF930AE3019300270193EDE8F1E00E94DC08AF91BF910895E0E0F0E0FF930C
:2009A000EF9355D0DF93CF93FE010591802F0591902FEF91FF91AF91BF91BF93AF93EA1BEA
:2009C000FB0BDF01EF91FF910DD030F0DF01FC01EA17FB0788940895EBE3FDE30E94E5084E
:2009E000089408950A2F079508F4089533242224BF010B2F001F08F40895C1EDDAE0FB019D
:200A000050E40B2F002331F40A2F003818F40A2F0695502F052F402F059109931E91059136
:200A200009931E915A95C1F7BF01BF93AF93C1EDDAE0BB27042FA02F0E944705AF91BF91A6
:200A4000109609F0D6CFF1010895E0E0F0E0AEEFBFEF53E0119741F005910A3AD1F75A954B
:200A6000C9F7EF01889408952FEE0E94200EECE5FAE30E94E50808940895222433246AD0D3
:200A800001C05FD004D066D0F10188940895EEEEF5E32F0109910225F2012227E00FF21FD0
:200AA0000491202E099102250325F2012227E00FF21F0491302E119769F70895BF93AF9302
:200AC0001CD0FF93EF93EEEEF5E3A0E0B1E0EA0FFB1F0591A02F0591B02FEF91FF91EA1753
:200AE000FB0739F02EEE0E94200EAF91BF91089408958894AF91BF910895BF93AF93DF93C7
:200B0000CF935F934F933324222444E0EEEEF5E3CF0150E4C1EDDAE0FC01059109935A95A0
:200B2000E1F7CF01C1EDDAE0A0E2B0E0B0DF4A9581F74F915F91CF91DF91AF91BF91F1018B
:200B40000895BF93AF93ACEFB7E0AFDE1F01AF91BF910895BF93AF93F101ACEFB7E0AADE18
:200B6000AF91BF910895AF93AC2F85DECA2FAF9178DE5A95C1F708950E94EC08A0E0B0E04F
:200B800008E000932E0140E0C1EDDAE0BF93AF9384DE09934A95E1F7AF91BF91BF93AF93B6
:200BA000C1EDDAE050E10E94590DAF91BF91E0E0F1E0EA0FFB1FDF0100912E010A9500938E
:200BC0002E01002301F7EDE7FEE30E94A2080E94EC0808F40895003208F40895033521F483
:200BE00000E000933701A5C0093421F401E00093370181C0013421F402E00093370111C0DE
:200C0000053409F0089503E000933701B0D0D8F2EB01DF01003511F4F8D0A5C00E94180719
:200C2000A2C0D7D0E5E2FEE30E94A20808F4CBCF003208F4C8CFBB27093509F4BFEF0093FE
:200C40002E01002319F00CD2CF0113C09FD008F4BACFCF01FA01309621F3B03551F4A1E074
:200C6000B0E1EA17FB07E8F6C0E0D0E0DC01CDD07AC000912E01002381F0FC01AFD05F933C
:200C80004F93EA01FC01EC0FFD1FEF01EDE0F1E0C193D1939FD04F915F91DC01C0E0D0E0C1
:200CA000C7D0FF93EF93CDE0D1E0E991F9910591A02F0591B02FEF91FF91FF93EF932DEF0D
:200CC0000E94200EEA17FB0719F4ECE0FDE302C0EBE2FDE30E94E508EF91FF9144C0B03591
:200CE00009F00895EE1FFF1FEE1FFF1FEE1FFF1FEE1FFF1F08954AD008F465CF052F017026
:200D00000023C9F7CF01FA01B035A9F3A1E0B1E0EA17FB0780F7309671F3DC010E2F502F55
:200D20000E941004EF01E2EFFDE30E94160C0C94E3052CD008F447CFB035D9F7CF01C0E0DD
:200D4000D1E0EC17FD07A8F3C0E0D1E1EC17FD0780F7FA01A1E0B1E0EA17FB0750F7DC013C
:200D6000C0E0D0E065D0EF01EEEDFDE3DECFE1EEFCE30E94E508E4EDFEE377D108F40895C6
:200D8000BF0104D008F408950B2F0895E4EDFEE30E94350808F408957F01EFEBFCE30E944A
:200DA000A20808F40895003208F40895E7E9FCE3B2E40B1731F0E7EDFCE3B0E50B1709F03A
:200DC000E5CFBF930E943508BF9100F3AF01F70108953BDEE8E1FEE30C94B40EDF93CF93AD
:200DE000FF93EF93AEEFBFEF34DEAF91BF9108F40895BF93AF93FE01EA1BFB0BAF01EF918B
:200E0000FF91CF91DF918894089533242224A2DEBD014F9340E1E1EDFAE030D04F91E8E08B
:200E2000F0E054D041505040A1F7F10188940895332422248FDEBD01052F002381F05F93D8
:200E40004F9354E040E4E1EDFAE018D0E0E2F0E03DD05A95B9F74F915F915A9581F7042F20
:200E6000002351F04F93E1EDFAE008D00F910695A02FBB27FD012AD088940895CF010091AE
:200E80003701003011F40D9110C0013019F40E944D040BC0023021F4FD010591DF0105C0FB
:200EA000033051F40E94740700C0FC010193CF014A9529F788940895ECE5FAE30E94E50887
:200EC0000894009137010E94200E0895DF93CF93BF93AF93DF01C1EDDAE00E944105AF9168
:200EE000BF91CF91DF910895BF93AF93DF93CF935F934F939F938F937F936F93ED010E9401
:200F000026086F917F918F919F914F915F91CF91DF91AF91BF9122271196C21FD21F0895B4
:200F2000BF93AF93DF93CF935F934F939F938F937F936F93ED010E942B086F917F918F911A
:200F40009F914F915F91CF91DF91AF91BF9122271196C21FD21F0895089548E05527BB27AF
:200F600001E000933701C0E0D0E062DF089588940F2F0795F02F0E2F0795E02F0895089560
:200F80002BD1EFE9FCE3DED028F00E94EC08093509F408950F6F0895E8EFFEE3E8DE08F4D5
:200FA0000895EB01DF0103E000932E012091C00027FF03C00091C60008950E9474070A3A74
:200FC00091F700912E010A9500932E01002371F7DF93CF93BF93AF93EAE0FFE30E94900E89
:200FE000AF91BF91CF91DF91DECF0B2F0A2B002311F408940895CF01FD01BF01DF93CF93B2
:20100000AF91BF91FC010191CF010A27A02FE0EFF6E3C02FD0E0CC0FDD1FEC0FFD1F059116
:20102000C02F0591D02FFE010B2FA02FBB27AE27BF27FB011291BF01309609F0E3CF88949B
:201040000895219231924192519208955F93FEDF19915F9108955F93FEDF19915F9108951E
:20106000E4EDFEE30E943508089551D008F40895EDE8F1E001D008950081083449F00F343B
:20108000A1F077D308F40895EF01D1D18894089511910E94BD0908F40895D02F0E94BD0987
:2010A00008F40895C02FFE01089511910E94DC0B089558E0B0E8A02F0A2F0B2320E3002318
:2010C00009F021E3022F01930B2F0695B02F5A9599F70DE000830895DF93CF93CDE8D1E0D4
:2010E00004D0FE01CF91DF91089505910032088308F408951991F9CF059109935A95E1F759
:2011000008950DE00083EDE8F1E056D0089564D05CD00FEFEDE8F1E01FD0EDE8F1E0089523
:20112000EDE8F1E00FEF03D0EDE8F1E008950F930F910F931DD020F001930032C8F7889473
:201140000F9108950E94E5080AEF12D008F4089525D008950FEF00C00F930F910F9308D043
:2011600028F01CD001930032C0F788940F910895BF93AF93A0E0B0E0119751F02091C00097
:2011800027FFFACF0091C6008894AF91BF9108950A9581F70894AF91BF9108952091C0006F
:2011A00025FFFCCF0093C60008952091C00027FFFCCF0091C60008950191003210F0EEDF63
:2011C000FBCF0D3009F0089507C00591003220F0E5DF0A3341F0F9CF0F930AE0DFDF0DE0A2
:2011E000DDDF0F91089500E2D9CFBF93AF93E1EDF8E00991B0D000E201934A95D1F7DF9389
:20120000CF930DE00083E1EDF8E087D0CF91DF91AF91BF9108950DE00083E1EDF8E07DD09F
:2012200008958BD083D00FEFE1EDF8E00CD0E1EDF8E008957BD00AEF4BD008F408955FD079
:2012400008950FEF00C00F930F910F9341D028F056D001930032C0F788940F9108951FB754
:201260000F931F930F93032F4AD00F9103C01FB70F931F935F93FF93EF93DF93CF93BF9373
:20128000AF931FB70F931F931FB70F931F93EFEAFFE30E9496091F910F911FBF54E0CDB7D6
:2012A000DEB71991E1EDF8E0A991B991F7D55A95D9F7B1DF1F910F911FBFAF91BF91CF918C
:2012C000DF91EF91FF915F911F910F911FBF0895BF93AF93A0E0B0E0119751F02091C800CD
:2012E00027FFFACF0091CE008894AF91BF9108950A9581F708940027AF91BF91089520919F
:20130000C80025FFFCCF0093CE0008952091C80027FFFCCF0091CE0008950191003210F0EE
:20132000EEDFFBCF0D3009F0089507C00591003220F0E5DF0A3341F0F9CF0F930AE0DFDF60
:201340000DE0DDDF0F91089500E2D9CF0D2F03D00C2F01D00895302F06950695069506959A
:2013600003D0032F01D008950F700A3010F027E0020F20E3020F019308950CD008F408956F
:20138000000F000F000F000F302F04D008F40895032B08950191003308F408950A3340F0AF
:2013A000013408F40895073430F401542AE0020F0F708894089508940895BF93BB27DF9379
:2013C000CF93CF91DF91BA95D1F7BF910895BF93AF93B0E00191003398F00053A02F0081C3
:2013E000003358F00A3348F40A2F000F000F0A0F000FB02F01910053A02F0A2F0B0FB02FB5
:201400000B2FAF91BF910895BF93B0E00A5010F0B395FCCF0F930B2F20E3020F01930F91F2
:201420002AE0020F20E3020F0193BF91089555E0E0E0F0E00881003308F408950A3308F0AD
:2014400008950053AE2FBF2FEE0FFF1FEE0FFF1FEA0FFB1FEE0FFF1F0E0FE02F00270F1FEC
:20146000F02F19915A9531F70895C02FD0E011C0C02FD0E0043698F00CC0A0E1B7E21AD04E
:2014800020E3020F0193A8EEB3E014D020E3020F0193A4E6B0E00ED020E3020F0193AAE0C5
:2014A000B0E008D020E3020F01930C2F20E3020F019308950027CA1BDB0B10F00395FBCF48
:2014C000CA0FDB1F08950F93DF93CF93BF93AF93C2E1D0E008EC0A95F1F72197D9F7119794
:2014E000B9F7AF91BF91CF91DF910F910895052F013208F00895003009F4089540E1059122
:2015000009934A95E1F75A95C9F70895052D001F60F4209430944094509421E0220E2227DD
:20152000321E421E521E0DE209935AE0E6ECF5E365907590859095902614370448045904CA
:2015400028F45A95A9F700E309930DC0349765907590859095900AD0022D00630993130179
:2015600024015A95A1F70DE009930895AA24BB24CC24DD24B0E28894661C771C881C991CDF
:20158000092D000F10F0BA95B1F701E20B1BB02FBB23089409F408952618370848085908E5
:2015A00030F4260C371C481C591C889401C00894AA1CBB1CCC1CDD1CBB2339F0BA95889440
:2015C0009794879477946794E7CF3101420115012601889408950027DD24CC24BB24AA24D9
:2015E000629CA00CB11CC01ED01E639CB00CC11CD01E649CC00CD11C659CD00C729CB00CC2
:20160000C11CD01E739CC00CD11C749CD00C829CC00CD11C839CD00C929CD00C1501260132
:20162000089526183708480859080895260C371C481C591C08950C941D0BEBE4FCE30E942F
:20164000A2080E94EC0808F40895003208F408950F75A02E3BD0EBE5FCE30E94A2080E94EC
:20166000EC0808F40895003208F40895003228F3003318F3083308F70053B02FA1E00B2F60
:20168000003029F00A2F000FA02FBA95F8CF0A2FD02EEBE6FCE30E94A2080E94EC08D8F241
:2016A0000032C8F20033A8F3023398F7B02F0B2F003329F40D2D0095A02F27D0EACF0B2FBB
:2016C000013339F70D2DA02F3AD0E3CF00E50E94CE080A2D0E94CE080DE30E94CE080A2D36
:2016E000013419F400B10C940B0C023419F403B10C940B0C033419F406B10C940B0C0434A8
:2017000009F0089509B10C940B0C0A2D013421F400B10A2302B90895023421F403B10A23DF
:2017200005B90895033421F406B10A2308B90895043409F0089509B10A230BB908950A2D73
:20174000013421F400B10A2B02B90895023421F403B10A2B05B90895033421F406B10A2B3A
:2017600008B90895043409F0089509B10A2B0BB90895003308F408950A3318F40053889469
:20178000089508940895BF93AF93B02F0B2F007CA6E00695AA95E9F7006301930B2F08735E
:2017A000069506950695006301930B2F077000630193AF91BF91089509D008F40895A02F4B
:2017C00005D008F40895B02FFD010895BF93AF93CF93A3E0BB270191003388F0083378F4E2
:2017E0000770C02F0B2F000F000F000F0C2BB02FAA9589F7CF91AF91BF9188940895CF913E
:20180000AF91BF9108940895EDE8F1E00E94C30B0C94810806D0EDE8F1E00E9459080C94A1
:2018200081080F930E94E5080F910895DF93CF930E94E508CF91DF91EDE8F1E00E94A60987
:201840000C948108EEDFEDE8F1E00E94AB090C948108E7DFEDE8F1E001930C948108E1DF84
:20186000EDE8F1E00E94040A0C948108DADFEDE8F1E00E94350A0C948108DF93CF93CDE8F7
:20188000D1E033DCEC2FFD2FCF91DF9105C0E991F991EF01EDE8F1E0F0DD0E94810808957D
:2018A00001D031CC5F924F923F922F929F928F927F926F92FF93EF93FE012190319041903C
:2018C0005190EF91FF91CDE8D1E00FDC1FDE6F907F908F909F902F903F904F905F90089574
:2018E000FF93EF93EC2FFD2F0B2F0E94AB09AF91BF910B2F0E94AB090A2F0E94AB09CE2F51
:20190000DF2F0DE008830895009319010FB7102F00931A010EC0009319010FB7102F009331
:201920001A0100915701003021F41FBF009119010895B0932401A0932301032F00931C0197
:20194000DF93CF93C7E2D1E0E993F993CF91DF91E5E2F1E0C193D193CFE1D1E0FB01E99358
:20196000F993C1E2D1E0FC01E993F993CDE8D1E0E5E1FFE3BADB3DE3EDE8F1E06BD000914D
:201980001A01077020E3020F019364D0009119010E94AB095FD0CFE1D1E0199108810E9473
:2019A000AB091A9108810E94AB0954D0C1E2D1E0199108810E94AB091A9108810E94AB095E
:2019C00049D0009124010E94AB0944D0009123010E94AB093FD0C5E2D1E0199108810E9487
:2019E000AB091A9108810E94AB0934D0C7E2D1E0199108810E94AB091A9108810E94AB0938
:201A00000DE00083EDE8F1E00E94DC08C1E2D1E0E991F991CF01CFE1D1E0E991F991BF01DD
:201A2000E5E2F1E0C191D191DF93CF93C7E2D1E0E991F991CF91DF9100911C01302F0091BA
:201A40001A01102F1FBFA0912301B09124010091190108950081003208F40895032F20812C
:201A60000217119109F0F6CF88940895E4EDFEE30E94350820F400918D01003220F0C5E089
:201A8000D1E0E993F993E7ECFEE30E94350820F400918D01003220F0C7E0D1E0E993F99325
:201AA00000910701502FE5E0F1E0C191D191FE01DF01DF93CF9340E10027D02E09910F3FE3
:201AC00009F4D3944A95D1F7FE01CF91DF910D2D003119F4EF0150961AC0DF93CF93EDE85B
:201AE000F1E0AF930B2F37DCAF910A2F34DCBF93AF930AE3019300270193EDE8F1E05CDB50
:201B0000AF91BF915096CF91DF9140E132D05A9581F60895DF93CF93EDE8F1E0AF930B2F63
:201B20001ADCAF910A2F17DCEDE8F1E0AF930A2F9CDCAF91BF93AF930AE3019300E20193DF
:201B4000AF91BF91CF91DF914AE01991088103DC1A91099100DC19911D9100E201934A951B
:201B6000A1F70DE00083EDE8F1E026DB5A9591F60895BF93AF93EDE8F1E00991ECDB00E226
:201B800001934A95D1F7DF93CF930DE00083EDE8F1E012DBCF91DF91AF91BF910895EDE861
:201BA000F2E00991D8DB00E201934A95D1F7DF93CF930DE00083EDE8F2E0FEDACF91DF9156
:201BC0000895C0E0D1E050E2EDE8F2E00E94A60900E2019340E2E5DF5A95B1F708950093CA
:201BE00019010FB700932901012F00931A010895009129010FBF00911A01102F00911901AE
:201C000008955F934F93FF93EF93DF93CF93BF93AF933F932F93E3DFEAE4FFE3D6DAC0E081
:201C2000D0E051E00E94DC0EE3DF2F913F91AF91BF91CF91DF91EF91FF914F915F91089508
:201C40005F934F93FF93EF93DF93CF93BF93AF93C6DFB0932401A0932301022F00931B01F0
:201C6000032F00931C01DF93CF93C7E2D1E0E993F993CF91DF91E5E2F1E0C193D193052FF8
:201C800000931E01042F00931D01FC01C1E2D1E0E993F993EB01EFE1F1E0C193D193E8E741
:201CA000FFE393DAC9E1D1E051E00E94DC0EEDE8F2E00EE401930AE5019303E401930DE3A2
:201CC000019300912901302FB4E0A3E020E3032F0B23B695002309F021E3022F0193AA956D
:201CE000A9F70DE00193EDE8F2E066DAEFE1F1E0C191D191BE01C1E2D1E0E991F991CF01A0
:201D000000911B01202F00911C01302F71DFAF91BF91CF91DF91EF91FF914F915F9108958D
:201D2000DF93CF93BF93AF930E94E508AF91BF91CF91DF91EDE8F1E01D012E01E2010E94D4
:201D40003D0A0BE30193E1010E943D0A04E601930DE30193E2010E94A6090BE30193E10155
:201D60000E94A6090C948108DF93CF930E94E508CF91DF91EDE8F1E0DF93CF930E943D0A53
:201D80000DE30193CF91DF9108E701930E94A6090C94810822278D0D921FFC01DD27AA278C
:201DA000CF2FBE2F08950C2FEDE8F2E0ECDC0AE3019300E201930895F6DF48E00991B02FE7
:201DC0000991C9DA0B2FC7DA00E201934A95B1F7DF93CF930DE00083EDE8F2E0EDD9CF91DD
:201DE000DF915A9549F7089548E0EDE8F2E0199108811A91B0DA0991AEDA199100E201932E
:201E00004A95A9F7DF93CF930DE00083EDE8F2E0D3D9CF91DF915A9539F70895A0E0B0E010
:201E200058E1DAD9EDE8F1E00E944D0494DA00E201935A95C9F765C9E6E1F9E3C6D9049185
:201E40000A32E1F708951FB70F931F93022FA6D903C01FB70F931F935F93FF93EF93DF9392
:201E6000CF93BF93AF93E5EAFFE30E94E50853E0CDB7DEB71991EDE8F1E0A991B9910ED02E
:201E80005A95D9F73ED9AF91BF91CF91DF91EF91FF915F911F910F911FBF08950B2F5BDAD2
:201EA0000A2F59DA00E201930895BF93B0E005C0BF93BAE702C0BF93B1E1BA95F1F7BF91DC
:201EC0000895002700938E03E7ECFFE30E941E0F0AEF0E94B8080032A0F30E94EC080335A8
:201EE00009F483C00D3409F4D7C0033409F49AC0093409F4F5C0003709F442C1023709F4E3
:201F000013C1023509F409C1083519F405E400938E03053411F42ED7D4CF043511F42AD773
:201F2000D0CF013409F00895AAE0C6E9D3E00E940816EFE2F1E40E94E508C6E9D3E043E0D1
:201F40000E94B90DE9E3F1E40E94E5080E94890808F4B7CF0E94EC0800918D01003208F451
:201F6000B0CF0F3601F1C6E9D3E0EDE8F1E053E00081003248F00E94CA09D0F312910E9408
:201F8000BD0909935A95F4CF052F002369F6AAE0C6E9D3E00E94131653E0A3E000270E9441
:201FA00031045A95D9F7E9E5FAE30E94E508E7E6F1E40E94A2080E94EC08003208F481CFF1
:201FC000BEE1093481F0B5E0033569F0BCE3003551F0BBE4013439F0BAE5063421F0BB27B0
:201FE000063629F76ECF20D1E2CF4498E8EEF3E000E31A9B01C001E30E94CE081291309603
:2020000031F02091C00027FFF3CF0091C6000E94EC080FEF0E94B8080B3109F408950334EC
:20202000D9F59DC6EBE8F0E40E94E5082091C00027FFFCCF0091C600E8EEF3E0469A0E9455
:202040005B0F46981291309609F0F8CF2091C00027FFFCCF0091C600E8EEF3E0469A0E942B
:20206000550F46980E94550F1291309609F0F6CF2091C00027FFFCCF0091C600E0E4F0E0A4
:20208000469ABAE00E9446114698BAE00E9446111291309609F0F4CF40E055E0CAEBD3E07A
:2020A0005F934F93AF91BF9109D10E94A01818F42BEBC6DD06CF40E055E0CAEBD3E0449A53
:2020C000DBD70A2F30F0099341505040242F252BB9F74498CF01EAEBF3E00E94200EF1CE02
:2020E0000E9451010E94580178940AB50023E9F300270ABD149AE0D014982091C00027FF98
:20210000F4CF07B5B02F05B5A02F0FB728E80E94200EF8940E945E01D4CE29D745D0D1CE4F
:20212000ECE5FAE343D0CDCEECEEF0E40E94350898F3C7E1D1E0E993F993CAE9D3E0A0E2E2
:20214000B0E0BCD0D8D730F0149A0E94451114982BD0F3CF0E941D1920F4ECE5FAE326D0F5
:2021600001C022D0C7E1D1E0DF93CF93E991F9911291CF91DF91E993F9933096A9F2DDCFF3
:20218000E4E0F1E4009192030E942F0CE4E0F1E40E94350808F2AEE1B0E0EA17FB0780F798
:2021A0000E2F00939203B8CFE9E5FAE3FF93EF93EAE9F3E00D2D2AEA0E94200EAF93CAE9BB
:2021C000D3E00D2D0F710395402F0E94B90D0D2D0023E9F4CAEBD3E0FB01EC1BFD0B3096B0
:2021E000B1F08894F795E795F795E795F795E795F795E7950E2F502F002349F05395CAEB4D
:20220000D3E0DF93CF93AF91BF910E94590D0D2D053020F4EEE1F1E40E94E5080F91EF91C9
:20222000FF910E94E5080895EAE9F3E0C6E9D3E043E0AA27552709910193A02753954A95AE
:20224000D1F70B2F0193A02753950A2F00835395FFD522E655E00E941E162ED6EAE9F3E004
:2022600050E2002701935A95E9F745D710F09CDF0895002319F4E2EDF1E498CFE0E0F0E0A3
:20228000E0EBF1E493CFB02F01C0B1E00AE20A95002341F00DDE0000000000000000000041
:2022A0000000F5CFBA95BB2389F708950C9451010C94580F0C945B0F0C94550F0027099346
:2022C0001197E9F70895E1EAFAE30E941E0F0027009390030093910300938F0300938D03A6
:2022E0000093C30844980093BE080093CA084598C02E00E20093C408E1E9FAE30E949609F2
:2023000029C00091C308002321F0449A0FE30E94CE08E1EDFAE05527A3D150F4032F0F3FA0
:20232000C9F0052F002369F30FEF0093BE08F4CF00270093BE08E1EDFAE001910A3771F5B6
:2023400001910B3109F408950A3709F40895023709F0ADC04AD1A0F42091C00027FF01C094
:20236000D8CF0C2F0D3D39F0052F002321F00A2F002331F08BC0E2EDF1E40E949609EACF3A
:202380005F93EAE9F3E00E9426135F9124E576D40091BE08002309F4B4CFCACF00918D03D3
:2023A000002309F021C15F93E1EDFAE00E945E175F91E1EDFAE0A3E0B0E0EA0FFB1F00812F
:2023C0000093C10803E60E947F09052F402FC1EDDAE00E94F50809D108F4C3CF5F93EAE9B7
:2023E000F3E034D15F910091C408202F47D40091C1080A3509F048C0EBE3FCE30E949609C6
:202400000091C408003209F43FC0E1E4FCE30E9496090EE100933001009130010A950093A5
:202420003001002389F10FE00E94B80810F00B3159F10E94FF19FF93EF93EF01E1EDF8E093
:202440000E943D0A0CE20193FF93EF930E94D019EF01EF91FF910E943D0A0E940B09EF9153
:20246000FF910091C4080F3429F000913001023098F605C0ACE2B1E0EA17FB0768F2289890
:20248000E9E9F2E40E94960908D03BCFBCEC05D0E0EBF1E40E94960934CF0091CA0800238A
:2024A00009F40895052F38E70E942F0908950337A9F5C1EDDAE0EEE3F1E0C193D19300918D
:2024C0008F03E02FF0E0C6EAD1E40091C4080E94B31A00919003E02FF0E0CCEBD1E40CE2FD
:2024E0000E94B31A00919103E02FF0E0C8ECD1E40CE20E94B31A0E94D019CDE6D2E40CE2C1
:202500000E94B31A0E94FF19CEE8D2E40CE20E94B31AE1EDFAE00E94DC08F3CE0F3619F488
:202520000093C408EECE0F3419F40093C408E9CE053631F45A955A9589D00E94EC08E1CE3E
:20254000043759F40E94E70908F449C021E0020F009392030E94200ED4CE0C3629F4289891
:2025600000E20093C408CDCE0C3429F4289AB6E90E944611EFCE003729F400270093C30832
:202580004498BFCE003529F40FEF0093C308449AB8CE043629F4EBEDF1E44598002706C0F2
:2025A000043451F4E9EEF1E4459A0FEFC02E0093CA080E949609A5CE033559F40FEF0093F8
:2025C000C2080FEF00938D03E5E7FBE30E94E5080BC0083421F400270093C208F2CFECE5A5
:2025E000FAE30E94E5088DCE57C0469A0E947B18B091CA08BB2339F03F932F9332E50E9481
:202600002F092F913F910E941D19469888F00A2F002339F0009190030395009390030894C1
:20262000089500918F03039500938F0388940895032F0D3D19F05527089408950091910305
:20264000039500939103552708940895052F002309F4089501910E94CE085A95D9F70895AF
:20266000479ABEE10B2F60D360F0539501930A3731F406E059D368F05395019305C0B1E0FF
:20268000F1CF052F002329F000270083889447980895089447980895A2D100270093BF08BC
:2026A00000270093CA080093CB0803D218F4FAD096D1FBCF052F0093930325E67CD2EAE9C3
:2026C000F3E00191B02F007F02950093C0080B2FCAEBD8E0002709930B2F0F7009930191F4
:2026E00009930191099301910093C108A191CBEBD8E043E06FD2C6E9D3E043E06BD272D218
:20270000CBEBD8E023E60091C10859D293D139F40FEF0093CB08E9E5FAE33DD218C0ECEB5F
:20272000FBE339D2A091CB0824E6EDEBF2E40591B091BB0844D20091CB08002331F4EDEBC0
:20274000F2E4CBEBD8E084D111F0B1DFA5CFCAE9D3E0FE01009193030A95502FA4D3AF9378
:20276000B0810091930323E72AD20F910B1739F02AE225D2A4E07AD19ACF45D196CF23E453
:202780000091C108A091CB081AD20091C1080E3199F477D024D10FEF0093CC080093CB08C2
:2027A00079D029E60CD2E3E1FCE3F5D12DD20000EBEEFBE3F0D1E1CF053049F462D0002788
:2027C0000093CC080FEF0093CD0873D06ECF0B3049F457D000270093CC080FEF0093CD0819
:2027E00059D0CBCF0C3371F400270093CC080091CD08002309F40EC0A8D060F04BD0B5E018
:2028000041D0BBCF0B3471F4A8D020F043D0BFE039D0B3CFA3E02AD145D0E1D0A8ECB0E04C
:20282000D4D1ABCF0A3529F4ACD008F4F3CF32D0A4CF0F3229F40FEF0093CA082BD09DCF46
:202840000F3019F427D0E0D127CF0E3019F422D0DBD1BEC10A3029F400919303502F8CD1CC
:202860008CCF0C3049F4CAE9D3E0A4E0B0E0CA0FDB1FC7D10FD081CF093011F40BD07DCF0B
:20288000C9CFBAEF0091CA08002309F0BCE3B093BF08089506E00093D10A51E02CD055E07C
:2028A0006BD108950091CC08002309F0089505E1F2CFE1EDFAE0DFD0E5D0EBD0A3E053E0FD
:2028C0006FD101935A95E1F7FF93EF939CD0EF91FF91A193A1EDBAE0EA1BFB0B0E2F502FAA
:2028E000052F23E76CD107D047D100919303502F23E761D10895E1EDFAE0CAE9D3E0052FAD
:20290000009393035F93FF93EF936CD153E0AA2701910993A0275A95D9F7EF91FF9129E674
:2029200053E049D15F91052F29E649D1BDD20A2F099300919303B4E00B0F0093930300910A
:202940009303502F28E737D10895BFEFB093CE08ECE1FCE320D188940895BFEF0091CC087E
:202960000B17089409F408950091CE080B1708F40895B093CF08E4E2FCE30DD10000889424
:202980000895BFEF0091CC080B17089409F408950091CF080B1708F408950091CA080B1787
:2029A00089F0EE24ECE2FCE3F6D0A4EFB1E00DD1E3940E2D0E3188F4F7D0063998F3F4D055
:2029C000063980F3EBE3FCE3E6D00FEF0093D008FED0A5E04BD088940895089408950027F2
:2029E0000093CE080093CF080093CD080093CC080AEF0093BF08E5E0FCE3CDD00000E8EFCA
:202A0000FBE3C9D00895E4ECFBE3C5D0CAECD8E047E0E0D0CAECD8E0AA2757E009910023E7
:202A20008894002309F00894AA1F5A95B9F7A093C908089553E00191B02F09910B1729F43C
:202A40005A95C9F788941894089508949894089553E00591B02F09910B1729F45A95C9F7CD
:202A600088941894089508949894089599D00395AA9598D00895FF93EF9396D0EF91FF91BD
:202A800001930895FF93EF9391D0EF91FF9101930895FF93EF9304D0EF91FF910193089526
:202AA000A0E07ED0002319F40DED0193089580D008950091BF08002329F401E000938D0364
:202AC0000894089500932F01E1EDFAE05527C8DD38F400912F01015000932F01A8F70895F4
:202AE000E1EDFAE000810A3769F4E0EBFBE30E94E508002700938D0338E70E942F09EF9114
:202B0000FF91FFCB0091C2080023D9F4E1EDFAE00E94BD09B0F000270093C20801E0009368
:202B20008D035F93E1EDFAE0C1EDDCE00E945317002708835F91E1EDFCE0DBD022E79ED087
:202B400008955F93E1EDFAE0CAE9D3E00E9453175F915F9322E792D00091CA08C02E00230B
:202B600041F0AF93C02E459AE9EEF1E40E949609AF915F918894089500918D03002309F4FE
:202B80009BC10091C208002319F4052F402FC7C0EAE9F3E05BCDCC2009F408950C94960991
:202BA0000C943B040C94310402E308950AE5089501E0089543C0CC2009F408955FC0CC2041
:202BC00009F40895322F0C942F090C94630A08950C940000CC2009F408950C94F5080E9413
:202BE000200E0895BF93AF93DF93CF93AAE0C6E9D3E00ED0CF91DF91AF91BF91E6E9F3E0D6
:202C0000089553E0AAE010C0A8EEB3E00C94630A54E0052F002309F408950E943B040993B2
:202C20005A95D9F7089554E0052F002309F4089509910E9431045A95D9F708951FB70F93CE
:202C40001F93BF93AF93DF93CF935F934F93FF93EF93022F0E94CE08052F402FCAE9D3E0C0
:202C60000E94B90DEF91FF914F915F91CF91DF91AF91BF911F910F911FBF08951FB70F9369
:202C80001F93BF93AF93DF93CF935F934F93FF93EF93022F0E947F09052F402FCAE9D3E0CE
:202CA0000E94F508EF91FF914F915F91CF91DF91AF91BF911F910F911FBF0895E0E0F0E0DA
:202CC0002091C00027FF00C0F6D81291309679F0F7CFE1EDFCE004E60E94AC08E1EDFCE0A3
:202CE0000081003220F005D010F08894089508940895CAE9D3E0AA2755270081003260F094
:202D00000E94CA09D0F312910E94BD0908F408950993A0275395F1CF052F88940895CAE92C
:202D2000D3E00E94B90D0895BF93AF9330E0A0E0B0E01A9902C03FEF0EC0119751F020911C
:202D4000C00027FFF6CF0091C6008894AF91BF9108950A9561F70894AF91BF910895469A88
:202D6000ABDA4698A9DA2091C00027FFF8CF0091C60008950E94EC08E7E9F0E40E94A20895
:202D8000003208F40895043509F430C00F93E3ECF0E40E94870808F408950F910134B9F0B5
:202DA000083409F0E7CFEDE8F1E0CAE9D3E0AA2755270081003280F00E94CA09D0F31291D1
:202DC0000E94BD09B8F20993A0275395F2CFCAE9D3E0EDE8F1E05DD0052F002359F20A2FC1
:202DE00009935395052F0093930332D04DD0BB27A1E717D8E4EDF0E40E94350808F4BACF71
:202E0000CF010E94EC0833D00EE20E94CE0800918E03002329F409E10E94B808C0F411C0AE
:202E20009F938F93CAE9D3E0A0E2B0E047DA63D104D220F4ECE5FAE3B9D901C0B5D98F91D8
:202E40009F91FC011291CF01309609F0DCCF92CF052FA0E70E9431045F93A1E7EAE9F3E055
:202E600001910E9431045A95D9F75F9108950CD05F93A1E7EAE9F3E00E943B0401935A953D
:202E8000D9F75F9119D00895A0E70E943B04502F0895AA2755270191003208F40895099322
:202EA000A0275395F8CFAA2701910993A0275A95D9F708950C94200EEAE9F3E0052F0023AF
:202EC00009F40895009393030E94470100916E00026000936E00789410D001911BD00091E9
:202EE00093030A95009393030023B9F7F89400916E000D7F00936E00089500919203502F47
:202F0000089413D05A95E1F70895EE240E2D0023E9F30895889409D0B8E0059506D0BA9599
:202F2000BB23D9F7089401D008950F935F930BB507FB2EF010F031E006C032E004C010F0B8
:202F4000169801C0169A50E1E0DF3EF0032F0523002311F4169801C0169A5A95A9F75F9114
:202F60000F91089501E803BD002703BD0895149A30E0F894B8E0FF24C0E0D5E0BE01CAEB19
:202F8000D3E0EE2455274427149844980027009394030A2FE02E70D060F400919403039511
:202FA000009394030233A8F3012F902F0A2F802F5EC021E0621B2227720B262F272B2223F2
:202FC00021F00A2F09930FEF0883042F043030F0AE3120F00F2DBFEF88940895A73020F082
:202FE0004395042F60D003C05395052F70D0032F002379F4042F023058F0A73008F0C9CFA1
:203000000E2D073030F4469A55D946983FE04427C0CF032F0F3F49F0052F0830C8F34DD018
:203020003FEF55274427B8E0B4CF0B2F5AD0052F023028F0A73018F05395442705C0042F54
:20304000043011F401E006C0052F083009F0A1CF002700C00795F794BA95BB2329F4449A85
:20306000AA2788940F2D0895552744278FCF149A469A0894149808951127AA271DD94698F5
:203080001A9B0BC00A2F002319F04698889408951395143690F308940895469AA395AE310F
:2030A00068F308940895002309F40895469A0F9346980F910A95D1F70895002309F40895FE
:2030C000449A0F9344980F910A95D1F70895002309F40895459A0F9345980F910A95D1F7CE
:2030E0000895002309F40895149A0F9314980F910A95D1F70895EAE9F3E0F894FF93EF9390
:203100000027D02E1DD0EF91FF913DED08F408950027D02E332446982ADF58F0BF3F29F404
:20312000A32D0D2D502F8894089501933026D394F3CFBE010D2D502F0894A32D3EEE08958D
:2031400058EC159A1398E8ECF0E00E9458111A9BFACF1291309609F0F8CF1598139AE0E958
:20316000F1E00E9458111A9B13C02091C00027FF02C0089408951291309609F0F2CF5A9547
:2031800071F71398159A0E94580F1598089408951398159A34E03A95332329F00E945B0FC6
:2031A0001A9BF9CF04C0159813988894089508940895159880E095E0CAEBD3E09F938F9346
:2031C000AF91BF91002709931197E9F70AE20E94CE08B6DFD8F3CAEBD3E0159AE2E0F0E0A7
:2031E0004BDF012FB02F0A2F20F41291309631F0F7CF09930197009609F0F2CF15980A2F8F
:20320000FF93EF93BF93AF93FE01AAEBB3E0EA1BFB0BAF91BF91CF91DF912CE44BDE88941F
:203220000895002309F408950F93159A2ED815982CD80F910A95F5CF0895002341F0032F06
:203240000E3E71F40A2F002359F488940895032F0D3D31F4CAEBD3E0BE0100270894089533
:203260000894089544980E94EC08E6EFF1E40E94E508EEE1F2E40E94E508E8E3F2E40E94F3
:20328000A20808F40895003208F40895093511F4289AE8CF0E3611F42898E4CFE4E6F0E00E
:2032A0000E94EC084F9B0FC0449ABAE00E9446114498BAE00E9446111291309651F0209184
:2032C000C00027FFEFCFEAE5F2E40E94E5088894089528984498ECE5FAE30E94E5080894E8
:2032E0000895EC1BFD0B18F43197E095F095AE17BF07089507E000937C0003E00068009358
:203300007A00006400937A00BAE000917A000074002331F00E944511BA95B9F70894089535
:20332000E0917800F09179008894089508B1007F0B6008B900ED0AD04398089508B1007F16
:203340000B6008B900EF02D043980895BF93AF93A4E0000F10F02F9802C02F9A00C00000CF
:203360002D9A00002D980000AA9599F700002D9AFF93EF93EF91FF912D980000E0E0F0E0B2
:20338000ACE000002D9A08941E9901C08894EE1FFF1F00002D98AA95A1F7AF91BF910895B6
:2033A000C5DF1F0144245524E0E4F0E03F01882499240E94EB0AE5E0F0E03F018824992456
:2033C0000E94EB0AE0E0F0E13F01882499240E94B60AF1010895B2DF1F0144245524E8E8C9
:2033E000F3E13F01882499240E94EB0AE0E0F0E13F01882499240E94B60AF10108957ADF35
:20340000A0913501B0913601EA1BFB0B1F0144245524E8E8F3E13F01882499240E94EB0ADD
:20342000EFEFF3E03F01882499240E94B60AE8EEF3E03F01882499240E94EB0AE0E6F4E04D
:203440003F01882499240E94B60AF1010895C1EDDAE0EEE3F1E0C193D19368DFC7E6D2E466
:2034600000E281D09DDFCDE6D2E40CE27CD066DFC6E7D2E40BE377D061DFCCE7D2E40CE286
:2034800072D038DFFF93EF93C8E8D2E40BE36BD0EF91FF91B5DFCEE8D2E40CE264D0E1ED30
:2034A000FAE00E94DC082091C00027FFD0CF0091C6000895E8EEF3E0CDE0D1E0E993F99373
:2034C00022243324210100270093300137DFA8ECB0E0EA17FB0740F1B4E60E944611C1ED93
:2034E000DAE0EEE3F1E0C193D19328DFFF93EF93CCE7D2E400E237D0E1EDFAE00E94DC081D
:20350000EF91FF913F0188249924260C371C481C591C009130010395009330010FDFA8ECF4
:20352000B0E0EA17FB07D0F7BAE00E944611CDE0D1E0E991F9911291CDE0D1E0E993F99333
:20354000309609F0C3CF00913001E02FF0E03F01882499240E94B60AF101EF01E4EAF2E4E8
:203560000E943D0C0895FF93EF93DF93CF93CEE3D1E0E991F9910193EF01EF91FF910E943F
:203580007508BE01EF91FF91A4E6B0E0EA17FB0728F4EF01FB010E944F0A0EC0A8EEB3E0C8
:2035A000EA17FB0728F4EF01FB010E94490A04C0EF01FB010E943D0A0DE00083CEE3D1E0A0
:2035C000E993F993089500CA9A3B00E1F5058096980040420F00A086010010270000E80344
:2035E0000000640000000A00000001000000FEFCF8F0E0C080001D2753BB76F1E2C4881063
:203600003D67D3A64C850A090F031B2B4B8B16317FE3C68C182D47932651BF7EE1C284087E
:203620000D07133B6BCB962C45972E419F3E61DFBE7CE5CA94284D870E011F235BAB56B1F1
:2036400062D9B264D5AA54B56AC9922455B76EC18204153773FBF6ECD8B060DDBA74F5EA79
:20366000D4A850BD7AE9D2A4488D1A294F8306113F63DBB66CC58A143577F3E6CC98307D4F
:20368000E7CE9C386DC78E1C2557B366D1A244952A498F1E215FA346912259AF5EA14299C4
:2036A0003279EFDEBC78EDDAB468CD9A3475F7EEDCB870FDFAF4E8D0A0409D3A69CF9E3C16
:2036C00065D7AE5CA54A8912396FC3860C0517337BEBD6AC58AD5AA952B972F9F2E4C8903A
:2036E000205DA74E8102192F439B3671FF0BD53A0000891112239B322446AD573665BF7417
:20370000488CC19D5AAFD3BE6CCAE5DB7EE9F7F88110080193331A22A5562C47B7753E64B9
:20372000C99C408DDBBF52AEEDDA64CBFFF976E802218B30100299132667AF763444BD5599
:203740004AADC3BC588ED19F6EEBE7FA7CC8F5D983310A2091121803A7772E66B5543C4579
:20376000CBBD42ACD99E508FEFFB66EAFDD874C904428D5316619F702004A9153227BB3659
:203780004CCEC5DF5EEDD7FC6888E1997AABF3BA85520C4397711E60A1142805B3373A2639
:2037A000CDDE44CFDFFD56ECE9986089FBBB72AA06638F7214409D512225AB343006B91719
:2037C0004EEFC7FE5CCCD5DD6AA9E3B8788AF19B87730E6295501C41A3352A24B1163807F9
:2037E000CFFF46EEDDDC54CDEBB962A8F99A708B088481951AA793B62CC2A5D33EE1B7F0D9
:203800004008C919522BDB3A644EED5F766DFF7C899400859BB712A6ADD224C3BFF136E0B8
:20382000C1184809D33B5A2AE55E6C4FF77D7E6C0AA583B4188691972EE3A7F23CC0B5D198
:203840004229CB38500AD91B666FEF7E744CFD5D8BB502A499961087AFF326E2BDD034C178
:20386000C3394A28D11A580BE77F6E6EF55C7C4D0CC685D71EE597F42880A1913AA3B3B258
:20388000444ACD5B5669DF78600CE91D722FFB3E8DD604C79FF516E4A9902081BBB332A238
:2038A000C55A4C4BD7795E68E11C680DF33F7A2E0EE787F61CC495D52AA1A3B03882B19318
:2038C000466BCF7A5448DD59622DEB3C700EF91F8FF706E69DD414C5ABB122A0B9923083F8
:2038E000C77B4E6AD5585C49E33D6A2CF11E780FB8F04D43553634342F537572652D4669DB
:203900007265322F4C696E65496E7465726661636520342E390D436D647320412C442C45C5
:203920002C527B497D2C492C442C582C502C572C3F0D2854726163696E67206F6E20555333
:2039400041525431290D27412720414443206368616E733B2027414D272046534B20726345
:20396000762D7369676E616C206176673B2027414927204C696E65206D410D4520496E7482
:203980002E454550524F4D20746573740D462046696E642048617368576F72647320696EB3
:2039A000204578742E466C73680D527B497D205265736574207B4945457D0D4920494F201F
:2039C00074657374730D442044756D70205352414D2C417070466C6173680D585B42505D70
:2039E00020586571204020616464720D4F204F534343414C206F6E207377697463682E0D43
:203A00005020506173732D54687275204D6F64650D5720586D742F5263762046534B20549B
:203A2000657374730D62206261756420746F2033382E344B0D3F2068656C700D2A0D2A2AB4
:203A40002A524F4D20484153482D54424C204241440D436D643F203A0D4F4B0D2A45525293
:203A60004F520D416464723A0D2A20554E494D504C454D454E544544202A0D436F6D6D6171
:203A80006E642D4D6F64652028592F6E29203F3A0D2B2B2B506173732D546872752B2B2B2C
:203AA0000D7A7A3D65786974207A733D53746174757320207A6C2C7A4C3D4C696E654F66AE
:203AC000662C4F4E2020204C696E654F6666416674657246697265287A6F3D416C776179F0
:203AE000732C7A4F3D4869676843757272656E74290D7A747B6E6E7D507265616D626C659E
:203B00004269747320207A723D726563656976654E414B20207A533D53696D756C6174655F
:203B200053772E2020207A483D53696D2D48657853772E0D7A642C7A443D44656275672F93
:203B400054726163654D6F64654F66662C4F4E20207A702C7A503D50726F6D7074734F6606
:203B6000662C4F4E20207A653D7B2E2E2E7D4563686F0D2A0D496620317374203220706B41
:203B8000742D63687273206172652027302D46272C20706B747320617265206865782D640F
:203BA00065636F6465642F656E636F6465642E0D53696D2043414E43454C2E0D2A41444448
:203BC000523F2A0D46637472792C4272644373742C496E616374762C537461742C507265FB
:203BE0002C41726D2C466972653A0D2B426C75654F7574204F4E210D2D426C75654F7574BD
:203C0000204F66660D457865637476652052455345540D496E6163746976650D5072652D44
:203C200041524D0D2A41524D45442A0D4669726520566F6C7473204C4F570D4649524521A9
:203C40000D4C696E65206D412C560D456E74657220706F727420412D443A0D506F727420B1
:203C600042697420302D37203F3A0D307C313F3A0D496E697420424C4B2042464652205922
:203C80003D696E63722D76616C732C20433D636C656172203F3A0D2342797465733A0D531B
:203CA00075726520592F6E203F3A0D496E74454550524F4D20496E6974207273742E0D2879
:203CC000422979746573206F7220285029726772706873203F3A0D23507267727068733A73
:203CE0000D4578742E466C6173682061646472205B484F5D7B68697D205B484F5D7B6C6FB2
:203D00007D2C204E6272507267732E0D2B2B2B204170702D526F6D204F4B0D2B2B2B205309
:203D2000656C662D526F6D204F4B0D2A2A2A205257572D524F4D204552520D2A2A2A41504C
:203D4000502D524F4D2048415348204C454E204552520D2A49454550524F4D2042552E2E51
:203D60002E0D2B2B2B2049454550524F4D204F4B0D49454550524F4D2D524553544F52452D
:203D8000205452592E2E2E0D2A2A2A2049454550524F4D2052535452204641494C210D2BBE
:203DA0002B2B20484153482D54424C204F4B0D2A2A2A20524F4D20484153482D54424C2094
:203DC000424144210D524553455420496E742E454550524F4D2028592F6E293F3A0D486194
:203DE000736828686578293A0D49454520496E69740D494545204861736828686578293A30
:203E00000D494545204261636B7570730D2A494545204552524F520D4170702D526F6D207C
:203E2000454E443A0D454F492D7363616E2D2D3E4E6272427974657320592F6E3F3A0D4216
:203E40004F4F544C4F4144455220402027483535323936203D20276935353239360D4E62EA
:203E600072526563647320696E206C6F61643A0D43686B53756D28686578293A0D4861739D
:203E8000682028532952414D2C2849296E74454550524F4D2C2841297070466C6173682CEE
:203EA0002845297874536572466C7368203F3A0D28532952414D2C204170702D2846296C02
:203EC000617368203F3A0D4E6272205067727068733F3A0D416464723F204868686C6C7C7E
:203EE0004F6262627070707C64646464643A0D586571746720403A0D454F492F4873685710
:203F000072642053544152543F0D4861736857726420403A0D4E5A433D7820413D6868204B
:203F200044323D68686C6C2048323D68686C6C20423D686820433D68682044453D68686CA6
:203F40006C20484C3D68686C6C0D202020202020702071202072207320207420752020764A
:203F600020772020782079202067206B20206D206E2031352C31340D202020202020662082
:203F800061207468746C202069206A20206432202020683220202062206320206420652053
:203FA0002068206C0D424320444520484C3A0D414620424320444520484C3A0D50572043DD
:203FC0006F756E74733A0D285329616D706C6520527864202020284D2965617375726520BD
:203FE00042697454696D65732020284329616C576169747320202020202849296E74657204
:2040000072757074735B426974456467655D0D285229656365697665427974652020287287
:20402000296563656976652D7061636B6574202020202845296E7465725061636B657420FA
:204040002028542972616E736D69740D284129646472657373456E747279202870297265AF
:20406000616D626C65202020202020202020202858296D74506B742026205263765265738B
:20408000706F6E7365203F3A0D2A0D4D6F6E69746F72205043360D28412953434949206FF7
:2040A0007220284829455820656E7472792C20285429726E736D745361766564506B74207F
:2040C0003F3A0D456E74657220506B742D42797465733A0D4E627220506B74586D74732055
:2040E00028312D3635303030293F3A0D4E627220506B74526376732028312D3635303030E0
:20410000293F3A0D507265616D626C65204269742D54696D657320322D33303F3A0D2A5375
:20412000484F5254204F52204E4F20504B540D4F6C6420416464723A0D48657853776974DB
:204140006368416464722028652E672E2027313620334620344127292C2075736520276F2E
:20416000276C64203F3A0D506B74547970653F20284929646C65202853297461747573208E
:20418000285029726541726D20284129726D20284629697265202866296163746F72794353
:2041A0006D64203F3A0D4E627220474F4F443A0D2A43484B53554D2D4552520D43686B7335
:2041C000756D457272733A0D54696D656F7574733A0D2A54696D654F75740D466374727973
:2041E0004D6F6465204F66660D46637472794D6F6465204F4E0D436F6E6E656374207377C7
:204200006974636827732055322D39285041342920746F204C495343205044372E0D2A207B
:204220004173737572652049535020444953434F4E4E454354442E0D4C696E65204F4E2F02
:204240004F666620592F6E2C20656C736520277327746172743A0D573A0D4F534343414C02
:2042600020646F6E652E0D414443303D0D4C696E655B565D3D0D414443313D0D5646534B9E
:20428000706B5B6D565D3D0D414443373D0D496C696E655B6D415D3D0D2A4C494E452D4FC6
:2042A00046462A0D567369674176673D0D012345AA32303132333435414133320D0AAAAA74
:2042C00020202020202020200DAAAAAA578F000000000000000000000000000000000000ED
:2042E0000000000000000000000000000000000000000000000000000000000000000000BE
:2043000000000000000000000000000000000000000000000000000000000000000000009D
:2043200000000000000000000000000000000000000000000000000000000000000000007D
:2043400000000000000000000000000000000000000000000000000000000000000000005D
:2043600000000000000000000000000000000000000000000000000000000000000000003D
:00000001FF
