:200000005FC00FC019C018C017C016C015C014C013C013C011C010C00000000000000000A4
:200020000000E0903F000F93EF920FEF03BBEF900F91E0923F0018951895E0903F000F93B7
:20004000EF920FEF04BBEF900F91E0923F00189505B7036005BF0BB700640BBF002702BF2A
:2000600003BB08950BB70F7B0BBF089502E000BF02E003BF08E106BF002702BF04BB08953B
:2000800009B702E009BF089509B70D7F09BF089500000000000000000000000000000000A8
:2000A000000000000000000000000000000000000000000000000000000000000000000040
:2000C000F8942FED2DBF002702BB00BF03BF0FBD04B70093610061D200270CBB0FBB08E1D8
:2000E00008BB00E007BB02E80BBB00E70ABBDA9ADC98DD98DE98A4EFB1E043D2AFE7B0E00D
:20010000E6D10F3F69F4A8E0EAE0F0E0B0D1A4E0FF27EE27ACD1ABD1AFE7B0E00027CDD137
:2001200032E027E80DD305E098D1E4EEF7E0EBD24CD162D166D1A0E0B7D1002351F093D0B4
:2001400008F407D0CF9B05C0BBCFA0E00FEFA1D1EACFDC98DD98DE98CF9BFBCFA0E0A4D1E2
:20016000C02FD0E004E421D2EBEFF7E0CCD2EAE2F8E0C9D208ECE3D2032F003051F3ACD2AA
:20018000F02E0F2D013309F30F2D043309F4FCD00F2D023309F421D00F2D033309F424D0D7
:2001A0000F2D053309F427D00F2D063309F4C3D10F2D073309F426D00F2D083309F426D0FE
:2001C0000F2D093309F434D00F2D013409F408D10F2D053409F423D1BCCFDC9AC4D1DC98EF
:2001E000C2D1CF99FACF0895DD9ABDD1DD98BBD1CF99FACF0895DE9AB6D1DE98B4D1CF9968
:20020000FACF0895A0E0002744D1089528D0E9E8F8E079D21DDF789403B30023E9F300274F
:2002200003BBDE9A86D1DE98CF99F6CFF894089516D01CDF09B7026009BF789404B30023B4
:20024000E9F3002704BBDE9A000000000000DE98CF99F4CFF89409B70D7F09BF0895EBE5B6
:20026000F8E051D20895DE9AA8EEB3E08AD1002700936600E6E9F8E083D00FE32DD200E1FE
:200280005ED2032F0B3129F408940895A8EEB3E078D17ED0A8EBBBE0EA17FB0710F44C0D1C
:2002A00006C0A8E9BAE3EA17FB0788F008E400916600039500936600043140F3EDEAF8E044
:2002C00022D2CF9B01C0CFCFF89408940895E4EAF8E03CD0002700936600C8DEB9DE789481
:2002E000CF9BF2CF01E803BD002703BB03B30023E9F3002703BD09B7026009BFDE98DC9AD3
:20030000DD98002704BB04B30023E9F3DC98DD9A002704BB04B30023E9F3DD98DC9A002733
:2003200004BB04B30023E9F3DC98DD9A002704BB04B30023E9F3DD98DC98DE9A09B70D7F14
:2003400009BFCECF88940895C7D10895DCD108950FE3C2D104E0F3D1032F0B3111F40894C4
:200360000895889408950FE3B7D104E0E8D1032F0F930EE2B1D10F910B3109F0089542CF47
:2003800010D008F4C0D1089503D0E6D0E9F70895A6D0FF93EF93EF0106E511D1EF91FF91F6
:2003A0000895A0E081D00F3F889409F4089508940895F894C8E6D0E0E991F991A4E057D0F9
:2003C000E991F99154D078940895F894C8E6D0E0A4E054E069D009935A95E1F77894089565
:2003E000B29B05C0B299FECFDE9A06D0DE98CF99F7CF15D006D00895E8E6F0E020D0D9DF43
:2004000008958FD1A4E037D0EF010EE4CED0A4E0A395A39530D0EF010DE4C7D0089581D179
:20042000A0E0B0E050E1E0E8F0E051D0D7D000E201935A95D1F70DE000836CD10895BF9352
:20044000AF93A4E0B1E0889400810B1F0193BB27AA95D1F7AF91BF910895502FDE9ABAEF34
:2004600083D0DE98BAEF80D05A95C1F708950E2F10D00F2F0EC018D0E02F16D0F02F0895B4
:2004800026D0E02F24D0F02F08950E2F16D00F2F14C0BB27E199FECFBFBBAEBB0DBBE29A22
:2004A000E19A0DBBA3950895BB27E199FECFBFBBAEBBE09A0DB3A3950895E199FECFBFBB48
:2004C000AEBB0DBBE29AE19A0DBB11960895E199FECFBFBBAEBBE09A0DB31196089509E057
:2004E00001B90ED00DD0EE0FFF1FEE0FFF1FEE0FFF1FEE0FFF1FEE0FFF1F889408950895AA
:2005000003E007B903E0006806B9006406B9BAE006B10074002329F008D0BA95C9F7089487
:200520000895E4B1F5B188940895BF9302D0BF910895B1E019C006B30470002319F026E44C
:20054000FDD000C009B30078002311F024E5F6D003D009F40895EFCF04E0F1D0032F0B31A9
:200560000895B02F01C0B1E00EE40A95002329F0BF93AF93AF91BF91F8CFBA95BB23A1F730
:2005800008950B2F0A2B002309F40895BF93AF93EADFAF91BF911197F4CF002704BF01B59A
:2005A000086101BD002701BD0895E0E8F0E001930DE301930ED00DE00193ACD00895E0E8A2
:2005C000F0E001930DE3019361D00DE00193A2D008950D2F03D00C2F01D00895302F0695C0
:2005E00006950695069503D0032F01D008950F700A3010F027E0020F20E3020F01930895A1
:200600000CD008F40895000F000F000F000FA02F04D008F408950A2B08950191003308F45A
:2006200008950A3340F0013408F40895073430F401542AE0020F0F708894089508940895A2
:2006400055E0E0E0F0E00881003308F408950A3308F008950053AE2FBF2FEE0FFF1FEE0F78
:20066000FF1FEA0FFB1FEE0FFF1F0E0FE02F00270F1FF02F21965A9531F70895C02FD0E084
:2006800011C0C02FD0E0043698F00CC0A0E1B7E21AD020E3020F0193A8EEB3E014D020E3A0
:2006A000020F0193A4E6B0E00ED020E3020F0193AAE0B0E008D020E3020F01930C2F20E31D
:2006C000020F019308950027CA1BDB0B10F00395FBCFCA0FDB1F0895E0903F000F93EF9242
:2006E000FF93EF93DF93CF93BF93AF93202F26D0AF91BF91CF91DF91EF91FF91EF900F91AA
:20070000E0923F000895C895002D3196003248F0E3DFF9CFE0E8F0E00191003210F0DCDF2F
:20072000FBCFE0903F000F93EF920AE0D5DF0DE0D3DFEF900F91E0923F00089503C017C0D9
:2007400039C040C008E0DA9830D02FD0269510F0DA9802C0DA9A00C028D027D00A95B1F7EE
:2007600001E0DA9A22D021D00A95E1F7089530916100AFEFBFE3C99B0AC011971A2F1B2B66
:20078000D1F73A95B1F70A9591F7089408950DD008E00BD00AD00894C99B889437950A95B9
:2007A000C1F703D002D088940895109160001A95F1F70895D29AD198DA9A209360003093CF
:2007C000610008950AE0D3DFE8F3232FBBDF3B31C9F7089520916200B5DF0895C8DF309341
:2007E0006300089552422D5452414E534D49545445522056657220302E350D313D52657336
:2008000074727420323D513270756C736520333D513370756C736520353D51342C357075A9
:200820006C736520343D4144430D363D4D6F6E69746F72464952504C5320373D44656275CF
:20084000674F4E20383D494E54307465737420393D4F43523041746573740D576174636875
:20086000205041362F4453312E20476E6420706F7274615B375D2855312D36292073746F4E
:20088000707320746573742E0D50756C736520464952504C530D4379636C696E67205354C4
:2008A0004152540D566F6C7473204F4B0D2A2A2A204C494E4520564F4C5453204552520DD1
:2008C0000D000000000000000000000000000000000000000000000000000000000000000B
:2008E0000000000000000000000000000000000000000000000000000000000000000000F8
:20090000FFFFFFFFFFFFFFFFFFFFFFFFFFFFFFFFFFFFFFFFFFFFFFFFFFFFFFFFFFFFFFFFF7
:20092000FFFFFFFFFFFFFFFFFFFFFFFFFFFFFFFFFFFFFFFFFFFFFFFFFFFFFFFFFFFFFFFFD7
:20094000FFFFFFFFFFFFFFFFFFFFFFFFFFFFFFFFFFFFFFFFFFFFFFFFFFFFFFFFFFFFFFFFB7
:20096000FFFFFFFFFFFFFFFFFFFFFFFFFFFFFFFFFFFFFFFFFFFFFFFFFFFFFFFFFFFFFFFF97
:20098000FFFFFFFFFFFFFFFFFFFFFFFFFFFFFFFFFFFFFFFFFFFFFFFFFFFFFFFFFFFFFF0076
:2009A000000000000000000000000000000000000000000000000000000000000000000037
:2009C000E0E0E1E1E2E2E3E3E4E4E5E5E6E6E7E7E8E8E9E9EAEAEBEBECECEDEDEEEEEFEF27
:2009E000F0F0F1F1F2F2F3F3F4F4F5F5F6F6F7F7F8F8F9F9FAFAFBFBFCFCFDFDFEFEFFFF07
:200A000000000101020203030404050506060707080809090A0A0B0B0C0C0D0D0E0E0F0FE6
:200A200010101111121213131414151516161717181819191A1A1B1B1C1C1D1D1E1E1F1FC6
:200A400020202121222223232424252526262727282829292A2A2B2B2C2C2D2D2E2E2F2FA6
:200A600030303131323233333434353536363737383839393A3A3B3B3C3C3D3D3E3E3F3F86
:200A8000FFFFFFFFFFFFFFFFFFFFFFFFFFFFFFFFFFFFFFFFFFFFFFFFFFFFFFFFFFFFFFFF76
:200AA000FFFFFFFFFFFFFFFFFFFFFFFFFFFFFFFFFFFFFFFFFFFFFFFFFFFFFFFFFFFFFFFF56
:200AC00060606161626263636464656566666767686869696A6A6B6B6C6C6D6D6E6E6F6F26
:200AE00070707171727273737474757576767777787879797A7A7B7B7C7C7D7D7E7E7F7F06
:200B000080808181828283838484858586868787888889898A8A8B8B8C8C8D8D8E8E8F8FE5
:200B200090909191929293939494959596969797989899999A9A9B9B9C9C9D9D9E9E9F9FC5
:200B400000000000000000000000000000000000A8A8A9A9AAAAABABACACADADAEAEAFAFDD
:200B6000B0B0B1B1B2B2B3B3B4B4B5B5B6B6B7B7B8B8B9B9BABABBBBBCBCBDBDBEBEBFBF85
:200B8000C0C0C1C1C2C2C3C3C4C4C5C5C6C6C7C7C8C8C9C9CACACBCBCCCCCDCDCECECFCF65
:200BA000D0D0D1D1D2D2D3D3D4D4D5D5D6D6D7D7D8D8D9D9DADADBDBDCDCDDDDDEDEDFDF45
:200BC000E0E0E1E1E2E2E3E3E4E4E5E5E6E6E7E7E8E8E9E9EAEAEBEBECECEDEDEEEEEFEF25
:200BE000F0F0F1F1F2F2F3F3F4F4F5F5F6F6F7F7F8F8F9F9FAFAFBFBFCFCFDFDFEFEFFFF05
:200C000000000101020203030404050506060707080809090A0A0B0B0C0C0D0D0E0E0F0FE4
:200C200010101111121213131414151516161717181819191A1AFFFFFDFFFFFFFFFFFFFFF2
:200C4000FFFFFFFFFFFFFFFFFFFFFFFFFFFFFFFFFFFFFFFFFFFFFFFFFFFFFFFFFFFFFFFFB4
:200C6000FFFFFFFFFFFFFFFFFFFDFFF5FFFE77FFF87839393A3A3B3B3C3C3D3D3E3E3F3F61
:200C800040404141424243434444454546464747484849494A4A4B4B4C4C4D4D4E4E4F4F64
:200CA00050505151525253535454555556565757585859595A5A5B5B5C5C5D5D5E5E5F5F44
:200CC00060606161626263636464656566666767686869696A6A6B6B6C6C6D6D6E6E6F6F24
:200CE00070707171727273737474757576767777787879797A7A7B7B7C7C7D7D7E7E7F7F04
:200D000080808181828283838484858586868787888889898A8A8B8B8C8C8D8D8E8E8F8FE3
:200D200090909191929293939494959596969797989899999A9A9B9B9C9C9D9D9E9E9F9FC3
:200D4000A0A0A1A1A2A2A3A3A4A4A5A5A6A6A7A7A8A8A9A9AAAAABABACACADADAEAEAFAFA3
:200D6000B0B0B1B1B2B2B3B3B4B4B5B5B6B6B7B7B8B8B9B9BABABBBBBCBCBDBDBEBEBFBF83
:200D8000C0C0C1C1C2C2C3C3C4C4C5C5C6C6C7C7C8C8C9C9CACACBCBCCCCCDCDCECECFCF63
:200DA000D0D0D1D1D2D2D3D3D4D4D5D5D6D6D7D7D8D8D9D9DADADBDBDCDCDDDDDEDEDFDF43
:200DC000E0E0E1E1E2FEFFFFFFFFFFFFFFFFFFFFFFFFFFFFFFFFFFFFFFFFFFFFFFFFFFFFCB
:200DE000FFFFFFFFFFFFFFFFFFFFFFFFFFFFFFFFFFFFFFFFFFFFFFFFFFFFFFFFFFFFFFFF13
:200E000000000101020203030404050506060707080809090A0A0B0B0C0C0D0D0E0E0F0FE2
:200E200010101111121213131414151516161717181819191A1A1B1B1C1C1D1D1E1E1F1FC2
:200E400020202121222223232424252526262727282829292A2A2B2B2C2C2D2D2E2E2F2FA2
:200E600030303131323233333434353536363737383839393A3A3B3B3C3C3D3D3E3E3F3F82
:200E800040404141424243434444454546464747484849494A4A4B4B4C4C4D4D4E4E4F4F62
:200EA00050505151525253535454555556565757585859595A5A5B5B5C5C5D5D5E5E5F5F42
:200EC00060606161626263636464656566666767686869696A6A6B6B6C6C6D6D6E6E6F6F22
:200EE00070707171727273737474757576767777787879797A7A7B7B7C7C7D7D7E7E7F7F02
:200F000080808181828283838484858586868787888889898A8A8B8B8C8C8D8D8E8E8F8FE1
:200F200090909191929293939494959596969797989899999A9A9B9B9C9C9D9D9E9E9F9FC1
:200F4000A0A0A1A1A2A2A3A3A4A4A5A5A6A6A7A7A8A8A9A9AAAAABABACACADADAEAEAFAFA1
:200F6000B0B0B1B1B2B2B3B3B4B4B5B5B6B6B7B7B8B8B9B9BABABBBBBCBCBDBDBEBEBFBF81
:200F8000FFFFFFFFFFFFFFFFFFFFFFFFFFFFFFFFFFFFFFFFFFFFFFFFFFFFFFFFFFFFFFFF71
:200FA000FFFFFFFFFFFFFFFFFFFFFFFFFFFFFFFFFFFFFFFFFFFFFFFFFFFFFFFFFFFFFFDF71
:200FC000E0E0E1E1E2E2E3E3E4E4E5E5E6E6E7E7E8E8E9E9EAEAEBEBECECEDEDEEEEEFEF21
:200FE000F0F0F1F1F2F2F3F3F4F4F5F5F6F6F7F7F8F8F9F9FAFAFBFBFCFCFDFDFEFEFFFF01
:2010000000000101020203030404050506060707080809090A0A0B0B0C0C0D0D0E0E0F0FE0
:2010200010101111121213131414151516161717181819199A1A1B1B1C1C1D1D1E1E1F1F40
:2010400020202121222223232424252526262727282829292A2A2B2B2C2C2D2D2E2E2F2FA0
:2010600030303131323233333434353536363737383839393A3A3B3B3C3C3D3D3E3E3F3F80
:2010800040404141424243434444454546464747484849494A4A4B4B4C4C4D4D4E4E4F4F60
:2010A00050505151525253535454555556565757585859595A5A5B5B5C5C5D5D5E5E5F5F40
:2010C00060606161626263636464656566666767686869696A6A6B6B6C6C6D6D6E6E6F6F20
:2010E00070707171727273737474757576767777787879797A7A7B7B7C7C7D7D7E7E7F7F00
:2011000080808181828283838484858586868787888889898A8A8B8B8C8CCFFFFFFFFFFF69
:20112000FFFFFFFFFFFFFFFFFFFFFFFFFFFFFFFFFFFFFFFFFFFFFFFFFFFFFFFFFFFFFFFFCF
:20114000FFFFFFFFFFFFFFFFFFFFFFFFFFFEEFBFABBFFFFBEAEBABABACACADADAEAEAFAFF5
:20116000B0B0B1B1B2B2B3B3B4B4B5B5B6B6B7B7B8B8B9B9BABABBBBBCBCBDBDBEBEBFBF7F
:20118000C0C0C1C1C2C2C3C3C4C4C5C5C6C6C7C7C8C8C9C9CACACBCBCCCCCDCDCECECFCF5F
:2011A000D0D0D1D1D2D2D3D3D4D4D5D5D6D6D7D7D8D8D9D9DADADBDBDCDCDDDDDEDEDFDF3F
:2011C000E0E0E1E1E2E2E3E3E4E4E5E5E6E6E7E7E8E8E9E9EAEAEBEBECECEDEDEEEEEFEF1F
:2011E000F0F0F1F1F2F2F3F3F4F4F5F5F6F6F7F7F8F8F9F9FAFAFBFBFCFCFDFDFEFEFFFFFF
:2012000000000101020203030404050506060707080809090A0A0B0B0C0C0D0D0E0E0F0FDE
:2012200010101111121213131414151516161717181819191A1A1B1B1C1C1D1D1E1E1F1FBE
:2012400020202121222223232424252526262727282829292A2A2B2B2C2C2D2D2E2E2F2F9E
:2012600030303131323233333434353536363737383839393A3A3B3B3C3C3D3D3E3E3F3F7E
:2012800040404141424243434444454546464747484849494A4A4B4B4C4C4D4D4E4E4F4F5E
:2012A00050505151525253535454555556565757585859595A5A5B5B5C5C5D5D5E5E5F5F3E
:2012C000FFFFFFFFFFFFFFFFFFFFFFFFFFFFFFFFFFFFFFFFFFFFFFFFFFFFFFFFFFFFFFFF2E
:2012E000FFFFFFFFFFFFFFFFFFFFFFFFFFFFFFFFFFFFFFFFFFFFFFFFFFFFFFFFFFFFFFFF0E
:2013000080808181828283838484858586868787888889898A8A8B8B8C8C8D8D8E8E8F8FDD
:2013200090909191929293939494959596969797989899999A9A9B9B9C9C9D9D9E9E9F9FBD
:20134000A0A0A1A1A2A2A3A3A4A4A5A5A6A6A7A7A8A8A9A9AAAAABABACACADADAEAEAFAF9D
:20136000B0B0B1B1B2B2B3B3B4B4B5B5B6B6B7B7B8B8B9B9BABABBBBBCBCBDBDBEBEBFBF7D
:20138000C0C0C1C1C2C2C3C3C4C4C5C5C6C6C7C7C8C8C9C9CACACBCBCCCCCDCDCECECFCF5D
:2013A000D0D0D1D1D2D2D3D3D4D4D5D5D6D6D7D7D8D8D9D9DADADBDBDCDCDDDDDEDEDFDF3D
:2013C000E0E0E1E1E2E2E3E3E4E4E5E5E6E6E7E7E8E8E9E9EAEAEBEBECECEDEDEEEEEFEF1D
:2013E000F0F0F1F1F2F2F3F3F4F4F5F5F6F6F7F7F8F8F9F9FAFAFBFBFCFCFDFDFEFEFFFFFD
:2014000000000101020203030404050506060707080809090A0A0B0B0C0C0D0D0E0E0F0FDC
:2014200010101111121213131414151516161717181819191A1A1B1B1C1C1D1D1E1E1F1FBC
:2014400020202121222223232424252526262727282829292A2A2B2B2C2C2D2D2E2E2F2F9C
:20146000303031313232333334343535363637373838FFFFFFFBFFFFFFFFFFFFFFFFFFFFD6
:20148000FFFFFFFFFFFFFFFFFFFFFFFFFFFFFFFFFFFFFFFFFFFFFFFFFFFFFFFFFFFFFFFF6C
:2014A000FFFFFD57525253535454555556565757585859595A5A5B5B5C5C5D5D5E5E5F5F2C
:2014C00060606161626263636464656566666767686869696A6A6B6B6C6C6D6D6E6E6F6F1C
:2014E00070707171727273737474757576767777787879797A7A7B7B7C7C7D7D7E7E7F7FFC
:2015000080808181828283838484858586868787888889898A8A8B8B8C8C8D8D8E8E8F8FDB
:2015200090909191929293939494959596969797989899999A9A9B9B9C9C9D9D9E9E9F9FBB
:20154000A0A0A1A1A2A2A3A3A4A4A5A5A6A6A7A7A8A8A9A9AAAAABABACACADADAEAEAFAF9B
:20156000B0B0B1B1B2B2B3B3B4B4B5B5B6B6B7B7B8B8B9B9BABABBBBBCBCBDBDBEBEBFBF7B
:20158000C0C0C1C1C2C2C3C3C4C4C5C5C6C6C7C7C8C8C9C9CACACBCBCCCCCDCDCECECFCF5B
:2015A000D0D0D1D1D2D2D3D3D4D4D5D5D6D6D7D7D8D8D9D9DADADBDBDCDCDDDDDEDEDFDF3B
:2015C000E0E0E1E1E2E2E3E3E4E4E5E5E6E6E7E7E8E8E9E9EAEAEBEBECECEDEDEEEEEFEF1B
:2015E000F0F0F1F1F2F2F3F3F4F4F5F5F6F6F7F7F8F8F9F9FAFAFBFBFCFCFDFDFEFEFFFFFB
:20160000FFFFFFFFFFFFFFFFFFFFFFFFFFFFFFFFFFFFFFFFFFFFFFFFFFFFFFFFFFFFFFFFEA
:20162000FFFFFFFFFFFFFFFFFFFFFFFFFFFFFFFFFFFFFFFFFFFFFFFFFFFFFFFFFFFFFFFFCA
:2016400020202121222223230000000000000000000000000000000000000000000000007E
:2016600000000000000000000000000000000037383839393A3A3B3B3C3C3D3D3E3E3F3F7B
:2016800040404141424243434444454546464747484849494A4A4B4B4C4C4D4D4E4E4F4F5A
:2016A00050505151525253535454555556565757585859595A5A5B5B5C5C5D5D5E5E5F5F3A
:2016C00060606161626263636464656566666767686869696A6A6B6B6C6C6D6D6E6E6F6F1A
:2016E00070707171727273737474757576767777787879797A7A7B7B7C7C7D7D7E7E7F7FFA
:2017000080808181828283838484858586868787888889898A8A8B8B8C8C8D8D8E8E8F8FD9
:2017200090909191929293939494959596969797989899999A9A9B9B9C9C9D9D9E9E9F9FB9
:20174000A0A0A1A1A2A2A3A3A4A4A5A5A6A6A7A7A8A8A9A9AAAAABABACACADADAEAEAFAF99
:20176000B0B0B1B1B2B2B3B3B4B4B5B5B6B6B7B7B8B8B9B9BABABBBBBCBCBDBDBEBEBFBF79
:20178000C0C0C1C1C2C2C3C3C4C4C5C5C6C6C7C7C8C8C9C9CACACBCBCCCCCDCDCECECFCF59
:2017A000D0D0D1D1D2D2D3D3D4D4D5D5D6D6D7D7D8D8D9D9DADADBDBDCDCDDDDDEDEDFDF39
:2017C000FFFFFFFFFFFFFFFFFFFFFFFFFFFFFFFFFFFFFFFFFFFFFFFFFFFFFFFFFFFFFFFF29
:2017E000FFFFFFFFFFFFFFFFFFFFFFFFFFFFFFFFFFFFFFFBFFFBFBFBFDFCFDFDFEFEFFFF24
:2018000000000101020203030404050506060707080809090A0A0B0B0C0C0D0D0E0E0F0FD8
:2018200010101111121213131414151516161717181819191A1A1B1B1C1C1D1D1E1E1F1FB8
:2018400020202121222223232424252526262727282829292A2A2B2B2C2C2D2D2E2E2F2F98
:2018600030303131323233333434353536363737383839393A3A3B3B3C3C3D3D3E3E3F3F78
:2018800040404141424243434444454546464747484849494A4A4B4B4C4C4D4D4E4E4F4F58
:2018A00050505151525253535454555556565757585859595A5A5B5B5C5C5D5D5E5E5F5F38
:2018C00060606161626263636464656566666767686869696A6A6B6B6C6C6D6D6E6E6F6F18
:2018E00070707171727273737474757576767777787879797A7A7B7B7C7C7D7D7E7E7F7FF8
:2019000080808181828283838484858586868787888889898A8A8B8B8C8C8D8D8E8E8F8FD7
:2019200090909191929293939494959596969797989899999A9A9B9B9C9C9D9D9E9E9F9FB7
:20194000A0A0A1A1A2A2A3A3A4A4A5BFFFBFFFFFFFFFFFFFFFFFFFFFFFFFFFFFFFFFFFFF23
:20196000FFFFFFFFFFFFFFFFFFFFFFFFFFFFFFFFFFFFFFFFFFFFFFFFFFFFFFFFFFFFFFFF87
:20198000D0C0C3C1C2C2C3C3C4C4C5C5C6C6C7C7C8C8C9C9CACACBCBCCCCCDCDCECECFCF45
:2019A000D0D0D1D1D2D2D3D3D4D4D5D5D6D6D7D7D8D8D9D9DADADBDBDCDCDDDDDEDEDFDF37
:2019C000E0E0E1E1E2E2E3E3E4E4E5E5E6E6E7E7E8E8E9E9EAEAEBEBECECEDEDEEEEEFEF17
:2019E000F0F0F1F1F2F2F3F3F4F4F5F5F6F6F7F7F8F8F9F9FAFAFBFBFCFCFDFDFEFEFFFFF7
:201A000000000101020203030404050506060707080809090A0A0B0B0C0C0D0D0E0E0F0FD6
:201A200010101111121213131414151516161717181819191A1A1B1B1C1C1D1D1E1E1F1FB6
:201A400020202121222223232424252526262727282829292A2A2B2B2C2C2D2D2E2E2F2F96
:201A600030303131323233333434353536363737383839393A3A3B3B3C3C3D3D3E3E3F3F76
:201A800040404141424243434444454546464747484849494A4A4B4B4C4C4D4D4E4E4F4F56
:201AA00050505151525253535454555556565757585859595A5A5B5B5C5C5D5D5E5E5F5F36
:201AC00060606161626263636464656566666767686869696A6A6B6B6C6C6D6D6E6E6F6F16
:201AE00070707171727273737474757576767777787879797A7A7B7B7C7C7D7D7E7E7F7FF6
:201B0000FFFFFFFFFFFFFFFFFFFFFFFFFFFFFFFFFFFFFFFFFFFFFFFFFFFFFFFFFFFFFFFFE5
:201B2000FFFFFFFFFFFFFFFFFFFFFFFFFFFFFFFFFFFFFFFFFFFFFFFFFFFFFFFFFFFFFFFFC5
:201B4000A0A0A1A1A2A2A3A3A4A4A5A5A6A6A7A7A8A8A9A9AAAAABABACACADADAEAEAFAF95
:201B6000B0B0B1B1B2B2B3B3B4B4B5B5B6B6B7B7B8B8B9B9BABABBBBBCBCBDBDBEBEBFBF75
:201B8000C0C0C1C1C2C2C3C3C4C4C5C5C6C6C7C7C8C8C9C9CACACBCBCCCCCDCDCECECFCF55
:201BA000D0D0D1D1D2D2D3D3D4D4D5D5D6D6D7D7D8D8D9D9DADADBDBDCDCDDDDDEDEDFDF35
:201BC000E0E0E1E1E2E2E3E3E4E4E5E5E6E6E7E7E8E8E9E9EAEAEBEBECECEDEDEEEEEFEF15
:201BE000F0F0F1F1F2F2F3F3F4F4F5F5F6F6F7F7F8F8F9F9FAFAFBFBFCFCFDFDFEFEFFFFF5
:201C000000000101020203030404050506060707080809090A0A0B0B0C0C0D0D0E0E0F0FD4
:201C200010101111121213131414151516161717181819191A1A1B1B1C1C1D1D1E1E1F1FB4
:201C400020202121222223232424252526262727282829292A2A2B2B2C2C2D2D2E2E2F2F94
:201C600030303131323233333434353536363737383839393A3A3B3B3C3C3D3D3E3E3F3F74
:201C800040404141424243434444454546464747484849494A4A4B4B4C4C4D4D4E4E4F4F54
:201CA000FFFFF7DFFFFFFFFFFFFFFFFFFFFFFFFFFFFFFFFFFFFFFFFFFFFFFFFFFFFFFFFF6C
:201CC000FFFFFFFFFFFFFFFFFFFFFFFDFFFFFFFFFD6869696A6A6B6B6C6C6D6D6E6E6F6FC9
:201CE00070707171727273737474757576767777787879797A7A7B7B7C7C7D7D7E7E7F7FF4
:201D000080808181828283838484858586868787888889898A8A8B8B8C8C8D8D8E8E8F8FD3
:201D200090909191929293939494959596969797989899999A9A9B9B9C9C9D9D9E9E9F9FB3
:201D4000A0A0A1A1A2A2A3A3A4A4A5A5A6A6A7A7A8A8A9A9AAAAABABACACADADAEAEAFAF93
:201D6000B0B0B1B1B2B2B3B3B4B4B5B5B6B6B7B7B8B8B9B9BABABBBBBCBCBDBDBEBEBFBF73
:201D8000C0C0C1C1C2C2C3C3C4C4C5C5C6C6C7C7C8C8C9C9CACACBCBCCCCCDCDCECECFCF53
:201DA000D0D0D1D1D2D2D3D3D4D4D5D5D6D6D7D7D8D8D9D9DADADBDBDCDCDDDDDEDEDFDF33
:201DC000E0E0E1E1E2E2E3E3E4E4E5E5E6E6E7E7E8E8E9E9EAEAEBEBECECEDEDEEEEEFEF13
:201DE000F0F0F1F1F2F2F3F3F4F4F5F5F6F6F7F7F8F8F9F9FAFAFBFBFCFCFDFDFEFEFFFFF3
:201E000000000101020203030404050506060707080809090A0A0B0B0C0C0D0D0E0E0F0FD2
:201E200010101111121213131414151516161717181819191A1A1B1B1C1C1D1D1E1E1F1FB2
:201E4000FFFFFFFFFFFFFFFFFFFFFFFFFFFFFFFFFFFFFFFFFFFFFFFFFFFFFFFFFFFFFFFFA2
:201E6000FFFFFFFFFFFFFFFFFFFFFFFFFFFFFFFFFFFFFFFFFFFFFFFFFFFFFFFFFFFFFFFF82
:201E800040404141424243434444454546464747484849494A4A4B4B4C4C4D4D4E4E4F4F52
:201EA00050505151525253535454555556565757585859595A5A5B5B5C5C5D5D5E5E5F5F32
:201EC00060606161626263636464656566666767686869696A6A6B6B6C6C6D6D6E6E6F6F12
:201EE00070707171727273737474757576767777787879797A7A7B7B7C7C7D7D7E7E7F7FF2
:201F000080808181828283838484858586868787888889898A8A8B8B8C8C8D8D8E8E8F8FD1
:201F200090909191929293939494959596969797989899999A9A9B9B9C9C9D9D9E9E9F9FB1
:201F4000A0A0A1A1A2A2A3A3A4A4A5A5A6A6A7A7A8A8A9A9AAAAABABACACADADAEAE0000EF
:201F6000000000000000000000000000000000000000000000000000000000000000000061
:201F8000000000000000000000000000000000000000000000000000000000000000000041
:201FA000000000000000000000000000000000000000000000000000000000000000000021
:201FC000000000000000000000000000000000000000000000000000000000000000000001
:101FE000000000000000000000000000000000F4FD
:00000001FF
